:1000000072C000009EC000009CC000009AC00000AA
:1000100098C0000096C0000094C0000092C000008C
:1000200090C000008EC000008CC000008AC000009C
:1000300088C0000086C0000084C0000082C00000AC
:1000400080C000007EC000007CC000007AC00000BC
:1000500078C0000076C0000074C0000091C30000AA
:1000600070C000005FC4000034C400006AC000001B
:1000700068C0000066C0000064C0000062C00000EC
:1000800060C000005EC000005CC000005AC00000FC
:10009000EAC30000BFC3000054C0000052C000000B
:1000A00050C000004EC000004CC000004AC000001C
:1000B00048C0000046C0000044C0000042C000002C
:1000C00040C000003EC000003CC000003AC000003C
:1000D00038C0000036C0000034C0000032C000004C
:1000E00030C00000C80411241FBECFEFD1E2DEBF34
:1000F000CDBF00E00CBF27E0A8E9B2E001C01D922F
:10010000AF3CB207E1F712E0A0E0B2E0E4E4F0E1D6
:1001100000E00BBF02C007900D92A839B107D9F7D4
:1001200010E0C3E7D0E000E005C021970109802F6F
:10013000FE017ED7C237D10780E00807B1F77BD434
:100140007FC75ECFFC01A089B18982E08C93A48532
:10015000B5851C92A685B7858FEC8C93108EA489EB
:10016000B58986E08C93A289B3898C9180618C9348
:10017000A289B3898C9188608C93A289B3898C9170
:1001800080688C930288F389E02D80818F7D808345
:1001900008953FB7F89480917B0590917C05A091DC
:1001A0007D05B0917E0526B5A89B05C02F3F19F0AF
:1001B0000196A11DB11D3FBFBA2FA92F982F8827E7
:1001C000BC01CD01620F711D811D911D42E0660FC2
:1001D000771F881F991F4A95D1F70895AF92BF9254
:1001E000CF92DF92EF92FF920F931F93CF93DF9303
:1001F0006C017B018B01040F151FEB015E01AE1832
:10020000BF08C017D10759F06991D601ED91FC9153
:100210000190F081E02DC6011995892B79F7C50170
:10022000DF91CF911F910F91FF90EF90DF90CF90D2
:10023000BF90AF900895FC01538D448D252F30E081
:10024000842F90E0821B930B541710F0CF960895E3
:1002500001970895FC01918D828D981761F0A28D10
:10026000AE0FBF2FB11D5D968C91928D9F5F9F73D6
:10027000928F90E008958FEF9FEF08950F931F9353
:10028000CF93DF938C01D0E0C0E02FB7F89480913A
:10029000910690919206A0919306B09194062FBF7B
:1002A00080933A0790933B07A0933C07B0933D0798
:1002B00082E397E0CFDF97FF2AC02FB7F8948091B1
:1002C000910690919206A0919306B09194062FBF4B
:1002D00040913A0750913B0760913C0770913D0770
:1002E000841B950BA60BB70B40913607509137072F
:1002F000609138077091390784179507A607B707EB
:10030000B8F2CE01DF91CF911F910F910895F801BE
:1003100081938F012196C830D10509F0B6CFF1CF76
:10032000FC01918D828D981731F0828DE80FF11DBF
:10033000858D90E008958FEF9FEF0895FC01918DDA
:10034000228D892F90E0805C9F4F821B91098F73D3
:100350009927089585E996E0F1DF21E0892B09F4DA
:1003600020E0822F089582E397E0E8DF21E0892BE7
:1003700009F420E0822F0895FC01A48DA80FB92F65
:10038000B11DA35ABF4F2C91848D90E001968F73BD
:100390009927848FA689B7892C93A089B1898C91DC
:1003A000837080648C93938D848D981306C002882B
:1003B000F389E02D80818F7D80830895EF92FF92F5
:1003C0000F931F93CF93DF93EC0181E0888F9B8D78
:1003D0008C8D98131AC0E889F989808185FF15C032
:1003E0009FB7F894EE89FF896083E889F989808155
:1003F0008370806480839FBF81E090E0DF91CF9124
:100400001F910F91FF90EF900895F62E0B8D10E045
:100410000F5F1F4F0F731127E02E8C8D8E110BC0B5
:100420000FB607FCFACFE889F989808185FFF5CFFF
:10043000CE01A2DFF2CFEB8DEC0FFD2FF11DE35AC1
:10044000FF4FF0829FB7F8940B8FEA89FB89808178
:100450008062D0CFCF93DF93EC01888D8823B1F0F9
:10046000AA89BB89E889F9898C9185FD03C08081BF
:1004700086FD0CC00FB607FCF7CF8C9185FFF2CF3D
:10048000808185FFEDCFCE0177DFEACFDF91CF917D
:10049000089580E090E0892B21F065DF81110E94B2
:1004A000000080E090E0892B21F054DF81110E9450
:1004B000000080E090E0892B49F080E090E0892BFB
:1004C00029F00E94000081110E94000080E090E06D
:1004D000892B49F080E090E0892B29F00E940000F0
:1004E00081110C9400000895FC01DB016D917C9159
:1004F000680F791F4FEF5FEF6E177F0741F1919102
:10050000292F220F2A7A96959575292B922F990FCC
:10051000990F9C7C269526952373922B929595276F
:10052000892F82958F708927282F30E0942FA90179
:10053000542F44275295507F84279527A90125E001
:10054000440F551F2A95E1F748275927D5CF9A011F
:10055000220F331F2A7A3A7ACA01B0E0A0E0B6959A
:10056000A7959795879585759575822B932BBC01DB
:10057000660F771F660F771F6C7C7C7CB0E0A0E075
:10058000E2E0B695A79597958795EA95D1F783739D
:100590009373682B792BCB01F4E0880F991FFA95A0
:1005A000E1F7807F907FAB0170E060E0A4E076959A
:1005B000679557954795AA95D1F74F705F70842B33
:1005C000952B9827892798270895BF92CF92DF927D
:1005D000EF92FF920F931F93CF93DF93CDB7DEB7C8
:1005E000C250D1400FB6F894DEBF0FBECDBF1092FF
:1005F00090064FE755E0FE0131969F016F0196E0AE
:100600004F37590739F0DA019D91AD01D9019D931A
:100610009D01F5CF99819E3709F061C021E030E05E
:10062000CF5FDE4F39832883C150D140A2E8B6E0C6
:1006300020E936E031962A173B0769F498899093B0
:10064000810600E110E090E040960817190738F4A1
:100650000F5F1F4FFACF90819D93ECCF87017801F8
:10066000BFEFEB1AFB0AEDEFEE16F104B8F3CF5F24
:10067000DE4FF982E882C150D140BB24B394B092DE
:10068000800610927F06BE016F5F7E4FC6012CDF91
:10069000F601EE0DFF1D2081291310C00E5F1F4FC4
:1006A000CF5FDE4F19830883C150D1400C0D1D1D53
:1006B000D8019C91981302C0B0929006CE5FDE4F95
:1006C0000FB6F894DEBF0FBECDBFDF91CF911F9163
:1006D0000F91FF90EF90DF90CF90BF900895109210
:1006E0007F06ECCFFC0101900020E9F73197AF01C4
:1006F000481B590BBC0185E996E070CD8F929F9203
:10070000AF92BF920F931F93CF93DF93CDB7DEB716
:10071000A1970FB6F894DEBF0FBECDBF19A242302D
:1007200008F44AE08E010F5D1F4F842E912CB12CEE
:10073000A12CA50194015AD4E62FB901CA01EA30CF
:10074000ECF4E05DD801EE938D01232B242B252BB7
:1007500081F790E080E0109711F0CD01C3DFA19602
:100760000FB6F894DEBF0FBECDBFDF91CF911F91C2
:100770000F91BF90AF909F908F900895E95CE2CF6A
:100780001F920F920FB60F9211242F933F938F93C6
:100790009F93AF93BF938091910690919206A09101
:1007A0009306B091940630917A0523E0230F2D37FC
:1007B00058F50196A11DB11D20937A0580939106ED
:1007C00090939206A0939306B093940680917B0534
:1007D00090917C05A0917D05B0917E050196A11DAB
:1007E000B11D80937B0590937C05A0937D05B0930C
:1007F0007E05BF91AF919F918F913F912F910F9067
:100800000FBE0F901F90189526E8230F0296A11D8A
:10081000B11DD2CF1F920F920FB60F9211240BB6BB
:100820000F922F933F934F935F936F937F938F9389
:100830009F93AF93BF93EF93FF9385E996E09CDD81
:10084000FF91EF91BF91AF919F918F917F916F91A8
:100850005F914F913F912F910F900BBE0F900FBE64
:100860000F901F9018951F920F920FB60F921124A0
:100870000BB60F922F938F939F93EF93FF93E0917B
:10088000A506F091A6068081E091AB06F091AC063A
:1008900082FD1DC090818091AE068F5F8F73209185
:1008A000AF06821741F0E091AE06F0E0EB56F94F4B
:1008B000958F8093AE06FF91EF919F918F912F912D
:1008C0000F900BBE0F900FBE0F901F901895808158
:1008D000F2CF1F920F920FB60F9211240BB60F9208
:1008E0002F933F934F935F936F937F938F939F9338
:1008F000AF93BF93EF93FF9382E397E03DDDFF91CA
:10090000EF91BF91AF919F918F917F916F915F9187
:100910004F913F912F910F900BBE0F900FBE0F90F4
:100920001F9018951F920F920FB60F9211240BB6BD
:100930000F922F938F939F93EF93FF93E091420732
:10094000F09143078081E0914807F091490782FDCB
:100950001DC0908180914B078F5F8F7320914C0752
:10096000821741F0E0914B07F0E0EE5CF84F958F75
:1009700080934B07FF91EF919F918F912F910F9053
:100980000BBE0F900FBE0F901F9018958081F2CF75
:10099000E5E9F6E01382128248EE53E060E070E091
:1009A000448355836683778389E292E091838083D1
:1009B0002DEC30E0358724872CEC30E03787268714
:1009C00028EC30E0318B208B29EC30E0338B228B0C
:1009D0002AEC30E0358B248B2EEC30E0378B268BE5
:1009E000118E128E138E148EE2E3F7E013821282C0
:1009F00044835583668377839183808385EC90E07D
:100A00009587848784EC90E09787868780EC90E0D8
:100A1000918B808B81EC90E0938B828B82EC90E0C9
:100A2000958B848B86EC90E0978B868B118E128E43
:100A3000138E148E0895CF93DF93CDB7DEB76097F2
:100A40000FB6F894DEBF0FBECDBF789484B5826038
:100A500084BD84B5816084BD85B5826085BD85B562
:100A6000816085BD80916E00816080936E001092E0
:100A7000810080918100826080938100809181005B
:100A800081608093810080918000816080938000EC
:100A90008091B10084608093B1008091B00081604A
:100AA0008093B0008091910082608093910080914A
:100AB000910081608093910080919000816080938B
:100AC00090008091A10082608093A1008091A1009C
:100AD00081608093A1008091A00081608093A0003C
:100AE00080912101826080932101809121018160A8
:100AF0008093210180912001816080932001809169
:100B00007A00846080937A0080917A00826080937A
:100B10007A0080917A00816080937A0080917A00D7
:100B2000806880937A001092C10082E397E00ADB2C
:100B300085E996E007DB8091780581110FC08091EF
:100B40009802ECE8F4E09CEE980F81938F5F981385
:100B5000FCCF9093980281E08093780555245394BC
:100B600050E9252E56E0352E68E7662E65E0762E94
:100B7000CE010F96988B8F87809179058130A1F4F3
:100B80008091780581110EC080919802ECE8F4E024
:100B90009CEE980F81938F5F8913FCCF809398020E
:100BA000509278051092790580917805813021F472
:100BB00080918B04882321F0809180068130B1F4EC
:100BC00087E392E08FDD8EE0EFE0F2E0DE01119648
:100BD00001900D928A95E1F780919D02813009F490
:100BE000A4C008F441C0823009F4D7C080918B04BE
:100BF000813009F042C180918A0481113EC185E5AE
:100C000092E070DD80910E029EE790938A03A0E04F
:100C1000B2E0EAE8F3E0319622E0AE30B20709F044
:100C20000DC140929903AEE9B2E0EAE9F3E000E1D8
:100C300010E090E040960817190708F402C1C801B7
:100C400086579C4F6C0178019FEFE91AF90AC6019B
:100C50008A5893408D3F910508F0F8C0F6012AEAC2
:100C600021936F018701EFCF809178058130F9F4EE
:100C700080918B0481111BC0ECE8F4E0AEE9B2E096
:100C800081918D936E167F06D9F710927805509258
:100C90008B0480919C02880F8E7040909B0290E2A2
:100CA000499E90011124482E422A50929D02209183
:100CB0008006213009F09ACFE2E8F6E0DE011196D5
:100CC00091918D919817E9F010928006809181069C
:100CD00080FD22C0982F92959695977090939A02D6
:100CE00090E095958795877090919B0289130EC02F
:100CF00050929902213009F479CFE2E0E0939D020D
:100D000075CF2E163F06E1F620E0E0CF1092990253
:100D1000F2E0F0939D026ACF213009F467CF809111
:100D20009902813009F062CFE8CF8091800681304E
:100D300009F05CCF8091810680FD08C08295869580
:100D4000877080939A021092800650CF982F9370EC
:100D50009130C9F7982F92959695977090939A0233
:100D600020919C029150983008F097E029130DC013
:100D700090E095958795959587958370823028F4B6
:100D8000273041F02F5F20939C0210929D025092D9
:100D90007905D9CF10929C02F8CF109280068091ED
:100DA0009C028730A8F58F5F80939C02809190060B
:100DB0008130A1F580919902813081F584E492E03F
:100DC00091DC8BE492E08EDC40909A0220E2429E1D
:100DD000C0011124482E689440F880919B0287300E
:100DE000D0F48F5F80939B021092990210920E02B2
:100DF000FE013196A0E0B2E081918D938F859889B4
:100E00008E179F07C9F750928B0410929D02EECE69
:100E100010929C02CBCF10929B02E6CF8EE492E020
:100E200061DC8BE492E05EDC40909A02E0E24E9E50
:100E3000C0011124F82FF9604F2ED8CF9D919083D7
:100E4000EACE2D9121930F5F1F4FF5CE1A830983B0
:100E5000BE016F5F7F4F8AE893E046DBF601908327
:100E6000F701E657FC4F8083F801E457FC4F2EE76B
:100E7000208310928B0450928A0480918A048130DE
:100E800089F40AE813E0F80161918F0182E397E0A9
:100E900095DA82E397E0DEDAF4E00A381F0799F783
:100EA00010928A0488E0EDE1F2E0DE0111960190F3
:100EB0000D928A95E1F782E397E040DA892B09F4F5
:100EC00085C080917F06811181C08CEE80930E02D7
:100ED00083E692E007DC8FE795E0D0D9DE0111963A
:100EE000EFE7F5E011E091918D91981310E025E086
:100EF000E738F207C1F760917F0570E090E080E08D
:100F00004AE0FCDB8BE492E0EDDB113009F05EC0DF
:100F100010E000E0C80189579A4FB0D9085F1F4F11
:100F2000083F1105B9F735D94B015C0184E6C82E9D
:100F3000D12CE12CF12C2DD9681979098A099B094A
:100F4000683E734081059105B0F381E0C81AD1086D
:100F5000E108F10898EE890E93E0991EA11CB11CDE
:100F6000C114D104E104F10431F750927F0688E7FF
:100F700092E0B8DB82E397E06DDA0FE715E0F80165
:100F800061918F0170E090E080E040E1B7DB85E99E
:100F900096E060DA8DE995E08017910781F78AE89D
:100FA00092E0A0DB05E616E0F80161918F0170E0A8
:100FB00090E080E040E1A2DB85E996E04BDAF6E0E4
:100FC0000F371F0789F78AE892E08CDB8091800653
:100FD00081110AC080917F06813031F48DE892E062
:100FE00081DB80910E02F1DA54DAC6CDA1E21A2E2D
:100FF000AA1BBB1BFD010DC0AA1FBB1FEE1FFF1FBD
:10100000A217B307E407F50720F0A21BB30BE40B0C
:10101000F50B661F771F881F991F1A9469F7609553
:101020007095809590959B01AC01BD01CF0108950D
:10103000EE0FFF1F881F8BBF0790F691E02D1994CC
:04104000F894FFCF52
:101044004F4E34554C47604F554654493161EC4F2F
:101054004E34554C47604F5546544931617E4F4E8E
:1010640034554C476000000000DE01EE001B012AED
:10107400029E012A0190010A4D616E6167656D65EA
:101084006E740A00416363657074000D0A00526552
:101094006A656374000A4275696C64204672616D06
:1010A400650A000A2077616974696E6720666F7249
:1010B4002064617461200A000A20526563656976C0
:1010C4006564204672616D650A000A0A000A446577
:0810D4006672616D650A0000FF
:00000001FF
