:100000000C9463000C948B000C948B000C948B006C
:100010000C948B000C948B000C948B000C948B0034
:100020000C948B000C948B000C948B000C948B0024
:100030000C948B000C948B000C948B000C948B0014
:100040000C9450040C948B000C94C0040C949A04EF
:100050000C948B000C948B000C948B000C948B00F4
:100060000C948B000C948B000A0B0C0D0E0F0000EF
:100070000008000201000003040700000000000067
:10008000000000000000250028002B0000000000F8
:10009000240027002A0004040404040404040202C7
:1000A00002020202030303030303010204081020F7
:1000B0004080010204081020010204081020000101
:1000C00002030405F20411241FBECFEFD8E0DEBF07
:1000D000CDBF25E0AEE3B1E001C01D92AA3FB2075B
:1000E000E1F711E0A0E0B1E0E8E3F3E102C0059040
:1000F0000D92AE33B107D9F710E0C3E6D0E004C0EB
:100100002197FE010E948B09C236D107C9F70E94D0
:1001100046050C949A090C94000090E0FC01E65509
:10012000FF4F24918A569F4FFC018491882399F0B8
:1001300090E0880F991FFC01E457FF4FA591B491FF
:10014000FC01EE57FF4F859194918FB7F894EC9195
:10015000E22BEC938FBF089590E0FC01E259FF4F32
:100160002491FC01E655FF4F3491FC01EA56FF4F04
:10017000E491EE23C9F0222339F0233001F1A8F4F1
:10018000213019F1223029F1F0E0EE0FFF1FEE5778
:10019000FF4FA591B4918FB7F894EC91611126C0EF
:1001A00030953E233C938FBF08952730A9F0283027
:1001B000C9F0243049F7809180008F7D03C0809181
:1001C00080008F7780938000DFCF84B58F7784BDE8
:1001D000DBCF84B58F7DFBCF8091B0008F7780938C
:1001E000B000D2CF8091B0008F7DF9CF3E2BDACF17
:1001F000682F8091DE050E94AC008091F6059091F9
:10020000F7058230910538F0880F991F880F991FE4
:1002100005970197F1F7089581E00C94F80020917B
:10022000DC053091DD054091DE055091DF05241796
:10023000350721F0682F822F0C94AC0008953FB74A
:10024000F8948091260490912704A0912804B091FD
:10025000290426B5A89B05C02F3F19F00196A11DC2
:10026000B11D3FBFBA2FA92F982F8827BC01CD0100
:10027000620F711D811D911D42E0660F771F881F5F
:10028000991F4A95D1F70895AF92BF92CF92DF920E
:10029000EF92FF920F931F93CF93DF936C017B013B
:1002A0008B01040F151FEB015E01AE18BF08C017CC
:1002B000D10759F06991D601ED91FC910190F0813F
:1002C000E02DC6010995892B79F7C501DF91CF9102
:1002D0001F910F91FF90EF90DF90CF90BF90AF9064
:1002E0000895FC01538D448D252F30E0842F90E03C
:1002F000821B930B541710F0CF9608950197089521
:10030000FC01918D828D981761F0A28DAE0FBF2FE9
:10031000B11D5D968C91928D9F5F9F73928F90E03F
:1003200008958FEF9FEF0895FC01918D828D9817AE
:1003300031F0828DE80FF11D858D90E008958FEFEB
:100340009FEF0895FC01918D228D892F90E0805CB4
:100350009F4F821B91098F73992708958CE395E035
:100360000E94A20121E0892B09F420E0822F089548
:1003700080E090E0892B29F00E94AE0181110C945D
:1003800000000895FC01A48DA80FB92FB11DA35A38
:10039000BF4F2C91848D90E001968F739927848FA5
:1003A000A689B7892C93A089B1898C9183708064C8
:1003B0008C93938D848D981306C00288F389E02D69
:1003C00080818F7D80830895EF92FF920F931F931A
:1003D000CF93DF93EC0181E0888F9B8D8C8D9813F8
:1003E0001AC0E889F989808185FF15C09FB7F89404
:1003F000EE89FF896083E889F98980818370806450
:1004000080839FBF81E090E0DF91CF911F910F919A
:10041000FF90EF900895F62E0B8D10E00F5F1F4FA9
:100420000F731127E02E8C8D8E110CC00FB607FCB8
:10043000FACFE889F989808185FFF5CFCE010E9446
:10044000C201F1CFEB8DEC0FFD2FF11DE35AFF4FF1
:10045000F0829FB7F8940B8FEA89FB8980818062D4
:10046000CFCFCF93DF93EC01888D8823B9F0AA8991
:10047000BB89E889F9898C9185FD03C0808186FD5F
:100480000DC00FB607FCF7CF8C9185FFF2CF8081AE
:1004900085FFEDCFCE010E94C201E9CFDF91CF9160
:1004A00008958EBD00000DB407FEFDCF8EB50895F2
:1004B000FC019081973018F49F5F9083089510821B
:1004C0000895FC01DB016D917C91680F791F4FEF5E
:1004D0005FEF6E177F0741F19191292F220F2A7A42
:1004E00096959575292B922F990F990F9C7C26959F
:1004F00026952373922B92959527892F82958F703D
:100500008927282F30E0942FA901542F4427529592
:10051000507F84279527A90125E0440F551F2A9570
:10052000E1F748275927D5CF9A01220F331F2A7A9E
:100530003A7ACA01B0E0A0E0B695A795979587955D
:1005400085759575822B932BBC01660F771F660FFF
:10055000771F6C7C7C7CB0E0A0E0E2E0B695A795CC
:1005600097958795EA95D1F783739373682B792BC9
:10057000CB01F4E0880F991FFA95E1F7807F907F17
:10058000AB0170E060E0A4E07695679557954795DC
:10059000AA95D1F74F705F70842B952B98278927E8
:1005A00098270895BF92CF92DF92EF92FF920F9318
:1005B0001F93CF93DF93CDB7DEB7C250D1400FB6B4
:1005C000F894DEBF0FBECDBF10923B054AE254E067
:1005D000FE0131969F016F0195E04A32590739F0CB
:1005E000DA019D91AD01D9019D939D01F5CF9981CE
:1005F0009E3709F062C021E030E0CF5FDE4F3983E3
:100600002883C150D140ADE2B5E02BE335E031960F
:100610002A173B0769F4988990932C0500E110E0B4
:1006200090E040960817190738F40F5F1F4FFACF74
:1006300090819D93ECCF87017801BFEFEB1AFB0A05
:10064000EDEFEE16F104B8F3CF5FDE4FF982E882EA
:10065000C150D140BB24B394B0922B0510922A050F
:10066000BE016F5F7E4FC6010E946102F601EE0D72
:10067000FF1D2081291310C00E5F1F4FCF5FDE4F7B
:1006800019830883C150D1400C0D1D1DD8019C91C8
:10069000981302C0B0923B05CE5FDE4F0FB6F894C0
:1006A000DEBF0FBECDBFDF91CF911F910F91FF90A5
:1006B000EF90DF90CF90BF90089510922A05ECCF75
:1006C0000F931F930091E0051091E1052091E20541
:1006D0003091E30540E052E16AE770E080E0041702
:1006E00015072607370740F4769567955795479580
:1006F0008F5F8630A1F787E0982F906A9695809556
:1007000081709CBD8DBD80E01F910F910C94F8000D
:10071000CF93C82F0E9460038C2F80620E945102E9
:100720008093E405CF910C940C01CF93C82F0E94C5
:1007300060038C2F0E9451028093E4058FEF0E948A
:100740005102C82F0E940C018C2FCF910895FF9267
:100750000F931F93CF93DF93C82FF62E072F142FDD
:100760000E9460038C2F80620E9451028093E405F6
:10077000CF2DD02F115020F089910E945102FACF35
:10078000DF91CF911F910F91FF900C940C010E946B
:10079000600380E50E9451028093E40583E70E9494
:1007A00051020C940C010F931F93CF93DF938C0194
:1007B0008091F005C0E0D1E0811106C0C091E5054F
:1007C000DC2FC111D1E0CD1B0E94600381E60E94A5
:1007D00051028093E405DD2329F08FEF0E9451023E
:1007E000F8018083C15020F08FEF0E945102FACFB0
:1007F000DF91CF911F910F910C940C01CF93DF9358
:10080000D82FC62F0E9460038D2F80620E94510254
:100810008093E4058C2F0E945102DF91CF910C94BC
:100820000C0180E00E940F018091F2059091F30588
:100830008230910538F0880F991F880F991F05970E
:100840000197F1F78091EE05882319F081EE0E945F
:1008500088036091EB056E7F6093EB0580E00E945A
:10086000FE0382E00E949503EEEBF0E0E49161E08C
:1008700070E001C0660FEA95EAF7682B82E00C94FD
:10088000FE036091EB0561FD0AC062606093EB05B9
:1008900080E00E94FE038BE19EE40197F1F708954A
:1008A0001F920F920FB60F9211242F933F938F93A5
:1008B0009F93AF93BF938091220490912304A091C2
:1008C0002404B09125043091210423E0230F2D3717
:1008D00058F50196A11DB11D209321048093220497
:1008E00090932304A0932404B093250480912604BC
:1008F00090912704A0912804B09129040196A11D8C
:10090000B11D8093260490932704A0932804B093EC
:100910002904BF91AF919F918F913F912F910F909B
:100920000FBE0F901F90189526E8230F0296A11D69
:10093000B11DD2CF1F920F920FB60F9211242F9399
:100940003F934F935F936F937F938F939F93AF9357
:10095000BF93EF93FF938CE395E00E94C201FF9158
:10096000EF91BF91AF919F918F917F916F915F9127
:100970004F913F912F910F900FBE0F901F901895A0
:100980001F920F920FB60F9211242F938F939F9364
:10099000EF93FF93E0914C05F0914D058081E0913C
:1009A0005205F091530582FD1BC090818091550541
:1009B0008F5F8F7320915605821741F0E0915505A6
:1009C000F0E0E45CFA4F958F80935505FF91EF912D
:1009D0009F918F912F910F900FBE0F901F901895A0
:1009E0008081F4CFECE3F5E01382128288EE93E08D
:1009F000A0E0B0E084839583A683B78380E391E091
:100A00009183808385EC90E09587848784EC90E0E7
:100A10009787868780EC90E0918B808B81EC90E0CB
:100A2000938B828B82EC90E0958B848B86EC90E0AC
:100A3000978B868B118E128E138E148EEAEDF5E055
:100A400089E090E09383828388E090E095838483BB
:100A500080E896E9A8E9B0E086839783A087B1870C
:100A600080E28387128A138A85E0858B81E0868BFA
:100A700085E090E0A0E0B0E0848F958FA68FB78FDF
:100A800089ED95E09183808314860895CF93DF9359
:100A9000CDB7DEB760970FB6F894DEBF0FBECDBFFF
:100AA000789484B5826084BD84B5816084BD85B549
:100AB000826085BD85B5816085BD80916E00816055
:100AC00080936E00109281008091810082608093FB
:100AD00081008091810081608093810080918000FD
:100AE0008160809380008091B10084608093B10028
:100AF0008091B00081608093B00080917A00846022
:100B000080937A0080917A00826080937A0080914D
:100B10007A00816080937A0080917A008068809367
:100B20007A001092C1000FB7F89480913E018111B4
:100B300024C0E0EAF0E08491E4EBF0E09491E82F47
:100B4000F0E0EE0FFF1FE457FF4FA591B491EC9139
:100B5000E92321F461E08AE00E94AC008AE00E946F
:100B60008D008CB580618CBD8CB580648CBD8DE0B2
:100B70000E948D008BE00E948D0080913E018F5F6E
:100B800080933E010FBF8091DC059091DD058F3F82
:100B9000980709F4A2C02091DE053091DF052F3FB0
:100BA000320709F49AC08217930731F00E948D0032
:100BB0008091DE050E948D0080E00E940F0181E09F
:100BC0000E94F8000E941F016B017C01E5E08E2E5F
:100BD000912CA12CB12C0E941F016C197D098E094A
:100BE0009F09683E734081059105A8F381E0881A4A
:100BF0009108A108B10898EEC90E93E0D91EE11C36
:100C0000F11C81149104A104B10429F76FE584E07B
:100C10000E94FE0385E590E0A0E0B0E08093F2053D
:100C20009093F305A093F405B093F50567E086E093
:100C30000E94FE038DE10E949503082F0E94C703C6
:100C40008DE10E94950391E0081390E09093EC05EC
:100C5000882341F0081302C00E94C70360E08DE1C1
:100C60000E94FE031092EE0560E08CE10E94FE03FC
:100C70001092F0056FE381E00E94FE0363E082E0E2
:100C80000E94FE0380E28093E50501E16091E505A5
:100C9000802F0E94FE030F5F0731C1F763E083E0FE
:100CA0000E94FE0385E08093EF056CE40E94FE0342
:100CB00060E787E00E94FE0382EE0E94880381EED7
:100CC0000E9488036CE080E00E94FE0380E00E94A6
:100CD00095038093EB050E9441044091EF0566E285
:100CE00071E08AE00E94A7034091EF0566E271E09F
:100CF00080E10E94A7034091EF0550E066E271E0B9
:100D000086EE95E00E94910981E08093ED05E8E68A
:100D1000F0E084914091EF0566E271E00E94A70344
:100D200082E00E949503EEEBF0E0949161E070E0C8
:100D300001C0660F9A95EAF7682B82E00E94FE03D5
:100D40000E941104E0914C05F0914D0582E08083F2
:100D5000E0914805F09149051082E0914A05F09133
:100D60004B058FEC808310925405E0915005F09173
:100D7000510586E08083E0914E05F0914F0580811A
:100D800080618083E0914E05F0914F0580818860FD
:100D90008083E0914E05F0914F05808180688083CB
:100DA000E0914E05F0914F0580818F7D8083809189
:100DB0001F04811113C080910001882361F080918C
:100DC0003F01E3E3F3E09CEE980F81938F5F89137B
:100DD000FCCF80933F0181E080931F045E01FFE020
:100DE000AF0EB11C01E062E3262E64E0362E7AE2FB
:100DF000872E75E0972E809120048130C1F4809178
:100E00001F04811112C080910001882361F080913C
:100E10003F01E3E3F3E09CEE980F81938F5F89132A
:100E2000FCCF80933F0100931F0410922004909107
:100E30001F04913021F480913203882321F08091A6
:100E40002B05813099F48EE0E0E1F1E0DE011196AE
:100E500001900D928A95E1F780914401813009F467
:100E60009AC008F43FC0823009F4DAC0809132039E
:100E7000813009F024C180913103811120C180911A
:100E80000F019EE790933102A1E0B1E0E1E3F2E0CF
:100E9000319621E0AF30B20709F0F0C01093400264
:100EA000A5E4B1E0E1E4F2E090E1E92EF12C90E07C
:100EB0004096E816F90608F4E4C0C7018F5C9D4F20
:100EC0003C0167014FEFC41AD40AC3018153924019
:100ED0008D3F910508F0DBC0F3012AEA21933F0121
:100EE0007601EFCF913001F58091320381111CC062
:100EF000E3E3F3E0A5E4B1E081918D938FE194E029
:100F00008E179F07C9F710921F04009332031091A8
:100F10004301110F1E7080914201E0E28E9FC001DB
:100F20001124182B0093440120912B05213009F046
:100F30009DCFEDE2F5E0DE01119691918D9198172C
:100F4000C1F010922B0530912C05832F90E030FDDD
:100F500019C09595879587709091420189130FC0AC
:100F600000934101213009F481CF82E08093440154
:100F70007DCF45E0EB33F40701F720E0E4CF10929A
:100F80004101F3CF213009F471CF809141018130CB
:100F900009F06CCFEACF80912B05813009F066CF44
:100FA00080912C0580FF24C0982F9370913001F51B
:100FB000282F30E035952795359527952370829514
:100FC000869587708150883008F087E090914301C2
:100FD000891311C0223078F400930001109240016F
:100FE00083E491E00E94580210924401009320048F
:100FF00010922B053BCF109200018091400182306E
:1010000059F40093000110921F0483E491E00E94C0
:10101000580210924001E8CF8F5F80934001E4CFE7
:1010200010922B051091420183E491E00E94580236
:10103000E0E21E9FC0011124182F116080913B0532
:101040008130D1F4809141018130B1F482E491E0AA
:101050000E9458021092410110920F01FE01319638
:10106000A1E0B1E081918D93AE16BF06D9F7009350
:10107000320310924401FACE1860EECF9D91908316
:1010800007CF2D9121932FEFE21AF20A12CFFA82A5
:10109000E982BE016F5F7F4F81E392E00E946102AF
:1010A000F3019083F601EF5CFD4F8083F701ED5C67
:1010B000FD4F8EE7808310923203009331038091BD
:1010C0003103813009F07DC00E94110471E3E72EE5
:1010D00072E0F72E8091F005D12CCC24C3948111BD
:1010E00008C0D090E505CD2CDD2011F0CC24C394B0
:1010F000DC180E94600380EA0E9451028093E4059C
:10110000CC2021F0F70180810E945102DA94FFEF98
:1011100080E0DF12F9CF0E940C0181E00E940F01F4
:101120008FB7F894409022045090230460902404D8
:10113000709025048FBF8FEF0E9488038091E40593
:10114000807309F0C4C02FB7F89480912204909165
:101150002304A0912404B09125042FBF841995097C
:10116000A609B70980369105A105B10520F30093C2
:10117000F1052FEFE21AF20A81E393E08E159F0545
:1011800009F0A8CF109231030E9441046091EB0551
:1011900061606093EB0580E00E94FE0360E787E0FA
:1011A0000E94FE0381E00E940F018091ED058823DB
:1011B00009F49CC04091EF0566EE75E08AE00E945C
:1011C000A70388E0EEE1F1E0DE01119601900D92B7
:1011D0008A95E1F78FEF0E9488038091E40590E003
:1011E000959587958770863008F058C080912A05BC
:1011F000811154C08CEE80930F01188A5AE2E52EBB
:1012000054E0F52E8FEF0E9488038091E40590E072
:101210009595879587708630A8F7CE0140960E94F5
:10122000D30360E487E00E94FE038889F70181937D
:101230007F012E163F0631F7DE011196EAE2F4E057
:1012400081E021919D91291380E0EE15FF05C9F7FA
:10125000813021F51F8632E3E32E34E0F32E8FEF49
:101260000E9488038091E40590E0959587958770AA
:101270008630A8F7C5010E94D30360E487E00E948E
:10128000FE038F85F70181937F018E169F0639F744
:1012900000932A058CE395E00E94310280912B0592
:1012A000811108C080912A05813021F480910F01BD
:1012B0000E94D20280E090E0892B09F49CCD0E942C
:1012C000AE01882309F48ECD0E9400008BCD80E012
:1012D0000E940F0160E787E00E94FE038091E40511
:1012E00084FF47CF81EE0E94880343CF82E00E94B3
:1012F0009503EEEBF0E0949121E030E001C0220F85
:101300009A95EAF72095622F682382E00E94FE03F7
:101310001092ED0556CFEE0FFF1F0590F491E02DD2
:101320000994FB01DC0102C001900D924150504034
:08133000D8F70895F894FFCFEF
:10133800014F4E34554C47604F554654493161EC86
:101348004F4E34554C47604F5546544931617E4F96
:101358004E34554C476030303030310000000000CA
:0E136800E401440171013102A20180019401EF
:00000001FF
