:100000000C9435000C945D000C945D000C945D0024
:100010000C945D000C945D000C945D000C945D00EC
:100020000C945D000C945D000C945D000C945D00DC
:100030000C945D000C945D000C945D000C945D00CC
:100040000C94D9020C945D000C9449030C94230386
:100050000C945D000C945D000C945D000C945D00AC
:100060000C945D000C945D00190611241FBECFEFA7
:10007000D8E0DEBFCDBF25E0A8E3B1E001C01D920E
:10008000A23DB207E1F711E0A0E0B1E0ECE9FCE04D
:1000900002C005900D92A833B107D9F710E0C5E36F
:1000A000D0E004C02197FE010E944606C433D10768
:1000B000C9F70E947B030C944C060C9400003FB7D8
:1000C000F89480911B0490911C04A0911D04B091A0
:1000D0001E0426B5A89B05C02F3F19F00196A11D4F
:1000E000B11D3FBFBA2FA92F982F8827BC01CD0182
:1000F000620F711D811D911D42E0660F771F881FE1
:10010000991F4A95D1F70895AF92BF92CF92DF928F
:10011000EF92FF920F931F93CF93DF936C017B01BC
:100120008B01040F151FEB015E01AE18BF08C0174D
:10013000D10759F06991D601ED91FC910190F081C0
:10014000E02DC6010995892B79F7C501DF91CF9183
:100150001F910F91FF90EF90DF90CF90BF90AF90E5
:100160000895FC01538D448D252F30E0842F90E0BD
:10017000821B930B541710F0CF96089501970895A2
:10018000FC01918D828D981761F0A28DAE0FBF2F6B
:10019000B11D5D968C91928D9F5F9F73928F90E0C1
:1001A00008958FEF9FEF08952FB7F8948091310550
:1001B00090913205A0913305B09134052FBF809303
:1001C0003D0590933E05A0933F05B093400585E320
:1001D00095E00E94C00097FF26C02FB7F894809149
:1001E000310590913205A0913305B09134052FBFB0
:1001F00040913D0550913E0560913F05709140054D
:10020000841B950BA60BB70B4091390550913A050D
:1002100060913B0570913C0584179507A607B707C9
:10022000B0F28FEF9FEF0895FC01918D828D9817AA
:1002300031F0828DE80FF11D858D90E008958FEFEC
:100240009FEF0895FC01918D228D892F90E0805CB5
:100250009F4F821B91098F739927089585E395E03D
:100260000E94220121E0892B09F420E0822F0895C9
:1002700080E090E0892B29F00E942E0181110C94DE
:1002800000000895FC01A48DA80FB92FB11DA35A39
:10029000BF4F2C91848D90E001968F739927848FA6
:1002A000A689B7892C93A089B1898C9183708064C9
:1002B0008C93938D848D981306C00288F389E02D6A
:1002C00080818F7D80830895EF92FF920F931F931B
:1002D000CF93DF93EC0181E0888F9B8D8C8D9813F9
:1002E0001AC0E889F989808185FF15C09FB7F89405
:1002F000EE89FF896083E889F98980818370806451
:1003000080839FBF81E090E0DF91CF911F910F919B
:10031000FF90EF900895F62E0B8D10E00F5F1F4FAA
:100320000F731127E02E8C8D8E110CC00FB607FCB9
:10033000FACFE889F989808185FFF5CFCE010E9447
:100340004201F1CFEB8DEC0FFD2FF11DE35AFF4F72
:10035000F0829FB7F8940B8FEA89FB8980818062D5
:10036000CFCFCF93DF93EC01888D8823B9F0AA8992
:10037000BB89E889F9898C9185FD03C0808186FD60
:100380000DC00FB607FCF7CF8C9185FFF2CF8081AF
:1003900085FFEDCFCE010E944201E9CFDF91CF91E1
:1003A0000895FC019081973018F49F5F9083089521
:1003B00010820895FC01DB016D917C91680F791F1B
:1003C0004FEF5FEF6E177F0741F19191292F220FB9
:1003D0002A7A96959575292B922F990F990F9C7CC7
:1003E000269526952373922B92959527892F829592
:1003F0008F708927282F30E0942FA901542F44278C
:100400005295507F84279527A90125E0440F551F59
:100410002A95E1F748275927D5CF9A01220F331F94
:100420002A7A3A7ACA01B0E0A0E0B695A7959795E6
:10043000879585759575822B932BBC01660F771F69
:10044000660F771F6C7C7C7CB0E0A0E0E2E0B695A4
:10045000A79597958795EA95D1F783739373682B42
:10046000792BCB01F4E0880F991FFA95E1F7807F93
:10047000907FAB0170E060E0A4E0769567955795BA
:100480004795AA95D1F74F705F70842B952B9827CD
:10049000892798270895BF92CF92DF92EF92FF921B
:1004A0000F931F93CF93DF93CDB7DEB7C250D140E8
:1004B0000FB6F894DEBF0FBECDBF109230054FE1EE
:1004C00054E0FE0131969F016F0195E04F315907CD
:1004D00039F0DA019D91AD01D9019D939D01F5CFD0
:1004E00099819E3709F062C021E030E0CF5FDE4F96
:1004F00039832883C150D140A2E2B5E020E335E042
:1005000031962A173B0769F498899093210500E1F9
:1005100010E090E040960817190738F40F5F1F4F5E
:10052000FACF90819D93ECCF87017801BFEFEB1A52
:10053000FB0AEDEFEE16F104B8F3CF5FDE4FF98260
:10054000E882C150D140BB24B394B09220051092F0
:100550001F05BE016F5F7E4FC6010E94DA01F601E2
:10056000EE0DFF1D2081291310C00E5F1F4FCF5FBE
:10057000DE4F19830883C150D1400C0D1D1DD801D9
:100580009C91981302C0B0923005CE5FDE4F0FB63B
:10059000F894DEBF0FBECDBFDF91CF911F910F91B9
:1005A000FF90EF90DF90CF90BF90089510921F05BD
:1005B000ECCF1F920F920FB60F9211242F933F93FF
:1005C0008F939F93AF93BF938091310590913205A4
:1005D000A0913305B091340530911A0423E0230F24
:1005E0002D3758F50196A11DB11D20931A04809353
:1005F000310590933205A0933305B0933405809173
:100600001B0490911C04A0911D04B0911E0401963E
:10061000A11DB11D80931B0490931C04A0931D0485
:10062000B0931E04BF91AF919F918F913F912F91F5
:100630000F900FBE0F901F90189526E8230F02967B
:10064000A11DB11DD2CF1F920F920FB60F92112490
:100650002F933F934F935F936F937F938F939F93CA
:10066000AF93BF93EF93FF9385E395E00E94420120
:10067000FF91EF91BF91AF919F918F917F916F917A
:100680005F914F913F912F910F900FBE0F901F9050
:1006900018951F920F920FB60F9211242F938F93DC
:1006A0009F93EF93FF93E0914505F091460580817C
:1006B000E0914B05F0914C0582FD1BC0908180912B
:1006C0004E058F5F8F7320914F05821741F0E091A7
:1006D0004E05F0E0EB5CFA4F958F80934E05FF914D
:1006E000EF919F918F912F910F900FBE0F901F90C0
:1006F00018958081F4CFCF93DF93CDB7DEB72E97D7
:100700000FB6F894DEBF0FBECDBF789484B582607B
:1007100084BD84B5816084BD85B5826085BD85B5A5
:10072000816085BD80916E00816080936E00109223
:10073000810080918100826080938100809181009E
:10074000816080938100809180008160809380002F
:100750008091B10084608093B1008091B00081608D
:100760008093B00080917A00846080937A008091B9
:100770007A00826080937A0080917A008160809311
:100780007A0080917A00806880937A001092C1008C
:10079000E0914505F091460582E08083E0914105B6
:1007A000F09142051082E0914305F09144058FECF1
:1007B000808310924D05E0914905F0914A0586E04D
:1007C0008083E0914705F0914805808180618083B6
:1007D000E0914705F0914805808188608083E09131
:1007E0004705F0914805808180688083E091470546
:1007F000F091480580818F7D80835E012FE0A20EFD
:10080000B11C67E2662E64E0762E01E08091190447
:100810008130C1F480911804811112C080910001CF
:10082000882361F080913801ECE2F3E09CEE980FB0
:1008300081938F5F8913FCCF809338010093180454
:100840001092190490911804913021F480912B0397
:10085000882321F080912005813099F48EE0E0E139
:10086000F1E0DE01119601900D928A95E1F78091F9
:100870003D01813009F49CC008F440C0823009F485
:10088000DCC080912B03813009F026C180912A03BE
:10089000811122C180910F019EE790932A02A1E06D
:1008A000B1E0EAE2F2E031962FE031E02A173B07AF
:1008B00009F0F1C010933902AEE3B1E0EAE3F2E0EF
:1008C00030E1E32EF12C90E04096E816F90608F4AA
:1008D000E5C0C701865D9D4F4C0167013FEFC31A1C
:1008E000D30AC4018A5292408D3F910508F0DCC0C2
:1008F000F4012AEA21934F017601EFCF9130F9F408
:1009000080912B0381111BC0ECE2F3E0AEE3B1E078
:1009100081918D9334E0E831F307D1F710921804F8
:1009200000932B0310913C01110F1E7080913B012D
:10093000E0E28E9FC0011124182B00933D0120910D
:100940002005213009F09DCFE2E2F5E0DE011196AD
:1009500091918D919817B9F0109220058091210501
:1009600080FD1DC090E095958795877090913B0123
:1009700089130FC000933A01213009F482CF82E03D
:1009800080933D017ECF35E0E033F30709F720E0A7
:10099000E5CF10923A0192E090933D0172CF213061
:1009A00009F46FCF80913A01813009F06ACFE7CF27
:1009B00080912005813009F064CF8091210580FF6E
:1009C00024C0982F9370913001F5982F92959695A9
:1009D00097709150983008F097E020913C01921365
:1009E00017C090E09595879595958795837082308F
:1009F00078F400930001109239018CE391E00E9499
:100A0000D10110923D01009319041092200539CFB5
:100A10001092000180913901823059F40093000155
:100A2000109218048CE391E00E94D10110923901D8
:100A3000E8CF8F5F80933901E4CF109220051091A9
:100A40003B018CE391E00E94D101E0E21E9FC001D6
:100A50001124182F1160809130058130D1F48091DC
:100A60003A018130B1F48BE391E00E94D101109200
:100A70003A0110920F01FE013196A1E0B1E081919F
:100A80008D93EA15FB05D9F700932B0310923D01D6
:100A9000F8CE1860EECF9D91908305CF2D912193D4
:100AA0002FEFE21AF20A11CFFA82E982BE016F5FDC
:100AB0007F4F8AE292E00E94DA01F4019083F6010E
:100AC000E65DFD4F8083F701E45DFD4F8EE7808397
:100AD00010922B0300932A0380912A038130B1F4F2
:100AE0002AE2E22E22E0F22EF70161917F0185E3F6
:100AF00095E00E94640185E395E00E94B1012AE23D
:100B000033E02E153F0581F710922A0388E0EEE1CD
:100B1000F1E0DE01119601900D928A95E1F785E3EF
:100B200095E00E942201892B09F46AC080911F057B
:100B3000811166C08CEE80930F019FE1E92E94E055
:100B4000F92E0E94D40097FD06C0F70181937F0122
:100B50006E167F06B1F7DE011196EFE1F4E081E059
:100B600021919D91291380E024E0E732F207C1F73B
:100B7000813009F045C0F12CE12CC701895D9B4F04
:100B80006C01F701E15DFB4F4F010E94D40097FD1E
:100B900006C0F60181936F018E169F06B1F7F8E04B
:100BA000EF0EF11C28EFE216F10439F70E945F0006
:100BB0001B012C0184E6C82ED12CE12CF12C0E94C3
:100BC0005F006219730984099509683E73408105C5
:100BD0009105A8F331E0C31AD108E108F10888EEC5
:100BE000280E83E0381E411C511CC114D104E104BD
:100BF000F10429F700931F0585E395E00E94B101F8
:100C000080912005811108C080911F05813021F459
:100C100080910F010E944B0220E030E0232B09F469
:100C2000F5CD0E942E01882309F4EFCD0E9400002B
:100C3000ECCDE5E3F5E01382128288EE93E0A0E0CC
:100C4000B0E084839583A683B7838AE291E09183A1
:100C5000808385EC90E09587848784EC90E097878B
:100C6000868780EC90E0918B808B81EC90E0938B79
:100C7000828B82EC90E0958B848B86EC90E0978B56
:100C8000868B118E128E138E148E0895EE0FFF1F19
:0C0C90000590F491E02D0994F894FFCF3A
:100C9C00014F4E34554C47604F554654493161EC29
:100CAC004F4E34554C47604F5546544931617E4F39
:100CBC004E34554C47600000000064018400B100C4
:080CCC00B1012201C000140176
:00000001FF
