:100000000C9463000C948B000C948B000C948B006C
:100010000C948B000C948B000C948B000C948B0034
:100020000C948B000C948B000C948B000C948B0024
:100030000C948B000C948B000C948B000C948B0014
:100040000C94AC040C948B000C941C050C94F604DA
:100050000C948B000C948B000C948B000C948B00F4
:100060000C948B000C948B000A0B0C0D0E0F0000EF
:100070000008000201000003040700000000000067
:10008000000000000000250028002B0000000000F8
:10009000240027002A0004040404040404040202C7
:1000A00002020202030303030303010204081020F7
:1000B0004080010204081020010204081020000101
:1000C000020304054E0511241FBECFEFD8E0DEBFAA
:1000D000CDBF26E0A2E4B2E001C01D92AE3FB20760
:1000E000E1F712E0A0E0B1E0E8E0F5E102C0059040
:1000F0000D92A234B107D9F710E0C3E6D0E004C0F6
:100100002197FE010E94730AC236D107C9F70E94E7
:10011000A2050C94820A0C94000090E0FC01E655C4
:10012000FF4F24918A569F4FFC018491882399F0B8
:1001300090E0880F991FFC01E457FF4FA591B491FF
:10014000FC01EE57FF4F859194918FB7F894EC9195
:10015000E22BEC938FBF089590E0FC01E259FF4F32
:100160002491FC01E655FF4F3491FC01EA56FF4F04
:10017000E491EE23C9F0222339F0233001F1A8F4F1
:10018000213019F1223029F1F0E0EE0FFF1FEE5778
:10019000FF4FA591B4918FB7F894EC91611126C0EF
:1001A00030953E233C938FBF08952730A9F0283027
:1001B000C9F0243049F7809180008F7D03C0809181
:1001C00080008F7780938000DFCF84B58F7784BDE8
:1001D000DBCF84B58F7DFBCF8091B0008F7780938C
:1001E000B000D2CF8091B0008F7DF9CF3E2BDACF17
:1001F000682F8091E2060E94AC008091FA069091EF
:10020000FB068230910538F0880F991F880F991FDF
:1002100005970197F1F7089581E00C94F80020917B
:10022000E0063091E1064091E2065091E306241782
:10023000350721F0682F822F0C94AC0008953FB74A
:10024000F89480912A0590912B05A0912C05B091EE
:100250002D0526B5A89B05C02F3F19F00196A11DBD
:10026000B11D3FBFBA2FA92F982F8827BC01CD0100
:10027000620F711D811D911D42E0660F771F881F5F
:10028000991F4A95D1F70895AF92BF92CF92DF920E
:10029000EF92FF920F931F93CF93DF936C017B013B
:1002A0008B01040F151FEB015E01AE18BF08C017CC
:1002B000D10759F06991D601ED91FC910190F0813F
:1002C000E02DC6010995892B79F7C501DF91CF9102
:1002D0001F910F91FF90EF90DF90CF90BF90AF9064
:1002E0000895FC01538D448D252F30E0842F90E03C
:1002F000821B930B541710F0CF9608950197089521
:10030000FC01918D828D981761F0A28DAE0FBF2FE9
:10031000B11D5D968C91928D9F5F9F73928F90E03F
:1003200008958FEF9FEF0895FC01918D828D9817AE
:1003300031F0828DE80FF11D858D90E008958FEFEB
:100340009FEF0895FC01918D228D892F90E0805CB4
:100350009F4F821B91098F739927089580E496E03F
:100360000E94A20121E0892B09F420E0822F089548
:1003700080E090E0892B29F00E94AE0181110C945D
:1003800000000895FC01A48DA80FB92FB11DA35A38
:10039000BF4F2C91848D90E001968F739927848FA5
:1003A000A689B7892C93A089B1898C9183708064C8
:1003B0008C93938D848D981306C00288F389E02D69
:1003C00080818F7D80830895EF92FF920F931F931A
:1003D000CF93DF93EC0181E0888F9B8D8C8D9813F8
:1003E0001AC0E889F989808185FF15C09FB7F89404
:1003F000EE89FF896083E889F98980818370806450
:1004000080839FBF81E090E0DF91CF911F910F919A
:10041000FF90EF900895F62E0B8D10E00F5F1F4FA9
:100420000F731127E02E8C8D8E110CC00FB607FCB8
:10043000FACFE889F989808185FFF5CFCE010E9446
:10044000C201F1CFEB8DEC0FFD2FF11DE35AFF4FF1
:10045000F0829FB7F8940B8FEA89FB8980818062D4
:10046000CFCFCF93DF93EC01888D8823B9F0AA8991
:10047000BB89E889F9898C9185FD03C0808186FD5F
:100480000DC00FB607FCF7CF8C9185FFF2CF8081AE
:1004900085FFEDCFCE010E94C201E9CFDF91CF9160
:1004A00008958EBD00000DB407FEFDCF8EB50895F2
:1004B000FC019081973018F49F5F9083089510821B
:1004C0000895FC01DB016D917C91680F791F4FEF5E
:1004D0005FEF6E177F0741F19191292F220F2A7A42
:1004E00096959575292B922F990F990F9C7C26959F
:1004F00026952373922B92959527892F82958F703D
:100500008927282F30E0942FA901542F4427529592
:10051000507F84279527A90125E0440F551F2A9570
:10052000E1F748275927D5CF9A01220F331F2A7A9E
:100530003A7ACA01B0E0A0E0B695A795979587955D
:1005400085759575822B932BBC01660F771F660FFF
:10055000771F6C7C7C7CB0E0A0E0E2E0B695A795CC
:1005600097958795EA95D1F783739373682B792BC9
:10057000CB01F4E0880F991FFA95E1F7807F907F17
:10058000AB0170E060E0A4E07695679557954795DC
:10059000AA95D1F74F705F70842B952B98278927E8
:1005A00098270895BF92CF92DF92EF92FF920F9318
:1005B0001F93CF93DF93CDB7DEB7C250D1400FB6B4
:1005C000F894DEBF0FBECDBF10923F064EE255E05D
:1005D000FE0131969F016F0196E04E32590739F0C6
:1005E000DA019D91AD01D9019D939D01F5CF9981CE
:1005F0009E3709F062C021E030E0CF5FDE4F3983E3
:100600002883C150D140A1E3B6E02FE336E0319614
:100610002A173B0769F498899093300600E110E0AF
:1006200090E040960817190738F40F5F1F4FFACF74
:1006300090819D93ECCF87017801BFEFEB1AFB0A05
:10064000EDEFEE16F104B8F3CF5FDE4FF982E882EA
:10065000C150D140BB24B394B0922F0610922E0605
:10066000BE016F5F7E4FC6010E946102F601EE0D72
:10067000FF1D2081291310C00E5F1F4FCF5FDE4F7B
:1006800019830883C150D1400C0D1D1DD8019C91C8
:10069000981302C0B0923F06CE5FDE4F0FB6F894BB
:1006A000DEBF0FBECDBFDF91CF911F910F91FF90A5
:1006B000EF90DF90CF90BF90089510922E06ECCF70
:1006C0000F931F930091E4061091E5062091E60632
:1006D0003091E70640E052E16AE770E080E00417FD
:1006E00015072607370740F4769567955795479580
:1006F0008F5F8630A1F787E0982F906A9695809556
:1007000081709CBD8DBD80E01F910F910C94F8000D
:10071000CF93C82F0E9460038C2F80620E945102E9
:100720008093E806CF910C940C01CF93C82F0E94C0
:1007300060038C2F0E9451028093E8068FEF0E9485
:100740005102C82F0E940C018C2FCF910895FF9267
:100750000F931F93CF93DF93C82FF62E072F142FDD
:100760000E9460038C2F80620E9451028093E806F1
:10077000CF2DD02F115020F089910E945102FACF35
:10078000DF91CF911F910F91FF900C940C010E946B
:10079000600380E50E9451028093E80683E70E948F
:1007A00051020C940C010F931F93CF93DF938C0194
:1007B0008091F406C0E0D1E0811106C0C091E90645
:1007C000DC2FC111D1E0CD1B0E94600381E60E94A5
:1007D00051028093E806DD2329F08FEF0E94510239
:1007E000F8018083C15020F08FEF0E945102FACFB0
:1007F000DF91CF911F910F910C940C01CF93DF9358
:10080000D82FC62F0E9460038D2F80620E94510254
:100810008093E8068C2F0E945102DF91CF910C94B7
:100820000C016091EF0661FD0AC062606093EF0603
:1008300080E00E94FE038BE19EE40197F1F70895AA
:100840000E9411046091EF0661606093EF0680E002
:100850000E94FE0360E787E00E94FE0381E00E94A1
:100860000F018091F106882339F04091F3066AEE7A
:1008700076E08AE00C94A70382E00E949503EEEBF9
:10088000F0E0E49121E030E001C0220FEA95EAF7C0
:100890002095622F682382E00E94FE031092F106E9
:1008A00008958F929F92AF92BF920F931F93CF9311
:1008B000DF93CDB7DEB7A1970FB6F894DEBF0FBEBA
:1008C000CDBF19A2423008F44AE08E010F5D1F4FE0
:1008D000842E912CB12CA12CA50194010E94510AC7
:1008E000E62FB901CA01EA3044F5E05DD801EE9384
:1008F0008D01232B242B252B79F790E080E0109796
:1009000069F0FD0101900020E9F73197AF014A1B22
:100910005B0BBD0180E496E00E944401A1960FB6F6
:10092000F894DEBF0FBECDBFDF91CF911F910F9125
:10093000BF90AF909F908F900895E95CD7CFFC0156
:1009400001900020E9F73197AF01481B590BBC011A
:1009500080E496E00C9444011F920F920FB60F9220
:1009600011242F933F938F939F93AF93BF938091C5
:10097000260590912705A0912805B0912905309171
:10098000250523E0230F2D3758F50196A11DB11D34
:10099000209325058093260590932705A09328058D
:1009A000B093290580912A0590912B05A0912C05E3
:1009B000B0912D050196A11DB11D80932A0590933C
:1009C0002B05A0932C05B0932D05BF91AF919F915E
:1009D0008F913F912F910F900FBE0F901F90189500
:1009E00026E8230F0296A11DB11DD2CF1F920F92B0
:1009F0000FB60F9211242F933F934F935F936F93F2
:100A00007F938F939F93AF93BF93EF93FF9380E474
:100A100096E00E94C201FF91EF91BF91AF919F912B
:100A20008F917F916F915F914F913F912F910F9097
:100A30000FBE0F901F9018951F920F920FB60F9236
:100A400011242F938F939F93EF93FF93E091500680
:100A5000F09151068081E0915606F091570682FD93
:100A60001BC09081809159068F5F8F7320915A0629
:100A7000821741F0E0915906F0E0E05CF94F958F64
:100A800080935906FF91EF919F918F912F910F9035
:100A90000FBE0F901F9018958081F4CFE0E4F6E030
:100AA0001382128288EE93E0A0E0B0E08483958305
:100AB000A683B78380E391E09183808385EC90E007
:100AC0009587848784EC90E09787868780EC90E018
:100AD000918B808B81EC90E0938B828B82EC90E009
:100AE000958B848B86EC90E0978B868B118E128E83
:100AF000138E148EEEEDF6E089E090E0938382830E
:100B000088E090E09583848380E896E9A8E9B0E0E6
:100B100086839783A087B18780E28387128A138AAE
:100B200085E0858B81E0868B85E090E0A0E0B0E0F9
:100B3000848F958FA68FB78F8DED96E091838083FC
:100B400014860895CF93DF93CDB7DEB760970FB6C5
:100B5000F894DEBF0FBECDBF789484B5826084BDAB
:100B600084B5816084BD85B5826085BD85B58160B1
:100B700085BD80916E00816080936E00109281002F
:100B800080918100826080938100809181008160EA
:100B900080938100809180008160809380008091AB
:100BA000B10084608093B1008091B0008160809337
:100BB000B00080917A00846080937A0080917A00FE
:100BC000826080937A0080917A00816080937A00BD
:100BD00080917A00806880937A001092C100E09141
:100BE0005006F091510682E08083E0914C06F0912E
:100BF0004D061082E0914E06F0914F068FEC8083F7
:100C000010925806E0915406F091550686E08083D4
:100C1000E0915206F0915306808180618083E091DB
:100C20005206F0915306808188608083E0915206DD
:100C3000F0915306808180688083E0915206F091A4
:100C4000530680818F7D80830FB7F8948091420294
:100C5000811124C0E0EAF0E08491E4EBF0E09491AB
:100C6000E82FF0E0EE0FFF1FE457FF4FA591B4917E
:100C7000EC91E92321F461E08AE00E94AC008AE073
:100C80000E948D008CB580618CBD8CB580648CBD5C
:100C90008DE00E948D008BE00E948D0080914202C9
:100CA0008F5F809342020FBF8091E0069091E10632
:100CB0008F3F980709F4A2C02091E2063091E30625
:100CC0002F3F320709F49AC08217930731F00E9430
:100CD0008D008091E2060E948D0080E00E940F014D
:100CE00081E00E94F8000E941F014B015C01E5E0D9
:100CF000CE2ED12CE12CF12C0E941F01681979090C
:100D00008A099B09683E734081059105A8F381E03B
:100D1000C81AD108E108F10898EE890E93E0991EEF
:100D2000A11CB11CC114D104E104F10429F76FE541
:100D300084E00E94FE0385E590E0A0E0B0E08093AF
:100D4000F6069093F706A093F806B093F90667E0CD
:100D500086E00E94FE038DE10E949503082F0E9409
:100D6000C7038DE10E94950391E0081390E09093F2
:100D7000F006882341F0081302C00E94C70360E018
:100D80008DE10E94FE031092F20660E08CE10E9469
:100D9000FE031092F4066FE381E00E94FE0363E01D
:100DA00082E00E94FE0380E28093E90601E1609107
:100DB000E906802F0E94FE030F5F0731C1F763E051
:100DC00083E00E94FE0385E08093F3066CE40E94BA
:100DD000FE0360E787E00E94FE0382EE0E94880324
:100DE00081EE0E9488036CE080E00E94FE0380E0B8
:100DF0000E9495038093EF060E9411044091F30630
:100E000066E271E08AE00E94A7034091F30666E281
:100E100071E080E10E94A7034091F30650E066E292
:100E200071E08AEE96E00E94790A81E08093F106F3
:100E3000E8E6F0E084914091F30666E271E00E94FA
:100E4000A70382E00E949503EEEBF0E0E49161E0FD
:100E500070E001C0660FEA95EAF7682B82E00E9415
:100E6000FE030E9420045E01FFE0AF0EB11C75E39B
:100E7000272E74E0372E01E060E0862E60E0962E8B
:100E8000809124058130C1F480912305811112C025
:100E900080910001882361F080914302E7E3F4E050
:100EA0009CEE980F81938F5F9813FCCF9093430231
:100EB000009323051092240580912305813021F4AD
:100EC00080913604882321F080912F068130B9F477
:100ED0008EE391E00E949F048EE0E0E1F1E0DE010C
:100EE000119601900D928A95E1F780914802813028
:100EF00009F4C8C008F443C0823009F43EC18091AF
:100F00003604813009F090C18091350481118CC183
:100F100089E292E00E949F0480910F019EE79093E6
:100F20003503A1E0B1E0E5E3F3E0319641E0AF3015
:100F3000B40709F058C110934403A9E4B2E0E5E412
:100F4000F3E090E1E92EF12C90E04096E816F906E6
:100F500008F44CC1C7018B5C9C4F3C0167014FEF0B
:100F6000C41AD40AC301855393408D3F910508F0FC
:100F700043C1F3012AEA21933F017601EFCF80912B
:100F80002305813019F58091360481111FC08BE44F
:100F900091E00E949F04E7E3F4E0A9E4B2E08191CC
:100FA0008D9325E0E332F207D1F7109223050093E9
:100FB000360410914702110F1E708091460240E2E4
:100FC000849FC0011124182B00934802F0902F0633
:100FD00081E0F81294CF8AE591E00E949F04E1E35A
:100FE000F6E0DE01119691918D919817A9F189E6AD
:100FF00091E00E949F0410922F068091300680FDA0
:1010000037C090E095958795E82FE770EE2E81E840
:1010100091E00E949F046E2D70E090E080E04AE035
:101020000E94510482E991E00E949F04609146026F
:1010300070E090E080E04AE00E9451048091460216
:10104000E81210C000934502F1E0FF1609F457CFF3
:1010500022E02093480253CF96E0EF33F90719F6C8
:10106000F12CCBCF1092450242E04093480247CF8B
:1010700081E0F81609F443CF80914502813009F0F0
:101080003ECFE6CF80912F06813009F038CF809196
:10109000300680FF46C0982F9370913009F041C010
:1010A000E82EF12CF594E794F594E7949E2D937037
:1010B000E92EF82EF294F69447E0F422FA94E7E051
:1010C000EF1510F427E0F22E6F2D70E090E080E035
:1010D0004AE00E9451046091470270E090E080E095
:1010E0004AE00E9451046E2D70E090E080E04AE0FA
:1010F0000E945104809147028F1116C0F1E0FE1545
:1011000098F000930001109244028AE991E00E9455
:101110009F0487E492E00E945802109248020093D4
:10112000240510922F06EBCE10920001809144020C
:10113000823059F4009300011092230587E492E075
:101140000E94580210924402E8CF8F5F80934402BD
:101150008DEB91E00E949F048EED91E00E949F0430
:101160006091440270E090E080E04AE00E94510407
:101170008BEB91E00E949F04D0CF10922F0610912C
:10118000460287E492E00E94580220E2129FC001CA
:101190001124182F116080913F068130F1F4809165
:1011A00045028130D1F48DEE91E00E949F0486E4E7
:1011B00092E00E9458021092450210920F01FE0127
:1011C0003196A1E0B1E081918D93AE16BF06D9F7BB
:1011D000009336041092480292CE8BE092E00E9477
:1011E0009F041860EACF9D9190839FCE2D9121930B
:1011F0002FEFE21AF20AAACEFA82E982BE016F5FED
:101200007F4F85E393E00E946102F3019083F60132
:10121000EB5CFC4F8083F701E95CFC4F8EE7808339
:10122000109236040093350480913504813009F022
:101230008EC080E00E940F018091F6069091F70623
:101240008230910538F0880F991F880F991F0597F4
:101250000197F1F78091F206882319F081EE0E9440
:1012600088036091EF066E7F6093EF0680E00E9436
:10127000FE0382E00E949503EEEBF0E0949161E0C2
:1012800070E001C0660F9A95EAF7682B82E00E9431
:10129000FE0375E3E72E73E0F72E8091F406D12C60
:1012A000CC24C394811108C0D090E906CD2CDD2058
:1012B00011F0CC24C394DC180E94600380EA0E94E1
:1012C00051028093E806CC2021F0F70180810E9432
:1012D0005102DA94FFEF80E0DF12F9CF0E940C0197
:1012E00081E00E940F018FB7F8944090260550903E
:1012F000270560902805709029058FBF8FEF0E9409
:1013000088038091E806807309F0BCC02FB7F89479
:101310008091260590912705A0912805B091290577
:101320002FBF84199509A609B70980369105A10533
:10133000B10520F30093F5062FEFE21AF20A2E14FE
:101340003F0409F0AACF109235040E94200488E0DF
:10135000EEE1F1E0DE01119601900D928A95E1F740
:101360008FEF0E9488038091E80690E0959587951D
:101370008770863008F06AC080912E06811166C0A1
:101380008CEE80930F01188A5EE2C52E55E0D52EB3
:1013900076018FEF0E9488038091E80690E0959592
:1013A000879587708630A8F7CE0140960E94D303B8
:1013B00060E487E00E94FE038889F70181937F0142
:1013C000F6E3EF16F5E0FF0621F7DE011196EEE2F7
:1013D000F5E081E021919D91291380E025E0E6333D
:1013E000F207C1F7813091F51F8636E3E32E35E031
:1013F000F32E8FEF0E9488038091E80690E0959588
:10140000879587708630A8F7C5010E94D30360E4F2
:1014100087E00E94FE038F85F70181937F01FEE242
:10142000EF16F6E0FF0629F7F60161916F0170E013
:1014300090E080E040E10E945104EC14FD04A1F72B
:1014400000932E0680E496E00E94310280912F06E0
:1014500081110CC080912E06813041F487E392E027
:101460000E949F0480910F010E94D2028114910476
:1014700009F406CD0E94AE01882309F4FCCC0E9439
:101480000000F5CC80E00E940F0160E787E00E9439
:10149000FE038091E80684FF4FCF81EE0E9488030F
:1014A0004BCFA1E21A2EAA1BBB1BFD010DC0AA1F28
:1014B000BB1FEE1FFF1FA217B307E407F50720F0BD
:1014C000A21BB30BE40BF50B661F771F881F991F38
:1014D0001A9469F760957095809590959B01AC0181
:1014E000BD01CF010895EE0FFF1F0590F491E02D8F
:1014F0000994FB01DC0102C001900D924150504063
:08150000D8F70895F894FFCF1D
:10150800014F4E34554C47604F554654493161ECB4
:101518004F4E34554C47604F5546544931617E4FC4
:101528004E34554C476030303030310000000000F8
:10153800E401440171013102A201800194010A4DC4
:10154800616E6167656D656E740A000A49646C6551
:1015580020747820706172740A000A49646C6520EE
:10156800727820706172740A000A2041646472659E
:101578007373206973204E4F54206F757273200A5D
:10158800000A205265636569766564204E53203DE4
:1015980020000A205652203D20000A205468652069
:1015A8004672616D652077652073656E742077617A
:1015B80073204163636570746564200A000A546887
:1015C80065204672616D652077652073656E7420AD
:1015D8007761732052656A65637465640A000A203E
:1015E80072656A436F756E7465723A20000A20410D
:1015F80063636570742074686520726563656976D5
:101608006564206672616D65200A000A2052656A69
:1016180065637420746865207265636569766564BE
:10162800206672616D65200A000A4275696C642043
:101638004672616D650A000A44656672616D650AE5
:021648000000A0
:00000001FF
