:100000000C9435000C945D000C945D000C945D0024
:100010000C945D000C945D000C945D000C945D00EC
:100020000C945D000C945D000C945D000C945D00DC
:100030000C945D000C945D000C945D000C945D00CC
:100040000C94F2030C945D000C9462040C943C0438
:100050000C945D000C945D000C945D000C945D00AC
:100060000C945D000C945D00030711241FBECFEFBC
:10007000D8E0DEBFCDBF27E0AEEAB1E001C01D92FF
:10008000A733B207E1F711E0A0E0B1E0ECE5F4E15D
:1000900002C005900D92AE3AB107D9F710E0C5E362
:1000A000D0E004C02197FE010E946707C433D10746
:1000B000C9F70E9494040C942C0A0C9400003FB7DA
:1000C000F89480912F0590913005A0913105B09161
:1000D000320526B5A89B05C02F3F19F00196A11D3A
:1000E000B11D3FBFBA2FA92F982F8827BC01CD0182
:1000F000620F711D811D911D42E0660F771F881FE1
:10010000991F4A95D1F708958F929F92AF92BF920F
:10011000CF92DF92EF92FF920E945F004B015C0151
:1001200084E6C82ED12CE12CF12C0E945F006819C6
:1001300079098A099B09683E734081059105A8F3F6
:1001400021E0C21AD108E108F10888EE880E83E0A8
:10015000981EA11CB11CC114D104E104F10429F7BB
:10016000FF90EF90DF90CF90BF90AF909F908F90D7
:100170000895AF92BF92CF92DF92EF92FF920F93CA
:100180001F93CF93DF936C017B018B01040F151F2D
:10019000EB015E01AE18BF08C017D10759F0699195
:1001A000D601ED91FC910190F081E02DC6010995F9
:1001B000892B79F7C501DF91CF911F910F91FF90A6
:1001C000EF90DF90CF90BF90AF900895FC01538DDA
:1001D000448D252F30E0842F90E0821B930B541721
:1001E00010F0CF96089501970895FC01918D828DAE
:1001F000981761F0A28DAE0FBF2FB11D5D968C9147
:10020000928D9F5F9F73928F90E008958FEF9FEF85
:100210000895FC01918D828D981731F0828DE80F41
:10022000F11D858D90E008958FEF9FEF0895FC01FB
:10023000918D228D892F90E0805C9F4F821B9109C8
:100240008F739927089581EB91E00E94170121E0B7
:10025000892B09F420E0822F089580E090E0892B1B
:1002600029F00E94230181110C9400000895FC01E3
:10027000A48DA80FB92FB11DA35ABF4F2C91848D07
:1002800090E001968F739927848FA689B7892C9364
:10029000A089B1898C91837080648C93938D848DB7
:1002A000981306C00288F389E02D80818F7D8083BA
:1002B0000895EF92FF920F931F93CF93DF93EC017A
:1002C00081E0888F9B8D8C8D98131AC0E889F989FD
:1002D000808185FF15C09FB7F894EE89FF89608300
:1002E000E889F98980818370806480839FBF81E081
:1002F00090E0DF91CF911F910F91FF90EF900895C3
:10030000F62E0B8D10E00F5F1F4F0F731127E02E9D
:100310008C8D8E110CC00FB607FCFACFE889F989D5
:10032000808185FFF5CFCE010E943701F1CFEB8DA3
:10033000EC0FFD2FF11DE35AFF4FF0829FB7F894A9
:100340000B8FEA89FB8980818062CFCFCF93DF93C7
:10035000EC01888D8823B9F0AA89BB89E889F989DD
:100360008C9185FD03C0808186FD0DC00FB607FC12
:10037000F7CF8C9185FFF2CF808185FFEDCFCE0145
:100380000E943701E9CFDF91CF910895FC01DB0195
:100390006D917C91680F791F4FEF5FEF6E177F07AC
:1003A00041F19191292F220F2A7A96959575292B43
:1003B000922F990F990F9C7C269526952373922B4B
:1003C00092959527892F82958F708927282F30E065
:1003D000942FA901542F44275295507F84279527A5
:1003E000A90125E0440F551F2A95E1F74827592711
:1003F000D5CF9A01220F331F2A7A3A7ACA01B0E088
:10040000A0E0B695A7959795879585759575822BEC
:10041000932BBC01660F771F660F771F6C7C7C7C6B
:10042000B0E0A0E0E2E0B695A79597958795EA95AC
:10043000D1F783739373682B792BCB01F4E0880F8A
:10044000991FFA95E1F7807F907FAB0170E060E043
:10045000A4E07695679557954795AA95D1F74F7083
:100460005F70842B952B98278927982708957F9272
:100470008F929F92AF92BF92CF92DF92EF92FF92B4
:100480000F931F93CF93DF93CDB7DEB7C250D14008
:100490000FB6F894DEBF0FBECDBF1092300743E316
:1004A00055E0FE0131969F017F0196E043335907E5
:1004B00039F0DA019D91AD01D9019D939D01F5CFF0
:1004C00099819E3709F079C121E030E0CF5FDE4F9E
:1004D00039832883C150D140A2E2B7E0319697E03A
:1004E000A033B907F1F498899093210720E130E017
:1004F000CF5FDE4F39832883C150D140DE01519652
:10050000E5E3F6E000E110E0C82ED12C9601205F73
:100510003F4F0217130748F48D9181930F5F1F4FD0
:10052000F8CF90819D93DACF85015801AFEFAA1AD9
:10053000BA0ABDEFAB16B104B8F3CF5FDE4FB98294
:10054000A882C150D14077247394709234061092DF
:100550003306BE016F5F7E4FC7010E94C601982E11
:10056000892EF701EA0DFB1D8081891326C1C80180
:100570000296CF5FDE4F99838883C150D1408E0DA4
:100580009F1DFC018081891118C1709230070D5F99
:100590001F4FCF5FDE4F19830883C150D1408FE2D8
:1005A00091E00E948307CF5FDE4F88819981C1501F
:1005B000D140E80EF91ED7018C918E3709F0FDC0AD
:1005C0001F928F9383E491E09F938F930E946D0716
:1005D0008DE491E09F938F930E946D07CF5FDE4F74
:1005E00019821882C150D1400F900F900F900F9038
:1005F0000F900F900AE411E0CF5FDE4F8881998160
:10060000C150D1408E309105E0F48E5D984FFC01D1
:1006100080811F928F931F930F930E946D07CF5F6E
:10062000DE4F88819981C150D1400196CF5FDE4F66
:1006300099838883C150D1400F900F900F900F90F5
:10064000DBCF89E591E09F938F930E946D07CF5F89
:10065000DE4F19821882C150D1400F900F9009E6E9
:1006600011E0CF5FDE4F88819981C150D140892B45
:10067000F1F4809121071F928F931F921F921F9375
:100680000F930E946D07CF5FDE4F88819981C15023
:10069000D1400196CF5FDE4F99838883C150D1400E
:1006A0000F900F900F900F900F900F90DACF89E777
:1006B00091E00E948307CF5FDE4F19821882C150FC
:1006C000D1400AE411E0CF5FDE4F88819981C150AB
:1006D000D1408C159D05E0F48B5C994FDC018C9129
:1006E0001F928F931F930F930E946D07CF5FDE4F72
:1006F00088819981C150D1400196CF5FDE4F9983A7
:100700008883C150D1400F900F900F900F90DBCF96
:1007100081E891E09F938F930E946D07CF5FDE4F3A
:1007200019821882C150D1400F900F900DEE10E049
:100730000C191D098AE4E82E81E0F82ECF5FDE4F08
:1007400088819981C150D14080179107C0F41F92D0
:100750001F92FF92EF920E946D07CF5FDE4F88815C
:100760009981C150D1400196CF5FDE4F9983888334
:10077000C150D1400F900F900F900F90DFCF8EE8B7
:1007800091E00E9483078F929F9283E991E09F936B
:100790008F930E946D07C050DF4F8881C050D140B9
:1007A0001F928F938FE991E09F938F930E946D0723
:1007B0000FB6F894DEBF0FBECDBFCE5FDE4F0FB6D3
:1007C000F894DEBF0FBECDBFDF91CF911F910F9187
:1007D000FF90EF90DF90CF90BF90AF909F908F9061
:1007E0007F9008951F920F920FB60F9211242F93AE
:1007F0003F938F939F93AF93BF9380912B059091DD
:100800002C05A0912D05B0912E0530912A0523E0ED
:10081000230F2D3758F50196A11DB11D20932A05F0
:1008200080932B0590932C05A0932D05B0932E0556
:1008300080912F0590913005A0913105B09132053E
:100840000196A11DB11D80932F0590933005A093B3
:100850003105B0933205BF91AF919F918F913F9138
:100860002F910F900FBE0F901F90189526E8230F21
:100870000296A11DB11DD2CF1F920F920FB60F92FB
:1008800011242F933F934F935F936F937F938F9395
:100890009F93AF93BF93EF93FF9381EB91E00E94FF
:1008A0003701FF91EF91BF91AF919F918F917F9110
:1008B0006F915F914F913F912F910F900FBE0F90CD
:1008C0001F9018951F920F920FB60F9211242F931D
:1008D0008F939F93EF93FF93E091C101F091C20139
:1008E0008081E091C701F091C80182FD1BC0908119
:1008F0008091CA018F5F8F732091CB01821741F0E5
:10090000E091CA01F0E0EF54FE4F958F8093CA0149
:10091000FF91EF919F918F912F910F900FBE0F90AC
:100920001F9018958081F4CFCF93DF93CDB7DEB7BA
:10093000A1970FB6F894DEBF0FBECDBF789484B5F3
:10094000826084BD84B5816084BD85B5826085BDCB
:1009500085B5816085BD80916E00816080936E0059
:10096000109281008091810082608093810080914B
:1009700081008160809381008091800081608093FC
:1009800080008091B10084608093B1008091B000BC
:1009900081608093B00080917A00846080937A00B7
:1009A00080917A00826080937A0080917A008160E1
:1009B00080937A0080917A00806880937A00109208
:1009C000C100E091C101F091C20182E08083E09119
:1009D000BD01F091BE011082E091BF01F091C00114
:1009E0008FEC80831092C901E091C501F091C6019E
:1009F00086E08083E091C301F091C4018081806131
:100A00008083E091C301F091C4018081886080837C
:100A1000E091C301F091C401808180688083E091FE
:100A2000C301F091C40180818F7D80832E012FE06E
:100A3000420E511C7EE0672E71E0772E33243394F2
:100A40005AE3A52E54E0B52E60E0862E60E0962E87
:100A50000E94840080912905813071F480912805DD
:100A6000811108C0ECE3F4E081938F5F8C3EE1F7E5
:100A7000309228051092290590912805913021F493
:100A800080913B04882321F080913406813091F4D9
:100A90008EE0EFE0F1E0DE01119601900D928A9573
:100AA000E1F78091B001813009F474C0E8F182303F
:100AB00009F4A0C080913B04813009F0E7C0809127
:100AC0003A048111E3C080910E019EE790933A03AE
:100AD000A0E0B1E0EAE3F3E031966A167B0609F0A4
:100AE000B5C020924903AEE4B2E0EAE4F3E000E1ED
:100AF00010E090E040960817190708F4AAC0C80152
:100B0000865C9C4F6C0178019FEFE91AF90AC601D7
:100B10008A5393408D3F910508F0A0C0F6012AEA60
:100B200021936F018701EFCF9130D9F480913B047D
:100B3000811117C0ECE3F4E0AEE4B2E081918D9353
:100B400088E295E08E179F07C9F71092280530922A
:100B50003B042090AF01220C922D9E70292E3092E2
:100B6000B00180913406813009F0A4CFE2E2F7E0D1
:100B7000DE01119691918D91981719F0109234061B
:100B800099CF80E397E08E179F07A1F782E08093CB
:100B9000B00190CF80913406813009F08BCF8091E5
:100BA0002107811103C01092AE01E8CF282F2295B2
:100BB000269527702093AE012150322F283008F05F
:100BC00037E09091AF0139130DC090E0959587956E
:100BD000959587958370823028F4273040F43F5FE5
:100BE0003093AF011092B00130922905C7CF109217
:100BF000AF01F8CF109234068091AF01873018F51D
:100C00008F5F8093AF018091AE01E0E28E9FC001C3
:100C10001124282E689420F820913007213019F0F3
:100C2000F82FF9602F2E10920E01FE013196A0E0F0
:100C3000B1E081918D934E165F06D9F730923B0457
:100C40001092B00137CF1092AF01DDCF9D9190830C
:100C500043CF2D9121930F5F1F4F4DCF1A830983EF
:100C6000BE016F5F7F4F8AE393E00E94C601F601E9
:100C70009083F701E65CFC4F8083F801E45CFC4F55
:100C80008EE7808310923B0430923A0480913A04BC
:100C90008130C9F50AE313E0F80181918F0190E0FA
:100CA000B0E0A0E019A2FE01B196AC01BD014F7009
:100CB00055276627772724E0B695A79597958795BA
:100CC0002A95D1F74A300CF093C0405D42930097CB
:100CD000A105B10551F7309769F0DF010D900020B3
:100CE000E9F71197AD014E1B5F0BBF0181EB91E05E
:100CF0000E94B900A016B10679F681EB91E00E943E
:100D0000A60110923A0481EB91E00E941701892B11
:100D100009F452C08091330681114EC08CEE80934D
:100D20000E0103E315E02FB7F89480912B05909105
:100D30002C05A0912D05B0912E052FBF8093B901F0
:100D40009093BA01A093BB01B093BC0181EB91E0F9
:100D50000E94F50097FF4EC02FB7F89480912B05A5
:100D600090912C05A0912D05B0912E052FBF40919B
:100D7000B9015091BA016091BB017091BC01841B13
:100D8000950BA60BB70B4091B5015091B601609140
:100D9000B7017091B80184179507A607B707B0F29D
:100DA00081EB91E00E94A6010E94840030923306FC
:100DB00081EB91E00E94A6018091340681110CC064
:100DC00080913306813041F481EB91E00E94A601CD
:100DD00080910E010E9437028114910409F438CEEB
:100DE0000E942301882309F429CE0E94000026CE08
:100DF000495C6CCFF80181938F01F6E003331F0744
:100E000009F091CFCDCFE1EBF1E01382128288EEB1
:100E100093E0A0E0B0E084839583A683B78381E26A
:100E200091E09183808385EC90E09587848784ECC2
:100E300090E09787868780EC90E0918B808B81ECA7
:100E400090E0938B828B82EC90E0958B848B86EC88
:100E500090E0978B868B118E128E138E148E0895D0
:100E60002F923F924F925F926F927F928F929F92BA
:100E7000AF92BF92CF92DF92EF92FF920F931F93A8
:100E8000CF93DF93CDB7DEB7CA1BDB0B0FB6F89459
:100E9000DEBF0FBECDBF09942A88398848885F8499
:100EA0006E847D848C849B84AA84B984C884DF800A
:100EB000EE80FD800C811B81AA81B981CE0FD11DEE
:100EC0000FB6F894DEBF0FBECDBFED010895EE0F53
:100ED000FF1F0590F491E02D0994B0E0A0E0E3E756
:100EE000F7E00C944007AE014B5F5F4FFA01619150
:100EF0007191AF0180913307909134070E94AE0742
:100F0000E2E00C945C070F931F93CF93DF93E09183
:100F10003307F09134072381EC0110E000E021FD5C
:100F200008C00FEF1FEF14C00995892B11F00FEFC8
:100F30001FEF89916091330770913407DB01189698
:100F4000ED91FC918111F0CF8AE00995892B49F749
:100F5000C801DF91CF911F910F910895ABE0B0E0F0
:100F6000E4EBF7E00C9430077C013B018A01FC01C3
:100F700017821682838181FFC8C1CE0101965C0170
:100F8000F7019381F30193FD859193FF81913F01D7
:100F9000882309F453C1853239F493FD859193FF79
:100FA00081913F01853229F4B70190E00E949E09AA
:100FB000E7CF912C212C312CFFE1F31538F08B3247
:100FC00011F190F4803209F1833229F137FC3CC0F1
:100FD00020ED280F2A3050F536FE20C08AE0989E7A
:100FE000200D1124922E06C08D3291F0803371F7BE
:100FF000689430F8F30193FD859193FF81913F014F
:101000008111DACF21C0689431F8689432F8F2CFB8
:10101000689433F8EFCF689434F8ECCFEAE02E9E72
:10102000200D1124222E689435F8E4CF8E3229F455
:1010300036FC04C1689436F8DDCF8C3619F4689418
:1010400037F8D8CF8836B1F2982F9F7D95549330DA
:10105000E0F08336A1F18337C1F1833509F063C035
:101060002801F2E04F0E511CF801C080D180692D9B
:1010700070E036FC02C06FEF7FEFC6010E94880966
:101080004C01689437F882010AC00C5F1F4FFFE3E0
:10109000F98388248394912C6501E89437F833FE12
:1010A0002DC0522C8114910471F5552009F468CF9C
:1010B000B70180E290E00E949E095A94F6CFF801B1
:1010C000808189830E5F1F4FE4CF2801F2E04F0E2D
:1010D000511CF801C080D180692D70E036FC02C03F
:1010E0006FEF7FEFC6010E9493094C018201D5CFBB
:1010F000B70180E290E00E949E092A942814190406
:1011000009F0B0F7CECFF60137FC859137FE81911B
:101110006F01B70190E00E949E0951105A94F1E0CE
:101120008F1A9108BFCF843619F0893609F077C03D
:10113000F80137FE6BC060817181828193810C5F01
:101140001F4FF32DFF763F2E97FF09C09095809596
:10115000709561957F4F8F4F9F4F689437F82AE0C5
:1011600030E0A5010E94CE09C82ECA188C2C432C51
:1011700036FE0CC0E89440F8C91440F434FE05C0B3
:1011800032FC03C0F32DFE7E4F2E892C44FE95C009
:10119000FE01EC0DF11D8081803309F087C0242D04
:1011A000297E422E842D8870582E43FC95C040FE27
:1011B0008FC09C2C821418F42C0C922C981844FE8E
:1011C00091C0B70180E390E00E949E0942FE09C0F1
:1011D00088E790E041FE02C088E590E0B7010E94F8
:1011E0009E09C91408F48AC0CA94D12C9FEFC91A69
:1011F000D90ACA0CDB1CF60182916F01B70190E09D
:101200000E949E09AC14BD04B1F74FCF608171817B
:10121000072E000C880B990B0E5F1F4F92CFD32C1B
:10122000E894D4F82AE030E0853739F1232D297F7E
:10123000D22E8F3601F148F48835A9F0F701868166
:1012400097812B96E2E10C944C07803749F0883760
:10125000A9F7D4FE02C06894D2F820E130E00DC0B6
:101260006894D4F8F6CF34FE03C0822F8660D82E5F
:1012700020E132E002C028E030E0F801D7FE0FC0E4
:1012800060817181828193810C5F1F4FA5010E9453
:10129000CE09C82ECA183D2CE89437F867CF608174
:1012A000718190E080E00E5F1F4FF0CF42FC02C0E2
:1012B000839478CF8394839475CF842D867809F4B2
:1012C00071CFF6CFB70180E290E00E949E0983942F
:1012D0008214C0F3512C73CF522C5818821408F486
:1012E0006ECFF8CF842D867809F47BCF8BE241FE58
:1012F00080E247FC8DE2B70190E071CFB70180E357
:1013000090E00E949E099A946CCF8FEF9FEF99CF47
:10131000FC010590615070400110D8F780959095C0
:101320008E0F9F1F0895FC016150704001900110C5
:10133000D8F7809590958E0F9F1F08950F931F9358
:10134000CF93DF93182F092FEB018B8181FD09C00B
:101350001FEF0FEF812F902FDF91CF911F910F91F2
:10136000089582FF14C02E813F818C819D812817B2
:1013700039073CF4E881F981CF010196998388838C
:1013800010838E819F8101969F838E83E3CFE885B2
:10139000F985812F0995892BA1F3DACFFA01AA27C4
:1013A000283051F1203181F1E8946F936E7F6E5FA8
:1013B0007F4F8F4F9F4FAF4FB1E03ED0B4E03CD056
:1013C000670F781F891F9A1FA11D680F791F8A1F39
:1013D000911DA11D6A0F711D811D911DA11D20D0A0
:1013E00009F468943F912AE0269F11243019305D5A
:1013F0003193DEF6CF010895462F4770405D41934B
:10140000B3E00FD0C9F7F6CF462F4F70405D4A3397
:1014100018F0495D31FD4052419302D0A9F7EACF5F
:10142000B4E0A6959795879577956795BA95C9F78E
:1014300000976105710508959B01AC010A2E069481
:101440005795479537952795BA95C9F7620F731F3A
:0C145000841F951FA01D0895F894FFCF85
:10145C004F4E34554C47604F554654493161EC4F13
:10146C004E34554C47604F5546544931610000008D
:10147C00005901B900E600A6011701F50009010A9F
:10148C002A2A7265636569766564206672616D658A
:10149C002A2A00666C61673D3A202578000A206193
:1014AC006464726573733A09000A20636F6E747218
:1014BC006F6C20627974650900636F6E74726F6C67
:1014CC005B25645D3D257809000A20696E666F20F6
:1014DC00000A2070616464696E673A2009000A464C
:1014EC004353000A20435243203D2025780A000A2A
:0E14FC0020666C6167203D202578200A0000E4
:00000001FF
