:1000000072C000009EC000009CC000009AC00000AA
:1000100098C0000096C0000094C0000092C000008C
:1000200090C000008EC000008CC000008AC000009C
:1000300088C0000086C0000084C0000082C00000AC
:1000400080C000007EC000007CC000007AC00000BC
:1000500078C0000076C0000074C0000091C30000AA
:1000600070C000005FC4000034C400006AC000001B
:1000700068C0000066C0000064C0000062C00000EC
:1000800060C000005EC000005CC000005AC00000FC
:10009000EAC30000BFC3000054C0000052C000000B
:1000A00050C000004EC000004CC000004AC000001C
:1000B00048C0000046C0000044C0000042C000002C
:1000C00040C000003EC000003CC000003AC000003C
:1000D00038C0000036C0000034C0000032C000004C
:1000E00030C00000C80411241FBECFEFD1E2DEBF34
:1000F000CDBF00E00CBF28E0AEE7B3E001C01D9229
:10010000A53BB207E1F713E0A0E0B2E0EAE6F0E1D8
:1001100000E00BBF02C007900D92AE37B107D9F7D0
:1001200010E0C3E7D0E000E005C021970109802F6F
:10013000FE0191D7C237D10780E00807B1F77BD421
:1001400092C75ECFFC01A089B18982E08C93A4851F
:10015000B5851C92A685B7858FEC8C93108EA489EB
:10016000B58986E08C93A289B3898C9180618C9348
:10017000A289B3898C9188608C93A289B3898C9170
:1001800080688C930288F389E02D80818F7D808345
:1001900008953FB7F8948091610690916206A0910E
:1001A0006306B091640626B5A89B05C02F3F19F0E1
:1001B0000196A11DB11D3FBFBA2FA92F982F8827E7
:1001C000BC01CD01620F711D811D911D42E0660FC2
:1001D000771F881F991F4A95D1F70895AF92BF9254
:1001E000CF92DF92EF92FF920F931F93CF93DF9303
:1001F0006C017B018B01040F151FEB015E01AE1832
:10020000BF08C017D10759F06991D601ED91FC9153
:100210000190F081E02DC6011995892B79F7C50170
:10022000DF91CF911F910F91FF90EF90DF90CF90D2
:10023000BF90AF900895FC01538D448D252F30E081
:10024000842F90E0821B930B541710F0CF960895E3
:1002500001970895FC01918D828D981761F0A28D10
:10026000AE0FBF2FB11D5D968C91928D9F5F9F73D6
:10027000928F90E008958FEF9FEF08952FB7F89435
:100280008091770790917807A0917907B0917A07CC
:100290002FBF8093200890932108A0932208B09349
:1002A000230888E198E0D6DF97FF26C02FB7F8949F
:1002B0008091770790917807A0917907B0917A079C
:1002C0002FBF409120085091210860912208709121
:1002D0002308841B950BA60BB70B40911C0850916B
:1002E0001D0860911E0870911F0884179507A607C6
:1002F000B707B8F28FEF9FEF0895FC01918D828DC3
:10030000981731F0828DE80FF11D858D90E00895EA
:100310008FEF9FEF0895FC01918D228D892F90E042
:10032000805C9F4F821B91098F73992708958BE7FB
:1003300097E0F1DF21E0892B09F420E0822F089576
:1003400088E198E0E8DF21E0892B09F420E0822FA2
:100350000895FC01A48DA80FB92FB11DA35ABF4F5A
:100360002C91848D90E001968F739927848FA689B4
:10037000B7892C93A089B1898C91837080648C9308
:10038000938D848D981306C00288F389E02D8081B7
:100390008F7D80830895EF92FF920F931F93CF93E9
:1003A000DF93EC0181E0888F9B8D8C8D98131AC0B0
:1003B000E889F989808185FF15C09FB7F894EE8997
:1003C000FF896083E889F9898081837080648083F4
:1003D0009FBF81E090E0DF91CF911F910F91FF903F
:1003E000EF900895F62E0B8D10E00F5F1F4F0F73E7
:1003F0001127E02E8C8D8E110BC00FB607FCFACFA3
:10040000E889F989808185FFF5CFCE01A2DFF2CF9F
:10041000EB8DEC0FFD2FF11DE35AFF4FF0829FB7DC
:10042000F8940B8FEA89FB8980818062D0CFCF93CB
:10043000DF93EC01888D8823B1F0AA89BB89E88914
:10044000F9898C9185FD03C0808186FD0CC00FB6B3
:1004500007FCF7CF8C9185FFF2CF808185FFEDCF30
:10046000CE0177DFEACFDF91CF91089580E090E071
:10047000892B21F065DF81110E94000080E090E06F
:10048000892B21F054DF81110E94000080E090E070
:10049000892B49F080E090E0892B29F00E94000030
:1004A00081110E94000080E090E0892B49F080E0FB
:1004B00090E0892B29F00E94000081110C9400002B
:1004C0000895FC019081973018F49F5F9083089500
:1004D00010820895FC01DB016D917C91680F791FFA
:1004E0004FEF5FEF6E177F0741F19191292F220F98
:1004F0002A7A96959575292B922F990F990F9C7CA6
:10050000269526952373922B92959527892F829570
:100510008F708927282F30E0942FA901542F44276A
:100520005295507F84279527A90125E0440F551F38
:100530002A95E1F748275927D5CF9A01220F331F73
:100540002A7A3A7ACA01B0E0A0E0B695A7959795C5
:10055000879585759575822B932BBC01660F771F48
:10056000660F771F6C7C7C7CB0E0A0E0E2E0B69583
:10057000A79597958795EA95D1F783739373682B21
:10058000792BCB01F4E0880F991FFA95E1F7807F72
:10059000907FAB0170E060E0A4E076956795579599
:1005A0004795AA95D1F74F705F70842B952B9827AC
:1005B000892798270895BF92CF92DF92EF92FF92FA
:1005C0000F931F93CF93DF93CDB7DEB7C250D140C7
:1005D0000FB6F894DEBF0FBECDBF1092760745E68A
:1005E00056E0FE0131969F016F0197E045365907AD
:1005F00039F0DA019D91AD01D9019D939D01F5CFAF
:1006000099819E3709F061C021E030E0CF5FDE4F75
:1006100039832883C150D140A8E6B7E026E737E008
:1006200031962A173B0769F498899093670700E190
:1006300010E090E040960817190738F40F5F1F4F3D
:10064000FACF90819D93ECCF87017801BFEFEB1A31
:10065000FB0AEDEFEE16F104B8F3CF5FDE4FF9823F
:10066000E882C150D140BB24B394B0926607109287
:100670006507BE016F5F7E4FC6012CDFF601EE0DF0
:10068000FF1D2081291310C00E5F1F4FCF5FDE4F6B
:1006900019830883C150D1400C0D1D1DD8019C91B8
:1006A000981302C0B0927607CE5FDE4F0FB6F89473
:1006B000DEBF0FBECDBFDF91CF911F910F91FF9095
:1006C000EF90DF90CF90BF90089510926507ECCF28
:1006D0008F929F92AF92BF920F931F93CF93DF930E
:1006E000CDB7DEB7A1970FB6F894DEBF0FBECDBF72
:1006F00019A2423008F44AE08E010F5D1F4F842E8C
:10070000912CB12CA12CA501940183D4E62FB90121
:10071000CA01EA303CF5E05DD801EE938D01232B50
:10072000242B252B81F790E080E0109761F0FD01EC
:1007300001900020E9F73197AF014A1B5B0BBD0127
:100740008BE797E04BDDA1960FB6F894DEBF0FBEA6
:10075000CDBFDF91CF911F910F91BF90AF909F9030
:100760008F900895E95CD8CFFC0101900020E9F753
:100770003197AF01481B590BBC018BE797E02ECD99
:100780001F920F920FB60F9211242F933F938F93C6
:100790009F93AF93BF938091770790917807A09133
:1007A0007907B0917A073091600623E0230F2D3747
:1007B00058F50196A11DB11D20936006809377071F
:1007C00090937807A0937907B0937A078091610698
:1007D00090916206A0916306B09164060196A11DF6
:1007E000B11D8093610690936206A0936306B09357
:1007F0006406BF91AF919F918F913F912F910F9080
:100800000FBE0F901F90189526E8230F0296A11D8A
:10081000B11DD2CF1F920F920FB60F9211240BB6BB
:100820000F922F933F934F935F936F937F938F9389
:100830009F93AF93BF93EF93FF938BE797E089DD8F
:10084000FF91EF91BF91AF919F918F917F916F91A8
:100850005F914F913F912F910F900BBE0F900FBE64
:100860000F901F9018951F920F920FB60F921124A0
:100870000BB60F922F938F939F93EF93FF93E0917B
:100880008B07F0918C078081E0919107F09192079E
:1008900082FD1DC09081809194078F5F8F7320919E
:1008A0009507821741F0E0919407F0E0E558F84F82
:1008B000958F80939407FF91EF919F918F912F9146
:1008C0000F900BBE0F900FBE0F901F901895808158
:1008D000F2CF1F920F920FB60F9211240BB60F9208
:1008E0002F933F934F935F936F937F938F939F9338
:1008F000AF93BF93EF93FF9388E198E02ADDFF91D8
:10090000EF91BF91AF919F918F917F916F915F9187
:100910004F913F912F910F900BBE0F900FBE0F90F4
:100920001F9018951F920F920FB60F9211240BB6BD
:100930000F922F938F939F93EF93FF93E09128084B
:10094000F09129088081E0912E08F0912F0882FD16
:100950001DC09081809131088F5F8F732091320884
:10096000821741F0E0913108F0E0E85EF74F958F93
:1009700080933108FF91EF919F918F912F910F906C
:100980000BBE0F900FBE0F901F9018958081F2CF75
:10099000EBE7F7E01382128248EE53E060E070E08C
:1009A00044835583668377838AE292E091838083D0
:1009B0002DEC30E0358724872CEC30E03787268714
:1009C00028EC30E0318B208B29EC30E0338B228B0C
:1009D0002AEC30E0358B248B2EEC30E0378B268BE5
:1009E000118E128E138E148EE8E1F8E013821282BB
:1009F00044835583668377839183808385EC90E07D
:100A00009587848784EC90E09787868780EC90E0D8
:100A1000918B808B81EC90E0938B828B82EC90E0C9
:100A2000958B848B86EC90E0978B868B118E128E43
:100A3000138E148E0895CF93DF93CDB7DEB72E9724
:100A40000FB6F894DEBF0FBECDBF789484B5826038
:100A500084BD84B5816084BD85B5826085BD85B562
:100A6000816085BD80916E00816080936E001092E0
:100A7000810080918100826080938100809181005B
:100A800081608093810080918000816080938000EC
:100A90008091B10084608093B1008091B00081604A
:100AA0008093B0008091910082608093910080914A
:100AB000910081608093910080919000816080938B
:100AC00090008091A10082608093A1008091A1009C
:100AD00081608093A1008091A00081608093A0003C
:100AE00080912101826080932101809121018160A8
:100AF0008093210180912001816080932001809169
:100B00007A00846080937A0080917A00826080937A
:100B10007A0080917A00816080937A0080917A00D7
:100B2000806880937A001092C10088E198E00ADB27
:100B30008BE797E007DB01E01E012FE0220E311C5E
:100B4000FFE04F2EF2E05F2EADE6AA2EA6E0BA2E11
:100B500080915F068130C1F480915E06811112C0E0
:100B600080910002882361F080917E03E2E7F5E046
:100B70009CEE980F81938F5F8913FCCF80937E0347
:100B800000935E0610925F0680915E06813021F42C
:100B900080917105882321F0809166078130B1F43E
:100BA00088E392E0E1DD8EE0E0E1F2E0DE01119623
:100BB00001900D928A95E1F780918303813009F4C9
:100BC000A9C008F441C0823009F4FDC080917105CC
:100BD000813009F04AC180917005811146C18BE3D3
:100BE00093E0C2DD80910F02FEE7F0937004A1E074
:100BF000B2E0E0E7F4E031964A165B0609F015C171
:100C000010937F04A4E8B3E0E0E8F4E060E1E62EAE
:100C1000F12C90E04096E816F90608F409C1C701E6
:100C200080599B4F4C0167018FEFC81AD80AC40145
:100C3000805794408D3F910508F000C1D401EAEA45
:100C4000ED934D017601EFCF80915E06813011F575
:100C50008091710581111EC085E492E085DDE2E797
:100C6000F5E0A4E8B3E081918D9386E0EE35F807D6
:100C7000D1F710925E060093710510918203110F57
:100C80001E7080918103A0E28A9FC0011124182B5D
:100C900000938303F0906607B1E0FB1297CF84E5E1
:100CA00092E062DDE8E6F7E0DE01119691918D9128
:100CB0009817D9F083E692E057DD1092660780918D
:100CC000670780FD1EC090E095958795877090918D
:100CD0008103891310C00093800381E0F81609F4A2
:100CE00075CF92E09093830371CF27E0E637F20748
:100CF000E9F6F12CE4CF10928003A2E0A0938303E5
:100D000065CFB1E0FB1609F461CF8091800381309B
:100D100041F35CCF80916607813009F057CF809115
:100D2000670780FF26C0982F9370913011F5982F98
:100D30009295969597709150983008F097E0209191
:100D40008203291319C090E095958795959587950D
:100D50008370823088F40093000210927F038BE747
:100D600092E002DD82E893E0ACDB10928303009313
:100D70005F06109266072ACF1092000280917F03CF
:100D8000823069F48EE992E0EFDC00930002109269
:100D90005E0682E893E095DB10927F03E6CF8F5FDB
:100DA00080937F038FEC92E0DFDC80EF92E0DCDC6D
:100DB00060917F0370E090E080E04AE089DC81E7A9
:100DC00093E0D2DCD2CF109266071091810382E8C3
:100DD00093E077DBE0E21E9FC0011124182F116021
:100DE000809176078130E1F4809180038130C1F4F5
:100DF0008FEF92E0B9DC81E893E063DB109280032F
:100E000010920F02FE013196A1E0B2E081918D9324
:100E1000E215F305D9F70093710510928303D6CE3E
:100E20008DE193E0A1DC1860EBCF9D919083E3CE40
:100E30002D9121932FEFE21AF20AEDCEFA82E98288
:100E4000BE016F5F7F4F80E794E044DBD4019C9349
:100E5000F601E059FB4F8083F701EE58FB4FBEE7E8
:100E6000B0831092710500937005809170058130F8
:100E7000A1F450E7E52E54E0F52EF70161917F01D2
:100E800088E198E088DA88E198E0D1DAF0E7EF16B7
:100E9000F5E0FF0691F71092700588E0EEE1F2E0D0
:100EA000DE01119601900D928A95E1F788E198E0B4
:100EB00032DA892B09F49DC080916507811199C0B0
:100EC0002CEE20930F0289E493E04EDC45E6E42EFD
:100ED00046E0F42ED3D997FD08C0D7018D937D014C
:100EE000BDE6EB16B6E0FB06A9F7FE01319635E646
:100EF000C32E36E0D32E81E0D6012D916D01919164
:100F0000291380E0AC14BD04B9F7813009F071C039
:100F1000F12CE12C36016E0C7F1CF701EB58F94FD8
:100F20004F01ACD997FD06C0D3018D933D01A815A3
:100F3000B905B9F7B8E0EB0EF11CE8EFEE16F104D5
:100F400049F727D96B017C0124E6622E712C812C94
:100F5000912C1FD96C197D098E099F09683E734039
:100F600081059105B0F3F1E06F1A710881089108CD
:100F700028EEC20E23E0D21EE11CF11C61147104A4
:100F80008104910431F7009365078EE593E0ECDB73
:100F900088E198E04CDA95E6E92E96E0F92EF70123
:100FA00061917F0170E090E080E040E191DB88E1B9
:100FB00098E03DDAF3E8EF16F6E0FF0681F780E708
:100FC00093E0D2DB8BE4E82E87E0F82ED7016D9119
:100FD0007D0170E090E080E040E17ADB88E198E01C
:100FE00026DAB5E6EB16B7E0FB0681F780E793E07B
:100FF000BBDB8091660781110AC080916507813053
:1010000031F483E793E0B0DB80910F02D4DA2EDA7B
:101010009FCDA1E21A2EAA1BBB1BFD010DC0AA1F6A
:10102000BB1FEE1FFF1FA217B307E407F50720F051
:10103000A21BB30BE40BF50B661F771F881F991FCC
:101040001A9469F760957095809590959B01AC0115
:10105000BD01CF010895EE0FFF1F881F8BBF0790C2
:0A106000F691E02D1994F894FFCFEB
:10106A00014F4E34554C47604F554654493161EC57
:10107A004F4E34554C47604F5546544931617E4F67
:10108A004E34554C476000000000CB01EE001B01B6
:10109A0017028B012A017D010A4D616E6167656D38
:1010AA00656E740A000A49646C6520747820706160
:1010BA0072740A000A49646C652072782070617241
:1010CA00740A000A2041646472657373206973208C
:1010DA004E4F54206F757273200A000A20546865B7
:1010EA00204672616D652077652073656E7420777E
:1010FA006173204163636570746564200A000A2085
:10110A0052656A65637420436F756E746572205206
:10111A00656163686564203320736F206672616D50
:10112A006520697320736B6970706564200A000A10
:10113A00546865204672616D652077652073656E17
:10114A0074207761732052656A65637465640A0066
:10115A000A2072656A436F756E7465723A20000AD6
:10116A0020416363657074207468652072656365E5
:10117A0069766564206672616D65200A000A2052EC
:10118A00656A65637420746865207265636569764B
:10119A006564206672616D65200A000A4275696C91
:1011AA0064204672616D650A000A20776169746974
:1011BA006E6720666F722064617461200A000A20DB
:1011CA005265636569766564204672616D650A00D9
:0E11DA000A0A000A44656672616D650A00002B
:00000001FF
