:100000000C9435000C945D000C945D000C945D0024
:100010000C945D000C945D000C945D000C945D00EC
:100020000C945D000C945D000C945D000C945D00DC
:100030000C945D000C945D000C945D000C945D00CC
:100040000C94F2030C945D000C9462040C943C0438
:100050000C945D000C945D000C945D000C945D00AC
:100060000C945D000C945D00DF0611241FBECFEFE1
:10007000D8E0DEBFCDBF27E0AEEAB1E001C01D92FF
:10008000A833B207E1F711E0A0E0B1E0E4E1F4E168
:1000900002C005900D92AE3AB107D9F710E0C5E362
:1000A000D0E004C02197FE010E944307C433D1076A
:1000B000C9F70E9494040C94080A0C9400003FB7FE
:1000C000F8948091300590913105A0913205B0915E
:1000D000330526B5A89B05C02F3F19F00196A11D39
:1000E000B11D3FBFBA2FA92F982F8827BC01CD0182
:1000F000620F711D811D911D42E0660F771F881FE1
:10010000991F4A95D1F708958F929F92AF92BF920F
:10011000CF92DF92EF92FF920E945F004B015C0151
:1001200084E6C82ED12CE12CF12C0E945F006819C6
:1001300079098A099B09683E734081059105A8F3F6
:1001400021E0C21AD108E108F10888EE880E83E0A8
:10015000981EA11CB11CC114D104E104F10429F7BB
:10016000FF90EF90DF90CF90BF90AF909F908F90D7
:100170000895AF92BF92CF92DF92EF92FF920F93CA
:100180001F93CF93DF936C017B018B01040F151F2D
:10019000EB015E01AE18BF08C017D10759F0699195
:1001A000D601ED91FC910190F081E02DC6010995F9
:1001B000892B79F7C501DF91CF911F910F91FF90A6
:1001C000EF90DF90CF90BF90AF900895FC01538DDA
:1001D000448D252F30E0842F90E0821B930B541721
:1001E00010F0CF96089501970895FC01918D828DAE
:1001F000981761F0A28DAE0FBF2FB11D5D968C9147
:10020000928D9F5F9F73928F90E008958FEF9FEF85
:100210000895FC01918D828D981731F0828DE80F41
:10022000F11D858D90E008958FEF9FEF0895FC01FB
:10023000918D228D892F90E0805C9F4F821B9109C8
:100240008F739927089582EB91E00E94170121E0B6
:10025000892B09F420E0822F089580E090E0892B1B
:1002600029F00E94230181110C9400000895FC01E3
:10027000A48DA80FB92FB11DA35ABF4F2C91848D07
:1002800090E001968F739927848FA689B7892C9364
:10029000A089B1898C91837080648C93938D848DB7
:1002A000981306C00288F389E02D80818F7D8083BA
:1002B0000895EF92FF920F931F93CF93DF93EC017A
:1002C00081E0888F9B8D8C8D98131AC0E889F989FD
:1002D000808185FF15C09FB7F894EE89FF89608300
:1002E000E889F98980818370806480839FBF81E081
:1002F00090E0DF91CF911F910F91FF90EF900895C3
:10030000F62E0B8D10E00F5F1F4F0F731127E02E9D
:100310008C8D8E110CC00FB607FCFACFE889F989D5
:10032000808185FFF5CFCE010E943701F1CFEB8DA3
:10033000EC0FFD2FF11DE35AFF4FF0829FB7F894A9
:100340000B8FEA89FB8980818062CFCFCF93DF93C7
:10035000EC01888D8823B9F0AA89BB89E889F989DD
:100360008C9185FD03C0808186FD0DC00FB607FC12
:10037000F7CF8C9185FFF2CF808185FFEDCFCE0145
:100380000E943701E9CFDF91CF910895FC01DB0195
:100390006D917C91680F791F4FEF5FEF6E177F07AC
:1003A00041F19191292F220F2A7A96959575292B43
:1003B000922F990F990F9C7C269526952373922B4B
:1003C00092959527892F82958F708927282F30E065
:1003D000942FA901542F44275295507F84279527A5
:1003E000A90125E0440F551F2A95E1F74827592711
:1003F000D5CF9A01220F331F2A7A3A7ACA01B0E088
:10040000A0E0B695A7959795879585759575822BEC
:10041000932BBC01660F771F660F771F6C7C7C7C6B
:10042000B0E0A0E0E2E0B695A79597958795EA95AC
:10043000D1F783739373682B792BCB01F4E0880F8A
:10044000991FFA95E1F7807F907FAB0170E060E043
:10045000A4E07695679557954795AA95D1F74F7083
:100460005F70842B952B98278927982708957F9272
:100470008F929F92AF92BF92CF92DF92EF92FF92B4
:100480000F931F93CF93DF93CDB7DEB7C250D14008
:100490000FB6F894DEBF0FBECDBF1092310744E314
:1004A00055E0FE0131969F017F0196E044335907E4
:1004B00039F0DA019D91AD01D9019D939D01F5CFF0
:1004C00099819E3709F079C121E030E0CF5FDE4F9E
:1004D00039832883C150D140A3E2B7E0319697E039
:1004E000A133B907F1F498899093220720E130E015
:1004F000CF5FDE4F39832883C150D140DE01519652
:10050000E6E3F6E000E110E0C82ED12C9601205F72
:100510003F4F0217130748F48D9181930F5F1F4FD0
:10052000F8CF90819D93DACF85015801AFEFAA1AD9
:10053000BA0ABDEFAB16B104B8F3CF5FDE4FB98294
:10054000A882C150D14077247394709235061092DE
:100550003406BE016F5F7E4FC7010E94C601982E10
:10056000892EF701EA0DFB1D8081891326C1C80180
:100570000296CF5FDE4F99838883C150D1408E0DA4
:100580009F1DFC018081891118C1709231070D5F98
:100590001F4FCF5FDE4F19830883C150D1408FE2D8
:1005A00091E00E945F07CF5FDE4F88819981C15043
:1005B000D140E80EF91ED7018C918E3709F0FDC0AD
:1005C0001F928F9383E491E09F938F930E9449073A
:1005D0008DE491E09F938F930E944907CF5FDE4F98
:1005E00019821882C150D1400F900F900F900F9038
:1005F0000F900F900AE411E0CF5FDE4F8881998160
:10060000C150D1408E309105E0F48D5D984FFC01D2
:1006100080811F928F931F930F930E944907CF5F92
:10062000DE4F88819981C150D1400196CF5FDE4F66
:1006300099838883C150D1400F900F900F900F90F5
:10064000DBCF89E591E09F938F930E944907CF5FAD
:10065000DE4F19821882C150D1400F900F9009E6E9
:1006600011E0CF5FDE4F88819981C150D140892B45
:10067000F1F4809122071F928F931F921F921F9374
:100680000F930E944907CF5FDE4F88819981C15047
:10069000D1400196CF5FDE4F99838883C150D1400E
:1006A0000F900F900F900F900F900F90DACF89E777
:1006B00091E00E945F07CF5FDE4F19821882C15020
:1006C000D1400AE411E0CF5FDE4F88819981C150AB
:1006D000D1408C159D05E0F48A5C994FDC018C912A
:1006E0001F928F931F930F930E944907CF5FDE4F96
:1006F00088819981C150D1400196CF5FDE4F9983A7
:100700008883C150D1400F900F900F900F90DBCF96
:1007100081E891E09F938F930E944907CF5FDE4F5E
:1007200019821882C150D1400F900F900DEE10E049
:100730000C191D098AE4E82E81E0F82ECF5FDE4F08
:1007400088819981C150D14080179107C0F41F92D0
:100750001F92FF92EF920E944907CF5FDE4F888180
:100760009981C150D1400196CF5FDE4F9983888334
:10077000C150D1400F900F900F900F90DFCF8EE8B7
:1007800091E00E945F078F929F9283E991E09F938F
:100790008F930E944907C050DF4F8881C050D140DD
:1007A0001F928F938FE991E09F938F930E94490747
:1007B0000FB6F894DEBF0FBECDBFCE5FDE4F0FB6D3
:1007C000F894DEBF0FBECDBFDF91CF911F910F9187
:1007D000FF90EF90DF90CF90BF90AF909F908F9061
:1007E0007F9008951F920F920FB60F9211242F93AE
:1007F0003F938F939F93AF93BF9380912C059091DC
:100800002D05A0912E05B0912F0530912B0523E0E9
:10081000230F2D3758F50196A11DB11D20932B05EF
:1008200080932C0590932D05A0932E05B0932F0552
:100830008091300590913105A0913205B09133053A
:100840000196A11DB11D8093300590933105A093B1
:100850003205B0933305BF91AF919F918F913F9136
:100860002F910F900FBE0F901F90189526E8230F21
:100870000296A11DB11DD2CF1F920F920FB60F92FB
:1008800011242F933F934F935F936F937F938F9395
:100890009F93AF93BF93EF93FF9382EB91E00E94FE
:1008A0003701FF91EF91BF91AF919F918F917F9110
:1008B0006F915F914F913F912F910F900FBE0F90CD
:1008C0001F9018951F920F920FB60F9211242F931D
:1008D0008F939F93EF93FF93E091C201F091C30137
:1008E0008081E091C801F091C90182FD1BC0908117
:1008F0008091CB018F5F8F732091CC01821741F0E3
:10090000E091CB01F0E0EE54FE4F958F8093CB0148
:10091000FF91EF919F918F912F910F900FBE0F90AC
:100920001F9018958081F4CFCF93DF93CDB7DEB7BA
:100930002E970FB6F894DEBF0FBECDBF789484B566
:10094000826084BD84B5816084BD85B5826085BDCB
:1009500085B5816085BD80916E00816080936E0059
:10096000109281008091810082608093810080914B
:1009700081008160809381008091800081608093FC
:1009800080008091B10084608093B1008091B000BC
:1009900081608093B00080917A00846080937A00B7
:1009A00080917A00826080937A0080917A008160E1
:1009B00080937A0080917A00806880937A00109208
:1009C000C100E091C201F091C30182E08083E09117
:1009D000BE01F091BF011082E091C001F091C10110
:1009E0008FEC80831092CA01E091C601F091C7019B
:1009F00086E08083E091C401F091C501808180612F
:100A00008083E091C401F091C5018081886080837A
:100A1000E091C401F091C501808180688083E091FC
:100A2000C401F091C50180818F7D808369E2462EEB
:100A300065E0562E3E012FE0620E711C7EE0A72E6F
:100A400071E0B72E332433945BE3852E54E0952E6A
:100A50000E94840080912A058130A1F480912905AB
:100A600081110EC08091AE01EDE3F4E09CEE980F91
:100A700081938F5F8913FCCF8093AE01309229055B
:100A800010922A0590912905913021F480913C041F
:100A9000882321F080913506813091F48EE0EFE0DB
:100AA000F1E0DE01119601900D928A95E1F78091B7
:100AB000B101813009F472C0E8F1823009F49EC0BE
:100AC00080913C04813009F0E5C080913B048111A4
:100AD000E1C080910E019EE790933B03A0E0B1E05E
:100AE000EBE3F3E03196AA16BB0609F0B3C02092FF
:100AF0004A03AFE4B2E0EBE4F3E000E110E090E0A1
:100B000040960817190708F4A8C0C801855C9C4FD7
:100B10006C0178019FEFE91AF90AC6018B539340E3
:100B20008D3F910508F09EC0F6012AEA21936F01DE
:100B30008701EFCF9130C9F480913C04811115C039
:100B4000EDE3F4E0AFE4B2E081918D934E165F06E1
:100B5000D9F71092290530923C042090B001220C64
:100B6000822D8E70282E3092B10180913506813011
:100B700009F0A6CFE3E2F7E0DE01119691918D91A5
:100B8000981719F0109235069BCF81E397E08E17E6
:100B90009F07A1F782E08093B10192CF8091350643
:100BA000813009F08DCF80912207811103C010920E
:100BB000AF01E8CF282F2295269527702093AF010B
:100BC0002150322F283008F037E09091B0013913CE
:100BD0000DC090E0959587959595879583708230A7
:100BE00028F4273040F43F5F3093B0011092B101F8
:100BF00030922A05C7CF1092B001F8CF1092350677
:100C00008091B001873018F58F5F8093B00180919B
:100C1000AF01E0E28E9FC0011124282E689420F8D5
:100C200020913107213019F0F82FF9602F2E109202
:100C30000E01FE013196A0E0B1E081918D93E615A1
:100C4000F705D9F730923C041092B10139CF1092D8
:100C5000B001DDCF9D91908345CF2D9121930F5F02
:100C60001F4F4FCF1A830983BE016F5F7F4F8BE306
:100C700093E00E94C601F6019083F701E55CFC4F0A
:100C80008083F801E35CFC4F8EE7808310923C0484
:100C900030923B0480913B04813091F40BE313E0EC
:100CA000F80161918F0182EB91E00E94590182EB82
:100CB00091E00E94A6018016910691F710923B04E4
:100CC00082EB91E00E941701892B09F452C08091B8
:100CD000340681114EC08CEE80930E0104E315E0C2
:100CE0002FB7F89480912C0590912D05A0912E0599
:100CF000B0912F052FBF8093BA019093BB01A093B1
:100D0000BC01B093BD0182EB91E00E94F50097FF1A
:100D10004DC02FB7F89480912C0590912D05A0918E
:100D20002E05B0912F052FBF4091BA015091BB0104
:100D30006091BC017091BD01841B950BA60BB70B94
:100D40004091B6015091B7016091B8017091B9011D
:100D500084179507A607B707B0F282EB91E00E94CF
:100D6000A6010E9484003092340682EB91E00E943A
:100D7000A6018091350681110CC080913406813026
:100D800041F482EB91E00E94A60180910E010E9445
:100D9000370280E090E0892B09F45ACE0E942301AB
:100DA000882309F44FCE0E9400004CCEF8018193B5
:100DB0008F01F6E004331F0709F092CFCECFE2EBAC
:100DC000F1E01382128288EE93E0A0E0B0E0848329
:100DD0009583A683B78381E291E09183808385EC3C
:100DE00090E09587848784EC90E09787868780ECF5
:100DF00090E0918B808B81EC90E0938B828B82ECE6
:100E000090E0958B848B86EC90E0978B868B118E8F
:100E1000128E138E148E08952F923F924F925F92EE
:100E20006F927F928F929F92AF92BF92CF92DF92FA
:100E3000EF92FF920F931F93CF93DF93CDB7DEB75F
:100E4000CA1BDB0B0FB6F894DEBF0FBECDBF0994F3
:100E50002A88398848885F846E847D848C849B844A
:100E6000AA84B984C884DF80EE80FD800C811B8158
:100E7000AA81B981CE0FD11D0FB6F894DEBF0FBE87
:100E8000CDBFED010895EE0FFF1F0590F491E02D09
:100E90000994B0E0A0E0EFE4F7E00C941C07AE0189
:100EA0004B5F5F4FFA0161917191AF0180913407FF
:100EB000909135070E948A07E2E00C9438070F935F
:100EC0001F93CF93DF93E0913407F091350723818F
:100ED000EC0110E000E021FD08C00FEF1FEF14C08F
:100EE0000995892B11F00FEF1FEF8991609134075D
:100EF00070913507DB011896ED91FC918111F0CFCF
:100F00008AE00995892B49F7C801DF91CF911F919C
:100F10000F910895ABE0B0E0E0E9F7E00C940C0726
:100F20007C013B018A01FC0117821682838181FFCB
:100F3000C8C1CE0101965C01F7019381F30193FDD5
:100F4000859193FF81913F01882309F453C1853234
:100F500039F493FD859193FF81913F01853229F406
:100F6000B70190E00E947A09E7CF912C212C312C17
:100F7000FFE1F31538F08B3211F190F4803209F172
:100F8000833229F137FC3CC020ED280F2A3050F580
:100F900036FE20C08AE0989E200D1124922E06C0B5
:100FA0008D3291F0803371F7689430F8F30193FD3E
:100FB000859193FF81913F018111DACF21C068941F
:100FC00031F8689432F8F2CF689433F8EFCF689430
:100FD00034F8ECCFEAE02E9E200D1124222E6894E6
:100FE00035F8E4CF8E3229F436FC04C1689436F823
:100FF000DDCF8C3619F4689437F8D8CF8836B1F243
:10100000982F9F7D95549330E0F08336A1F183377C
:10101000C1F1833509F063C02801F2E04F0E511C85
:10102000F801C080D180692D70E036FC02C06FEFFE
:101030007FEFC6010E9464094C01689437F8820171
:101040000AC00C5F1F4FFFE3F98388248394912C1F
:101050006501E89437F833FE2DC0522C81149104B9
:1010600071F5552009F468CFB70180E290E00E9445
:101070007A095A94F6CFF801808189830E5F1F4F59
:10108000E4CF2801F2E04F0E511CF801C080D1805E
:10109000692D70E036FC02C06FEF7FEFC6010E9441
:1010A0006F094C018201D5CFB70180E290E00E9428
:1010B0007A092A942814190409F0B0F7CECFF60162
:1010C00037FC859137FE81916F01B70190E00E9456
:1010D0007A0951105A94F1E08F1A9108BFCF8436E3
:1010E00019F0893609F077C0F80137FE6BC06081CE
:1010F0007181828193810C5F1F4FF32DFF763F2E0C
:1011000097FF09C090958095709561957F4F8F4F9F
:101110009F4F689437F82AE030E0A5010E94AA09A1
:10112000C82ECA188C2C432C36FE0CC0E89440F80C
:10113000C91440F434FE05C032FC03C0F32DFE7E1A
:101140004F2E892C44FE95C0FE01EC0DF11D8081CF
:10115000803309F087C0242D297E422E842D88708B
:10116000582E43FC95C040FE8FC09C2C821418F46E
:101170002C0C922C981844FE91C0B70180E390E0AB
:101180000E947A0942FE09C088E790E041FE02C051
:1011900088E590E0B7010E947A09C91408F48AC072
:1011A000CA94D12C9FEFC91AD90ACA0CDB1CF601CC
:1011B00082916F01B70190E00E947A09AC14BD04DE
:1011C000B1F74FCF60817181072E000C880B990B0E
:1011D0000E5F1F4F92CFD32CE894D4F82AE030E072
:1011E000853739F1232D297FD22E8F3601F148F42E
:1011F0008835A9F0F701868197812B96E2E10C945E
:101200002807803749F08837A9F7D4FE02C06894D0
:10121000D2F820E130E00DC06894D4F8F6CF34FE67
:1012200003C0822F8660D82E20E132E002C028E081
:1012300030E0F801D7FE0FC0608171818281938117
:101240000C5F1F4FA5010E94AA09C82ECA183D2C89
:10125000E89437F867CF6081718190E080E00E5F9D
:101260001F4FF0CF42FC02C0839478CF83948394C5
:1012700075CF842D867809F471CFF6CFB70180E25F
:1012800090E00E947A0983948214C0F3512C73CFAA
:10129000522C5818821408F46ECFF8CF842D86781B
:1012A00009F47BCF8BE241FE80E247FC8DE2B7017F
:1012B00090E071CFB70180E390E00E947A099A94A0
:1012C0006CCF8FEF9FEF99CFFC010590615070407C
:1012D0000110D8F7809590958E0F9F1F0895FC01FF
:1012E0006150704001900110D8F7809590958E0F55
:1012F0009F1F08950F931F93CF93DF93182F092FEC
:10130000EB018B8181FD09C01FEF0FEF812F902F23
:10131000DF91CF911F910F91089582FF14C02E810C
:101320003F818C819D81281739073CF4E881F98140
:10133000CF0101969983888310838E819F810196C6
:101340009F838E83E3CFE885F985812F0995892BCB
:10135000A1F3DACFFA01AA27283051F1203181F127
:10136000E8946F936E7F6E5F7F4F8F4F9F4FAF4FAD
:10137000B1E03ED0B4E03CD0670F781F891F9A1FC0
:10138000A11D680F791F8A1F911DA11D6A0F711D74
:10139000811D911DA11D20D009F468943F912AE080
:1013A000269F11243019305D3193DEF6CF01089568
:1013B000462F4770405D4193B3E00FD0C9F7F6CF99
:1013C000462F4F70405D4A3318F0495D31FD405261
:1013D000419302D0A9F7EACFB4E0A69597958795F7
:1013E00077956795BA95C9F70097610571050895D6
:1013F0009B01AC010A2E0694579547953795279582
:10140000BA95C9F7620F731F841F951FA01D089519
:04141000F894FFCF7E
:101414004F4E34554C47604F554654493161EC4F5B
:101424004E34554C47604F554654493161000000D5
:10143400005901B900E600A6011701F50009010AE7
:101444002A2A7265636569766564206672616D65D2
:101454002A2A00666C61673D3A202578000A2061DB
:101464006464726573733A09000A20636F6E747260
:101474006F6C20627974650900636F6E74726F6CAF
:101484005B25645D3D257809000A20696E666F203E
:10149400000A2070616464696E673A2009000A4694
:1014A4004353000A20435243203D2025780A000A72
:0E14B40020666C6167203D202578200A00002C
:00000001FF
