:100000000C9435000C945D000C945D000C945D0024
:100010000C945D000C945D000C945D000C945D00EC
:100020000C945D000C945D000C945D000C945D00DC
:100030000C945D000C945D000C945D000C945D00CC
:100040000C94F1030C945D000C9461040C943B043B
:100050000C945D000C945D000C945D000C945D00AC
:100060000C945D000C945D00030711241FBECFEFBC
:10007000D8E0DEBFCDBF26E0A2ECB1E001C01D920A
:10008000AE35B207E1F711E0A0E0B1E0E0EAF4E15B
:1000900002C005900D92A23CB107D9F710E0C5E36C
:1000A000D0E004C02197FE010E948907C433D10724
:1000B000C9F70E9493040C944E0A0C940000AF926E
:1000C000BF92CF92DF92EF92FF920F931F93CF9345
:1000D000DF936C017B018B01040F151FEB015E01A7
:1000E000AE18BF08C017D10759F06991D601ED913C
:1000F000FC910190F081E02DC6010995892B79F7DB
:10010000C501DF91CF911F910F91FF90EF90DF908C
:10011000CF90BF90AF900895FC01538D448D252F53
:1001200030E0842F90E0821B930B541710F0CF9691
:10013000089501970895FC01918D828D981761F0C3
:10014000A28DAE0FBF2FB11D5D968C91928D9F5FDA
:100150009F73928F90E008958FEF9FEF0895FC01B9
:10016000918D828D981731F0828DE80FF11D858D6C
:1001700090E008958FEF9FEF0895FC01918D228DFF
:10018000892F90E0805C9F4F821B91098F73992784
:1001900008958EEB93E00E94BD0021E0892B09F4C5
:1001A00020E0822F089580E090E0892B29F00E94C2
:1001B000C90081110C9400000895FC01A48DA80FC2
:1001C000B92FB11DA35ABF4F2C91848D90E0019699
:1001D0008F739927848FA689B7892C93A089B189B9
:1001E0008C91837080648C93938D848D981306C05A
:1001F0000288F389E02D80818F7D80830895EF92BE
:10020000FF920F931F93CF93DF93EC0181E0888FD0
:100210009B8D8C8D98131AC0E889F989808185FFA0
:1002200015C09FB7F894EE89FF896083E889F98942
:1002300080818370806480839FBF81E090E0DF9144
:10024000CF911F910F91FF90EF900895F62E0B8D97
:1002500010E00F5F1F4F0F731127E02E8C8D8E1152
:100260000CC00FB607FCFACFE889F989808185FFB9
:10027000F5CFCE010E94DD00F1CFEB8DEC0FFD2F0D
:10028000F11DE35AFF4FF0829FB7F8940B8FEA8974
:10029000FB8980818062CFCFCF93DF93EC01888D83
:1002A0008823B9F0AA89BB89E889F9898C9185FDF1
:1002B00003C0808186FD0DC00FB607FCF7CF8C917F
:1002C00085FFF2CF808185FFEDCFCE010E94DD005A
:1002D000E9CFDF91CF910895FC01DB016D917C9115
:1002E000680F791F4FEF5FEF6E177F0741F1919114
:1002F000292F220F2A7A96959575292B922F990FDF
:10030000990F9C7C269526952373922B9295952781
:10031000892F82958F708927282F30E0942FA9018B
:10032000542F44275295507F84279527A90125E013
:10033000440F551F2A95E1F748275927D5CF9A0131
:10034000220F331F2A7A3A7ACA01B0E0A0E0B695AC
:10035000A7959795879585759575822B932BBC01ED
:10036000660F771F660F771F6C7C7C7CB0E0A0E087
:10037000E2E0B695A79597958795EA95D1F78373AF
:100380009373682B792BCB01F4E0880F991FFA95B2
:10039000E1F7807F907FAB0170E060E0A4E07695AC
:1003A000679557954795AA95D1F74F705F70842B45
:1003B000952B98278927982708957F928F929F924F
:1003C000AF92BF92CF92DF92EF92FF920F931F9363
:1003D000CF93DF93CDB7DEB7C250D1400FB6F894BC
:1003E000DEBF0FBECDBF109257064BE554E0FE01B5
:1003F00031969F017F0195E04B35590739F0DA01BD
:100400009D91AD01D9019D939D01F5CF99819E37B5
:1004100009F077C121E030E0CF5FDE4F39832883D8
:10042000C150D140A9E4B6E0319696E0A735B907AE
:10043000F1F498899093480620E130E0CF5FDE4FD9
:1004400039832883C150D140DE015196ECE5F5E0B7
:1004500000E110E0C82ED12C9601205F3F4F02171B
:10046000130748F48D9181930F5F1F4FF8CF908150
:100470009D93DACF85015801AFEFAA1ABA0ABDEFF2
:10048000AB16B104B8F3CF5FDE4FB982A882C1507A
:10049000D1407724739470925B05BE016F5F7E4FED
:1004A000C7010E946C01982E892EF701EA0DFB1DF1
:1004B0008081891326C1C8010296CF5FDE4F9983E0
:1004C0008883C150D1408E0D9F1DFC018081891110
:1004D00018C1709257060D5F1F4FCF5FDE4F198313
:1004E0000883C150D1408FE291E00E94A507CF5F01
:1004F000DE4F88819981C150D140E80EF91ED701A5
:100500008C918E3709F0FDC01F928F9383E491E0A8
:100510009F938F930E948F078DE491E09F938F9319
:100520000E948F07CF5FDE4F19821882C150D140E1
:100530000F900F900F900F900F900F900AE411E022
:10054000CF5FDE4F88819981C150D1408E309105B7
:10055000E0F4875B994FFC0180811F928F931F937A
:100560000F930E948F07CF5FDE4F88819981C15022
:10057000D1400196CF5FDE4F99838883C150D1402F
:100580000F900F900F900F90DBCF89E591E09F9334
:100590008F930E948F07CF5FDE4F19821882C15060
:1005A000D1400F900F9009E611E0CF5FDE4F8881B8
:1005B0009981C150D140892BF1F4809148061F9256
:1005C0008F931F921F921F930F930E948F07CF5FED
:1005D000DE4F88819981C150D1400196CF5FDE4FB7
:1005E00099838883C150D1400F900F900F900F9046
:1005F0000F900F90DACF89E791E00E94A507CF5FB7
:10060000DE4F19821882C150D1400AE411E0CF5F59
:10061000DE4F88819981C150D1408C159D05E0F451
:10062000845A9A4FDC018C911F928F931F930F93E2
:100630000E948F07CF5FDE4F88819981C150D140E2
:100640000196CF5FDE4F99838883C150D1400F90D0
:100650000F900F900F90DBCF81E891E09F938F93E5
:100660000E948F07CF5FDE4F19821882C150D140A0
:100670000F900F900DEE10E00C191D098AE4E82E82
:1006800081E0F82ECF5FDE4F88819981C150D14043
:1006900080179107C0F41F921F92FF92EF920E9461
:1006A0008F07CF5FDE4F88819981C150D14001967D
:1006B000CF5FDE4F99838883C150D1400F900F9058
:1006C0000F900F90DFCF8EE891E00E94A5078F92E8
:1006D0009F9283E991E09F938F930E948F07C05070
:1006E000DF4F8881C050D1401F928F938FE991E0F6
:1006F0009F938F930E948F070FB6F894DEBF0FBEB3
:10070000CDBFCE5FDE4F0FB6F894DEBF0FBECDBFBC
:10071000DF91CF911F910F91FF90EF90DF90CF90DD
:10072000BF90AF909F908F907F9008958F929F92EF
:10073000AF92BF920F931F93CF93DF93CDB7DEB7E6
:10074000A1970FB6F894DEBF0FBECDBF19A24230FD
:1007500008F44AE08E010F5D1F4F842E912CB12CBE
:10076000A12CA50194010E946707E62FB901CA01D7
:10077000EA3044F5E05DD801EE938D01232B242B64
:10078000252B79F790E080E0109769F0FD0101904A
:100790000020E9F73197AF014A1B5B0BBD018EEBDF
:1007A00093E00E945F00A1960FB6F894DEBF0FBEE3
:1007B000CDBFDF91CF911F910F91BF90AF909F90D0
:1007C0008F900895E95CD7CFFC0101900020E9F7F4
:1007D0003197AF01481B590BBC018EEB93E00C9491
:1007E0005F001F920F920FB60F9211242F933F9329
:1007F0008F939F93AF93BF938091BA039091BB0364
:10080000A091BC03B091BD033091B90323E0230F45
:100810002D3758F50196A11DB11D2093B903809382
:10082000BA039093BB03A093BC03B093BD03809124
:10083000B5039091B603A091B703B091B8030196A8
:10084000A11DB11D8093B5039093B603A093B70388
:10085000B093B803BF91AF919F918F913F912F912A
:100860000F900FBE0F901F90189526E8230F029649
:10087000A11DB11DD2CF1F920F920FB60F9211245E
:100880002F933F934F935F936F937F938F939F9398
:10089000AF93BF93EF93FF938EEB93E00E94DD0045
:1008A000FF91EF91BF91AF919F918F917F916F9148
:1008B0005F914F913F912F910F900FBE0F901F901E
:1008C00018951F920F920FB60F9211242F938F93AA
:1008D0009F93EF93FF93E091CE03F091CF0380813C
:1008E000E091D403F091D50382FD1BC090818091EB
:1008F000D7038F5F8F732091D803821741F0E09167
:10090000D703F0E0E254FC4F958F8093D703FF911B
:10091000EF919F918F912F910F900FBE0F901F908D
:1009200018958081F4CFCF93DF93CDB7DEB7CC5F3E
:10093000D1090FB6F894DEBF0FBECDBF789484B551
:10094000826084BD84B5816084BD85B5826085BDCB
:1009500085B5816085BD80916E00816080936E0059
:10096000109281008091810082608093810080914B
:1009700081008160809381008091800081608093FC
:1009800080008091B10084608093B1008091B000BC
:1009900081608093B00080917A00846080937A00B7
:1009A00080917A00826080937A0080917A008160E1
:1009B00080937A0080917A00806880937A00109208
:1009C000C100E091CE03F091CF0382E08083E091FB
:1009D000CA03F091CB031082E091CC03F091CD03D8
:1009E0008FEC80831092D603E091D203F091D30371
:1009F00086E08083E091D003F091D1038081806113
:100A00008083E091D003F091D1038081886080835E
:100A1000E091D003F091D103808180688083E091E0
:100A2000D003F091D10380818F7D80837E018DEE94
:100A3000E80EF11C47E5642E46E0742E47019EE067
:100A4000890E911C442443942091B403B090B303C5
:100A5000213011F4BB2029F080915B05813009F031
:100A600084C08EE0EFE0F1E0D70101900D928A950D
:100A7000E1F7309057069091C201A0900E01C0900E
:100A8000C40150914806452F429546954770652F01
:100A900070E07595679575956795A62FA370C450FE
:100AA000DF4FA883CC5FD0406FEF640F362F6830E4
:100AB00008F037E08091C301D0905B055524539432
:100AC000530E673008F0512C62E070E010E0E1E076
:100AD000CE1609F48DC0CE1650F0F2E0CF1609F410
:100AE00099C00C2D31C061E070E0C02EF0CF2130F4
:100AF00009F07CC0B1107AC0FE013196A6ECB1E0DD
:100B000021912D93EE15FF05D9F7282F220F2E7076
:100B1000C550DF4F2883CB5FD04001E020E0BB24ED
:100B2000B394A1E0DA1210C0E9E4F6E0D701219015
:100B3000DD902D1096C06E167F06C9F7DD24D39484
:100B4000113011F0D12E02E06130710561F6D092C2
:100B50005B058093C3010093C4019093C201A092EE
:100B60000E01B092B3032093B4038091B30381309C
:100B700009F0B7C08091B2038111B3C080910E011A
:100B80009EE79093B202A0E0B1E02EE031E0E2EB0C
:100B9000F2E031962A173B0709F069C0C550DF4FD4
:100BA000E881CB5FD040E093C102A6ECB1E0E2EC7B
:100BB000F2E000E110E090E040960817190708F411
:100BC00059C0C8018E549D4F5C018AEA68019FEFAD
:100BD000C91AD90A9501225B32402D3F310508F030
:100BE0004EC0F50181935F018601F0CF0C2D99CFA6
:100BF000E1E0DE123AC05523B9F1942F38132DC02D
:100C0000C450DF4FF881CC5FD040832FF23028F5FD
:100C1000852D23C0873018F58F5FA0E29A9FF001E1
:100C20001124AE2FA160C550DF4FA883CB5FD04009
:100C3000A1E03A1639F0AE2FA960C550DF4FA88366
:100C4000CB5FD040F701A0E0B1E0C190CD92E815B4
:100C5000F905D9F7BB24B394A12C00E075CF80E04F
:100C6000DCCF11E0DC2C70CF90E001E06DCF9D91E6
:100C700090838FCF2D9121930F5F1F4F9ECF1A83AB
:100C80000983BE016F5F7F4F82EB92E00E946C018F
:100C9000F5019083F601EE54FD4F8083F801EC548A
:100CA000FD4F8EE780830D5F1F4F1092B30340927C
:100CB000B2038091B2038130E9F492EBC92E92E045
:100CC000D92EC601825B92408017910768F4F60125
:100CD00061916F0170E090E080E040E10E94960336
:100CE000F0CF10E000E0E5CF1092B2038DEA91E082
:100CF0000E94E4038EEB93E00E94BD00892B09F46F
:100D00005DC08CEE80930E010BE514E08BE5A82E00
:100D100085E0B82E68012FB7F8948091BA039091BE
:100D2000BB03A091BC03B091BD032FBF8093C6034A
:100D30009093C703A093C803B093C9038EEB93E0CD
:100D40000E949B0097FF55C02FB7F8948091BA037B
:100D50009091BB03A091BC03B091BD032FBF409104
:100D6000C6035091C7036091C8037091C903841BE7
:100D7000950BA60BB70B4091C2035091C303609132
:100D8000C4037091C50384179507A607B707B0F28F
:100D90004092C50180EB91E00E94E403F80161916B
:100DA0008F0170E090E080E040E10E949603A01681
:100DB000B106A1F78DEA91E00E94E40380915B0502
:100DC000811108C08091C501813021F480910E010C
:100DD0000E94DD011092C50180E090E0892B09F4AA
:100DE00033CE0E94C900882309F42CCE0E94000053
:100DF00029CEF60181936F01FBE5CF16F5E0DF0602
:100E000009F089CFC5CFEEEBF3E01382128288EEB2
:100E100093E0A0E0B0E084839583A683B78381E26A
:100E200091E09183808385EC90E09587848784ECC2
:100E300090E09787868780EC90E0918B808B81ECA7
:100E400090E0938B828B82EC90E0958B848B86EC88
:100E500090E0978B868B118E128E138E148E0895D0
:100E60002F923F924F925F926F927F928F929F92BA
:100E7000AF92BF92CF92DF92EF92FF920F931F93A8
:100E8000CF93DF93CDB7DEB7CA1BDB0B0FB6F89459
:100E9000DEBF0FBECDBF09942A88398848885F8499
:100EA0006E847D848C849B84AA84B984C884DF800A
:100EB000EE80FD800C811B81AA81B981CE0FD11DEE
:100EC0000FB6F894DEBF0FBECDBFED010895A1E2CD
:100ED0001A2EAA1BBB1BFD010DC0AA1FBB1FEE1FB4
:100EE000FF1FA217B307E407F50720F0A21BB30BFF
:100EF000E40BF50B661F771F881F991F1A9469F77B
:100F000060957095809590959B01AC01BD01CF01D6
:100F10000895EE0FFF1F0590F491E02D0994B0E0C5
:100F2000A0E0E5E9F7E00C944007AE014B5F5F4FAE
:100F3000FA0161917191AF0180915A0690915B061F
:100F40000E94D007E2E00C945C070F931F93CF93AD
:100F5000DF93E0915A06F0915B062381EC0110E0EB
:100F600000E021FD08C00FEF1FEF14C00995892B89
:100F700011F00FEF1FEF899160915A0670915B0697
:100F8000DB011896ED91FC918111F0CF8AE0099573
:100F9000892B49F7C801DF91CF911F910F910895D7
:100FA000ABE0B0E0E6EDF7E00C9430077C013B01EC
:100FB0008A01FC0117821682838181FFC8C1CE019C
:100FC00001965C01F7019381F30193FD859193FFF5
:100FD00081913F01882309F453C1853239F493FD8F
:100FE000859193FF81913F01853229F4B70190E00B
:100FF0000E94C009E7CF912C212C312CFFE1F31581
:1010000038F08B3211F190F4803209F1833229F1FA
:1010100037FC3CC020ED280F2A3050F536FE20C0AA
:101020008AE0989E200D1124922E06C08D3291F0F8
:10103000803371F7689430F8F30193FD859193FF45
:1010400081913F018111DACF21C0689431F8689411
:1010500032F8F2CF689433F8EFCF689434F8ECCFDD
:10106000EAE02E9E200D1124222E689435F8E4CF5C
:101070008E3229F436FC04C1689436F8DDCF8C3604
:1010800019F4689437F8D8CF8836B1F2982F9F7D3D
:1010900095549330E0F08336A1F18337C1F1833565
:1010A00009F063C02801F2E04F0E511CF801C08026
:1010B000D180692D70E036FC02C06FEF7FEFC60172
:1010C0000E94AA094C01689437F882010AC00C5F9B
:1010D0001F4FFFE3F98388248394912C6501E894E2
:1010E00037F833FE2DC0522C8114910471F5552030
:1010F00009F468CFB70180E290E00E94C0095A94D9
:10110000F6CFF801808189830E5F1F4FE4CF28015D
:10111000F2E04F0E511CF801C080D180692D70E0C3
:1011200036FC02C06FEF7FEFC6010E94B5094C018B
:101130008201D5CFB70180E290E00E94C0092A94D5
:101140002814190409F0B0F7CECFF60137FC8591C9
:1011500037FE81916F01B70190E00E94C0095110E4
:101160005A94F1E08F1A9108BFCF843619F089366E
:1011700009F077C0F80137FE6BC060817181828110
:1011800093810C5F1F4FF32DFF763F2E97FF09C011
:1011900090958095709561957F4F8F4F9F4F689484
:1011A00037F82AE030E0A5010E94F009C82ECA18DD
:1011B0008C2C432C36FE0CC0E89440F8C91440F443
:1011C00034FE05C032FC03C0F32DFE7E4F2E892C69
:1011D00044FE95C0FE01EC0DF11D8081803309F0C5
:1011E00087C0242D297E422E842D8870582E43FCE2
:1011F00095C040FE8FC09C2C821418F42C0C922CAD
:10120000981844FE91C0B70180E390E00E94C009A5
:1012100042FE09C088E790E041FE02C088E590E008
:10122000B7010E94C009C91408F48AC0CA94D12C1D
:101230009FEFC91AD90ACA0CDB1CF60182916F0113
:10124000B70190E00E94C009AC14BD04B1F74FCFC4
:1012500060817181072E000C880B990B0E5F1F4F68
:1012600092CFD32CE894D4F82AE030E0853739F1D6
:10127000232D297FD22E8F3601F148F48835A9F02D
:10128000F701868197812B96E2E10C944C07803719
:1012900049F08837A9F7D4FE02C06894D2F820E15B
:1012A00030E00DC06894D4F8F6CF34FE03C0822F2E
:1012B0008660D82E20E132E002C028E030E0F8015C
:1012C000D7FE0FC060817181828193810C5F1F4FB7
:1012D000A5010E94F009C82ECA183D2CE89437F8E1
:1012E00067CF6081718190E080E00E5F1F4FF0CF8B
:1012F00042FC02C0839478CF8394839475CF842D6D
:10130000867809F471CFF6CFB70180E290E00E94B1
:10131000C00983948214C0F3512C73CF522C5818F7
:10132000821408F46ECFF8CF842D867809F47BCF31
:101330008BE241FE80E247FC8DE2B70190E071CF85
:10134000B70180E390E00E94C0099A946CCF8FEFC0
:101350009FEF99CFFC010590615070400110D8F7C4
:10136000809590958E0F9F1F0895FC0161507040ED
:1013700001900110D8F7809590958E0F9F1F0895CA
:101380000F931F93CF93DF93182F092FEB018B81BE
:1013900081FD09C01FEF0FEF812F902FDF91CF91BB
:1013A0001F910F91089582FF14C02E813F818C817F
:1013B0009D81281739073CF4E881F981CF01019616
:1013C0009983888310838E819F8101969F838E836A
:1013D000E3CFE885F985812F0995892BA1F3DACF31
:1013E000FA01AA27283051F1203181F1E8946F9356
:1013F0006E7F6E5F7F4F8F4F9F4FAF4FB1E03ED0FC
:10140000B4E03CD0670F781F891F9A1FA11D680F99
:10141000791F8A1F911DA11D6A0F711D811D911DCC
:10142000A11D20D009F468943F912AE0269F112441
:101430003019305D3193DEF6CF010895462F4770A5
:10144000405D4193B3E00FD0C9F7F6CF462F4F7000
:10145000405D4A3318F0495D31FD4052419302D05E
:10146000A9F7EACFB4E0A695979587957795679504
:10147000BA95C9F700976105710508959B01AC0104
:101480000A2E06945795479537952795BA95C9F72B
:10149000620F731F841F951FA01D0895F894FFCF3E
:1014A0004F4E34554C47604F554654493161EC4FCF
:1014B0004E34554C47604F55465449316100000049
:1014C00000FF005F008C004C01BD009B00AF000AD4
:1014D0002A2A7265636569766564206672616D6546
:1014E0002A2A00666C61673D3A202578000A20614F
:1014F0006464726573733A09000A20636F6E7472D4
:101500006F6C20627974650900636F6E74726F6C22
:101510005B25645D3D257809000A20696E666F20B1
:10152000000A2070616464696E673A2009000A4607
:101530004353000A20435243203D2025780A000AE5
:1015400020666C6167203D202578200A000A0A0089
:101550000A205265636569766564204672616D652F
:021560000A007F
:00000001FF
