:100000000C9463000C948B000C948B000C948B006C
:100010000C948B000C948B000C948B000C948B0034
:100020000C948B000C948B000C948B000C948B0024
:100030000C948B000C948B000C948B000C948B0014
:100040000C9425040C948B000C9495040C946F0470
:100050000C948B000C948B000C948B000C948B00F4
:100060000C948B000C948B000A0B0C0D0E0F0000EF
:100070000008000201000003040700000000000067
:10008000000000000000250028002B0000000000F8
:10009000240027002A0004040404040404040202C7
:1000A00002020202030303030303010204081020F7
:1000B0004080010204081020010204081020000101
:1000C00002030405C70411241FBECFEFD8E0DEBF32
:1000D000CDBF25E0A6E3B1E001C01D92A23FB2076B
:1000E000E1F711E0A0E0B1E0EEE0F2E102C005903E
:1000F0000D92A633B107D9F710E0C3E6D0E004C0F3
:100100002197FE010E94F608C236D107C9F70E9466
:100110001B050C9405090C94000090E0FC01E655C9
:10012000FF4F24918A569F4FFC018491882399F0B8
:1001300090E0880F991FFC01E457FF4FA591B491FF
:10014000FC01EE57FF4F859194918FB7F894EC9195
:10015000E22BEC938FBF089590E0FC01E259FF4F32
:100160002491FC01E655FF4F3491FC01EA56FF4F04
:10017000E491EE23C9F0222339F0233001F1A8F4F1
:10018000213019F1223029F1F0E0EE0FFF1FEE5778
:10019000FF4FA591B4918FB7F894EC91611126C0EF
:1001A00030953E233C938FBF08952730A9F0283027
:1001B000C9F0243049F7809180008F7D03C0809181
:1001C00080008F7780938000DFCF84B58F7784BDE8
:1001D000DBCF84B58F7DFBCF8091B0008F7780938C
:1001E000B000D2CF8091B0008F7DF9CF3E2BDACF17
:1001F000682F8091D6050E94AC008091EE05909109
:10020000EF058230910538F0880F991F880F991FEC
:1002100005970197F1F7089581E00C94F80020917B
:10022000D4053091D5054091D6055091D7052417B6
:10023000350721F0682F822F0C94AC0008953FB74A
:10024000F89480911E0490911F04A0912004B09115
:10025000210426B5A89B05C02F3F19F00196A11DCA
:10026000B11D3FBFBA2FA92F982F8827BC01CD0100
:10027000620F711D811D911D42E0660F771F881F5F
:10028000991F4A95D1F70895AF92BF92CF92DF920E
:10029000EF92FF920F931F93CF93DF936C017B013B
:1002A0008B01040F151FEB015E01AE18BF08C017CC
:1002B000D10759F06991D601ED91FC910190F0813F
:1002C000E02DC6010995892B79F7C501DF91CF9102
:1002D0001F910F91FF90EF90DF90CF90BF90AF9064
:1002E0000895FC01538D448D252F30E0842F90E03C
:1002F000821B930B541710F0CF9608950197089521
:10030000FC01918D828D981761F0A28DAE0FBF2FE9
:10031000B11D5D968C91928D9F5F9F73928F90E03F
:1003200008958FEF9FEF0895FC01918D828D9817AE
:1003300031F0828DE80FF11D858D90E008958FEFEB
:100340009FEF0895FC01918D228D892F90E0805CB4
:100350009F4F821B91098F739927089584E395E03D
:100360000E94A20121E0892B09F420E0822F089548
:1003700080E090E0892B29F00E94AE0181110C945D
:1003800000000895FC01A48DA80FB92FB11DA35A38
:10039000BF4F2C91848D90E001968F739927848FA5
:1003A000A689B7892C93A089B1898C9183708064C8
:1003B0008C93938D848D981306C00288F389E02D69
:1003C00080818F7D80830895EF92FF920F931F931A
:1003D000CF93DF93EC0181E0888F9B8D8C8D9813F8
:1003E0001AC0E889F989808185FF15C09FB7F89404
:1003F000EE89FF896083E889F98980818370806450
:1004000080839FBF81E090E0DF91CF911F910F919A
:10041000FF90EF900895F62E0B8D10E00F5F1F4FA9
:100420000F731127E02E8C8D8E110CC00FB607FCB8
:10043000FACFE889F989808185FFF5CFCE010E9446
:10044000C201F1CFEB8DEC0FFD2FF11DE35AFF4FF1
:10045000F0829FB7F8940B8FEA89FB8980818062D4
:10046000CFCFCF93DF93EC01888D8823B9F0AA8991
:10047000BB89E889F9898C9185FD03C0808186FD5F
:100480000DC00FB607FCF7CF8C9185FFF2CF8081AE
:1004900085FFEDCFCE010E94C201E9CFDF91CF9160
:1004A00008958EBD00000DB407FEFDCF8EB50895F2
:1004B000FC019081973018F49F5F9083089510821B
:1004C0000895FC01DB016D917C91680F791F4FEF5E
:1004D0005FEF6E177F0741F19191292F220F2A7A42
:1004E00096959575292B922F990F990F9C7C26959F
:1004F00026952373922B92959527892F82958F703D
:100500008927282F30E0942FA901542F4427529592
:10051000507F84279527A90125E0440F551F2A9570
:10052000E1F748275927D5CF9A01220F331F2A7A9E
:100530003A7ACA01B0E0A0E0B695A795979587955D
:1005400085759575822B932BBC01660F771F660FFF
:10055000771F6C7C7C7CB0E0A0E0E2E0B695A795CC
:1005600097958795EA95D1F783739373682B792BC9
:10057000CB01F4E0880F991FFA95E1F7807F907F17
:10058000AB0170E060E0A4E07695679557954795DC
:10059000AA95D1F74F705F70842B952B98278927E8
:1005A00098270895BF92CF92DF92EF92FF920F9318
:1005B0001F93CF93DF93CDB7DEB7C250D1400FB6B4
:1005C000F894DEBF0FBECDBF1092330542E254E077
:1005D000FE0131969F016F0195E04232590739F0D3
:1005E000DA019D91AD01D9019D939D01F5CF9981CE
:1005F0009E3709F062C021E030E0CF5FDE4F3983E3
:100600002883C150D140A5E2B5E023E335E031961F
:100610002A173B0769F498899093240500E110E0BC
:1006200090E040960817190738F40F5F1F4FFACF74
:1006300090819D93ECCF87017801BFEFEB1AFB0A05
:10064000EDEFEE16F104B8F3CF5FDE4FF982E882EA
:10065000C150D140BB24B394B0922305109222051F
:10066000BE016F5F7E4FC6010E946102F601EE0D72
:10067000FF1D2081291310C00E5F1F4FCF5FDE4F7B
:1006800019830883C150D1400C0D1D1DD8019C91C8
:10069000981302C0B0923305CE5FDE4F0FB6F894C8
:1006A000DEBF0FBECDBFDF91CF911F910F91FF90A5
:1006B000EF90DF90CF90BF90089510922205ECCF7D
:1006C0000F931F930091D8051091D9052091DA0559
:1006D0003091DB0540E052E16AE770E080E004170A
:1006E00015072607370740F4769567955795479580
:1006F0008F5F8630A1F787E0982F906A9695809556
:1007000081709CBD8DBD80E01F910F910C94F8000D
:10071000CF93C82F0E9460038C2F80620E945102E9
:100720008093DC05CF910C940C01CF93C82F0E94CD
:1007300060038C2F0E9451028093DC058FEF0E9492
:100740005102C82F0E940C018C2FCF910895FF9267
:100750000F931F93CF93DF93C82FF62E072F142FDD
:100760000E9460038C2F80620E9451028093DC05FE
:10077000CF2DD02F115020F089910E945102FACF35
:10078000DF91CF911F910F91FF900C940C010E946B
:10079000600380E50E9451028093DC0583E70E949C
:1007A00051020C940C01CF93DF93D82FC62F0E94D7
:1007B00060038D2F80620E9451028093DC058C2F94
:1007C0000E945102DF91CF910C940C0180E00E94B5
:1007D0000F018091EA059091EB058230910538F088
:1007E000880F991F880F991F05970197F1F780913E
:1007F000E605882319F081EE0E9488036091E305E5
:100800006E7F6093E30580E00E94D30382E00E9444
:100810009503EEEBF0E0E49161E070E001C0660F5B
:10082000EA95EAF7682B82E00C94D3036091E30524
:1008300061FD0AC062606093E30580E00E94D3031B
:100840008BE19EE40197F1F708951F920F920FB686
:100850000F9211242F933F938F939F93AF93BF9346
:1008600080911A0490911B04A0911C04B0911D0466
:100870003091190423E0230F2D3758F50196A11D5F
:10088000B11D2093190480931A0490931B04A09324
:100890001C04B0931D0480911E0490911F04A0912C
:1008A0002004B09121040196A11DB11D80931E0466
:1008B00090931F04A0932004B0932104BF91AF91A3
:1008C0009F918F913F912F910F900FBE0F901F908E
:1008D000189526E8230F0296A11DB11DD2CF1F92B5
:1008E0000F920FB60F9211242F933F934F935F9364
:1008F0006F937F938F939F93AF93BF93EF93FF93E8
:1009000084E395E00E94C201FF91EF91BF91AF9106
:100910009F918F917F916F915F914F913F912F9117
:100920000F900FBE0F901F9018951F920F920FB649
:100930000F9211242F938F939F93EF93FF93E09146
:100940004405F09145058081E0914A05F0914B0501
:1009500082FD1BC0908180914D058F5F8F73209128
:100960004E05821741F0E0914D05F0E0EC5CFA4F46
:10097000958F80934D05FF91EF919F918F912F91CE
:100980000F900FBE0F901F9018958081F4CFE4E375
:10099000F5E01382128288EE93E0A0E0B0E0848359
:1009A0009583A683B78388E291E09183808385EC69
:1009B00090E09587848784EC90E09787868780EC29
:1009C00090E0918B808B81EC90E0938B828B82EC1A
:1009D00090E0958B848B86EC90E0978B868B118EC4
:1009E000128E138E148EE2EDF5E089E090E0938391
:1009F000828388E090E09583848380E896E9A8E983
:100A0000B0E086839783A087B18780E28387128ACC
:100A1000138A85E0858B81E0868B85E090E0A0E0FD
:100A2000B0E0848F958FA68FB78F81ED95E091838D
:100A3000808314860895CF93DF93CDB7DEB72E97CA
:100A40000FB6F894DEBF0FBECDBF789484B5826038
:100A500084BD84B5816084BD85B5826085BD85B562
:100A6000816085BD80916E00816080936E001092E0
:100A7000810080918100826080938100809181005B
:100A800081608093810080918000816080938000EC
:100A90008091B10084608093B1008091B00081604A
:100AA0008093B00080917A00846080937A00809176
:100AB0007A00826080937A0080917A0081608093CE
:100AC0007A0080917A00806880937A001092C10049
:100AD0000FB7F89480913601811124C0E0EAF0E06C
:100AE0008491E4EBF0E09491E82FF0E0EE0FFF1F2B
:100AF000E457FF4FA591B491EC91E92321F461E013
:100B00008AE00E94AC008AE00E948D008CB5806172
:100B10008CBD8CB580648CBD8DE00E948D008BE017
:100B20000E948D00809136018F5F809336010FBF48
:100B30008091D4059091D5058F3F980709F4A2C004
:100B40002091D6053091D7052F3F320709F49AC07E
:100B50008217930731F00E948D008091D6050E9484
:100B60008D0080E00E940F0181E00E94F8000E9449
:100B70001F014B015C01E5E0CE2ED12CE12CF12CC4
:100B80000E941F01681979098A099B09683E734010
:100B900081059105A8F381E0C81AD108E108F108A0
:100BA00098EE890E93E0991EA11CB11CC114D104CA
:100BB000E104F10429F76FE584E00E94D30385E5A1
:100BC00090E0A0E0B0E08093EA059093EB05A0935D
:100BD000EC05B093ED0567E086E00E94D3038DE15C
:100BE0000E949503082F0E94C7038DE10E94950380
:100BF00091E0081390E09093E405882341F00813F6
:100C000002C00E94C70360E08DE10E94D3031092EE
:100C1000E60560E08CE10E94D3031092E8056FE3E3
:100C200081E00E94D30363E082E00E94D30380E26C
:100C30008093DD0501E16091DD05802F0E94D303E3
:100C40000F5F0731C1F763E083E00E94D30385E0C3
:100C50008093E7056CE40E94D30360E787E00E947D
:100C6000D30382EE0E94880381EE0E9488036CE029
:100C700080E00E94D30380E00E9495038093E30507
:100C80000E9416044091E7056EE171E08AE00E943F
:100C9000A7034091E7056EE171E080E10E94A703A0
:100CA0004091E70550E06EE171E08EED95E00E9425
:100CB000FC0881E08093E505E8E6F0E0849140914E
:100CC000E7056EE171E00E94A70382E00E949503B0
:100CD000EEEBF0E0949161E070E001C0660F9A9550
:100CE000EAF7682B82E00E94D3030E94E603E091BA
:100CF0004405F091450582E08083E0914005F09144
:100D000041051082E0914205F09143058FEC80830C
:100D100010924C05E0914805F091490586E08083EA
:100D2000E0914605F0914705808180618083E091E4
:100D30004605F0914705808188608083E0914605F3
:100D4000F0914705808180688083E0914605F091AD
:100D5000470580818F7D808380911704811113C0A6
:100D600080910001882361F080913701EBE2F3E08C
:100D70009CEE980F81938F5F9813FCCF909337016F
:100D800081E0809317045E01FFE0AF0EB11C2224C6
:100D90002394312C60E0862E60E0962E01E0809155
:100DA00018048130C1F480911704811112C0809120
:100DB0000001882361F080913701EBE2F3E09CEEC3
:100DC000980F81938F5F9813FCCF90933701009316
:100DD00017041092180490911704913021F4809117
:100DE0002A03882321F080912305813099F48EE035
:100DF000E0E1F1E0DE01119601900D928A95E1F7B4
:100E000080913C01813009F49DC008F43FC08230DC
:100E100009F4DDC080912A03813009F027C1809157
:100E20002903811123C180910F01FEE7F09329026C
:100E3000A1E0B1E0E9E2F2E0319621E0AF30B207A3
:100E400009F0F3C010933802ADE3B1E0E9E3F2E05A
:100E500090E1E92EF12C90E04096E816F90608F4AE
:100E6000E7C0C701875D9D4F3C0167014FEFC41A82
:100E7000D40AC301895292408D3F910508F0DEC02B
:100E8000F3012AEA21933F017601EFCF913001F57A
:100E900080912A0381111CC0EBE2F3E0ADE3B1E0E5
:100EA00081918D9387E194E08E179F07C9F7109287
:100EB000170400932A0310913B01110F1E708091BB
:100EC0003A01E0E28E9FC0011124182B00933C01EF
:100ED00020912305213009F09DCFE5E2F5E0DE0108
:100EE000119691918D919817C1F010922305309130
:100EF0002405832F90E030FD1CC095958795877061
:100F000090913A0189130FC000933901213009F4FF
:100F100081CF82E080933C017DCF45E0E333F4074D
:100F200001F720E0E4CF1092390192E090933C0168
:100F300071CF213009F46ECF80913901813009F0F1
:100F400069CFE7CF80912305813009F063CF80918D
:100F5000240580FF24C0982F9370913001F5282F2D
:100F600030E03595279535952795237082958695A0
:100F700087708150883008F087E090913B01891399
:100F800011C0223078F400930001109238018BE3F5
:100F900091E00E94580210923C01009318041092B4
:100FA000230538CF1092000180913801823059F426
:100FB00000930001109217048BE391E00E94580205
:100FC00010923801E8CF8F5F80933801E4CF109200
:100FD000230510913A018BE391E00E945802E0E270
:100FE0001E9FC0011124182F11608091330581309C
:100FF000D1F4809139018130B1F48AE391E00E940B
:1010000058021092390110920F01FE013196A1E0B1
:10101000B1E081918D93EA15FB05D9F700932A037E
:1010200010923C01F7CE1860EECF9D91908304CFD3
:101030002D9121932FEFE21AF20A0FCFFA82E98263
:10104000BE016F5F7F4F89E292E00E946102F3016F
:101050009083F601E75DFD4F8083F701E55DFD4F6D
:101060002EE7208310922A030093290380912903FD
:10107000813009F080C00E94E60389E2E82E82E018
:10108000F82E8091E805D12CCC24C394811108C09E
:10109000D090DD05CD2CDD2011F0CC24C394DC18DC
:1010A0000E94600380EA0E9451028093DC05CC20FC
:1010B00021F0F70180810E945102DA94FFEF80E075
:1010C000DF12F9CF0E940C0181E00E940F018FB75F
:1010D000F89440901A0450901B0460901C04709087
:1010E0001D048FBF8FEF0E9488038091DC05807301
:1010F00009F059C02FB7F89480911A0490911B04FD
:10110000A0911C04B0911D042FBF84199509A60954
:10111000B70980369105A105B10520F30093E905D3
:1011200083E290E00197F1F72FEFE21AF20A49E229
:10113000E41643E0F40609F0A4CF109229030E94BC
:1011400016046091E30561606093E30580E00E940E
:10115000D30360E787E00E94D30381E00E940F0180
:101160008091E505882371F14091E7056EED75E00A
:101170008AE00E94A70380912305811108C0809115
:101180002205813021F480910F010E94D202811446
:10119000910409F404CE0E94AE01882309F4FECD27
:1011A0000E940000F7CD80E00E940F0160E787E019
:1011B0000E94D3038091DC0584FFB2CF81EE0E94B0
:1011C0008803AECF82E00E949503EEEBF0E09491AD
:1011D000910101C0220F9A95EAF72095622F6823AA
:1011E00082E00E94D3031092E505C5CFEE0FFF1FEA
:1011F0000590F491E02D0994FB01DC0102C00190FF
:0E1200000D9241505040D8F70895F894FFCF5A
:10120E00014F4E34554C47604F554654493161ECB1
:10121E004F4E34554C47604F55465449316130302E
:10122E003030310000000000E40144017101310250
:06123E00A20180019401F1
:00000001FF
