:100000000C9435000C945D000C945D000C945D0024
:100010000C945D000C945D000C945D000C945D00EC
:100020000C945D000C945D000C945D000C945D00DC
:100030000C945D000C945D000C945D000C945D00CC
:100040000C94FF030C945D000C946F040C94490411
:100050000C945D000C945D000C945D000C945D00AC
:100060000C945D000C945D00530711241FBECFEF6C
:10007000D8E0DEBFCDBF26E0A8E4B2E001C01D920B
:10008000A53EB207E1F712E0A0E0B1E0ECEFF4E149
:1000900002C005900D92A834B107D9F710E0C5E36E
:1000A000D0E004C02197FE010E94B707C433D107F6
:1000B000C9F70E94A1040C947C0A0C9400003FB77D
:1000C000F8948091400490914104A0914204B09131
:1000D000430426B5A89B05C02F3F19F00196A11D2A
:1000E000B11D3FBFBA2FA92F982F8827BC01CD0182
:1000F000620F711D811D911D42E0660F771F881FE1
:10010000991F4A95D1F708958F929F92AF92BF920F
:10011000CF92DF92EF92FF920E945F004B015C0151
:1001200084E6C82ED12CE12CF12C0E945F006819C6
:1001300079098A099B09683E734081059105A8F3F6
:1001400021E0C21AD108E108F10888EE880E83E0A8
:10015000981EA11CB11CC114D104E104F10429F7BB
:10016000FF90EF90DF90CF90BF90AF909F908F90D7
:100170000895AF92BF92CF92DF92EF92FF920F93CA
:100180001F93CF93DF936C017B018B01040F151F2D
:10019000EB015E01AE18BF08C017D10759F0699195
:1001A000D601ED91FC910190F081E02DC6010995F9
:1001B000892B79F7C501DF91CF911F910F91FF90A6
:1001C000EF90DF90CF90BF90AF900895FC01538DDA
:1001D000448D252F30E0842F90E0821B930B541721
:1001E00010F0CF96089501970895FC01918D828DAE
:1001F000981761F0A28DAE0FBF2FB11D5D968C9147
:10020000928D9F5F9F73928F90E008958FEF9FEF85
:100210000895FC01918D828D981731F0828DE80F41
:10022000F11D858D90E008958FEF9FEF0895FC01FB
:10023000918D228D892F90E0805C9F4F821B9109C8
:100240008F739927089582E496E00E94170121E0B8
:10025000892B09F420E0822F089580E090E0892B1B
:1002600029F00E94230181110C9400000895FC01E3
:10027000A48DA80FB92FB11DA35ABF4F2C91848D07
:1002800090E001968F739927848FA689B7892C9364
:10029000A089B1898C91837080648C93938D848DB7
:1002A000981306C00288F389E02D80818F7D8083BA
:1002B0000895EF92FF920F931F93CF93DF93EC017A
:1002C00081E0888F9B8D8C8D98131AC0E889F989FD
:1002D000808185FF15C09FB7F894EE89FF89608300
:1002E000E889F98980818370806480839FBF81E081
:1002F00090E0DF91CF911F910F91FF90EF900895C3
:10030000F62E0B8D10E00F5F1F4F0F731127E02E9D
:100310008C8D8E110CC00FB607FCFACFE889F989D5
:10032000808185FFF5CFCE010E943701F1CFEB8DA3
:10033000EC0FFD2FF11DE35AFF4FF0829FB7F894A9
:100340000B8FEA89FB8980818062CFCFCF93DF93C7
:10035000EC01888D8823B9F0AA89BB89E889F989DD
:100360008C9185FD03C0808186FD0DC00FB607FC12
:10037000F7CF8C9185FFF2CF808185FFEDCFCE0145
:100380000E943701E9CFDF91CF910895FC01DB0195
:100390006D917C91680F791F4FEF5FEF6E177F07AC
:1003A00041F19191292F220F2A7A96959575292B43
:1003B000922F990F990F9C7C269526952373922B4B
:1003C00092959527892F82958F708927282F30E065
:1003D000942FA901542F44275295507F84279527A5
:1003E000A90125E0440F551F2A95E1F74827592711
:1003F000D5CF9A01220F331F2A7A3A7ACA01B0E088
:10040000A0E0B695A7959795879585759575822BEC
:10041000932BBC01660F771F660F771F6C7C7C7C6B
:10042000B0E0A0E0E2E0B695A79597958795EA95AC
:10043000D1F783739373682B792BCB01F4E0880F8A
:10044000991FFA95E1F7807F907FAB0170E060E043
:10045000A4E07695679557954795AA95D1F74F7083
:100460005F70842B952B9827892798270895FC0186
:1004700001900020E9F73197AF01481B590BBC01EF
:1004800082E496E00C94B9007F928F929F92AF9293
:10049000BF92CF92DF92EF92FF920F931F93CF9371
:1004A000DF93CDB7DEB7C250D1400FB6F894DEBFB0
:1004B0000FBECDBF1092410644E454E0FE013196D8
:1004C0009F017F0195E04434590739F0DA019D918D
:1004D000AD01D9019D939D01F5CF99819E3709F01A
:1004E00079C121E030E0CF5FDE4F39832883C150EE
:1004F000D140A3E3B6E0319696E0A134B907F1F418
:1005000098899093320620E130E0CF5FDE4F398347
:100510002883C150D140DE015196E6E4F5E000E1C8
:1005200010E0C82ED12C9601205F3F4F0217130711
:1005300048F48D9181930F5F1F4FF8CF90819D9369
:10054000DACF85015801AFEFAA1ABA0ABDEFAB1690
:10055000B104B8F3CF5FDE4FB982A882C150D14059
:10056000772473947092450510924405BE016F5F25
:100570007E4FC7010E94C601982E892EF701EA0D11
:10058000FB1D8081891326C1C8010296CF5FDE4F13
:1005900099838883C150D1408E0D9F1DFC018081BD
:1005A000891118C1709241060D5F1F4FCF5FDE4F5A
:1005B00019830883C150D1408FE291E00E94D30794
:1005C000CF5FDE4F88819981C150D140E80EF91E7E
:1005D000D7018C918E3709F0FDC01F928F9383E471
:1005E00091E09F938F930E94BD078DE491E09F93CC
:1005F0008F930E94BD07CF5FDE4F19821882C150D2
:10060000D1400F900F900F900F900F900F900AE431
:1006100011E0CF5FDE4F88819981C150D1408E308B
:100620009105E0F48D5C994FFC0180811F928F93BE
:100630001F930F930E94BD07CF5FDE4F8881998182
:10064000C150D1400196CF5FDE4F99838883C1505E
:10065000D1400F900F900F900F90DBCF89E591E084
:100660009F938F930E94BD07CF5FDE4F1982188240
:10067000C150D1400F900F9009E611E0CF5FDE4FDF
:1006800088819981C150D140892BF1F48091320643
:100690001F928F931F921F921F930F930E94BD076B
:1006A000CF5FDE4F88819981C150D1400196CF5FE5
:1006B000DE4F99838883C150D1400F900F900F90E7
:1006C0000F900F900F90DACF89E791E00E94D30747
:1006D000CF5FDE4F19821882C150D1400AE411E089
:1006E000CF5FDE4F88819981C150D1408C159D0527
:1006F000E0F48A5B9A4FDC018C911F928F931F93D9
:100700000F930E94BD07CF5FDE4F88819981C15052
:10071000D1400196CF5FDE4F99838883C150D1408D
:100720000F900F900F900F90DBCF81E891E09F9397
:100730008F930E94BD07CF5FDE4F19821882C15090
:10074000D1400F900F900DEE10E00C191D098AE4B6
:10075000E82E81E0F82ECF5FDE4F88819981C1506D
:10076000D14080179107C0F41F921F92FF92EF9221
:100770000E94BD07CF5FDE4F88819981C150D14073
:100780000196CF5FDE4F99838883C150D1400F908F
:100790000F900F900F90DFCF8EE891E00E94D3076B
:1007A0008F929F9283E991E09F938F930E94BD0760
:1007B000C050DF4F8881C050D1401F928F938FE986
:1007C00091E09F938F930E94BD070FB6F894DEBF10
:1007D0000FBECDBFCE5FDE4F0FB6F894DEBF0FBEAB
:1007E000CDBFDF91CF911F910F91FF90EF90DF90E0
:1007F000CF90BF90AF909F908F907F9008951F9261
:100800000F920FB60F9211242F933F938F939F93C4
:10081000AF93BF9380913C0490913D04A0913E041E
:10082000B0913F0430913B0423E0230F2D3758F55E
:100830000196A11DB11D20933B0480933C0490932D
:100840003D04A0933E04B0933F04809140049091F6
:100850004104A0914204B09143040196A11DB11D31
:100860008093400490934104A0934204B0934304C6
:10087000BF91AF919F918F913F912F910F900FBE9C
:100880000F901F90189526E8230F0296A11DB11D09
:10089000D2CF1F920F920FB60F9211242F933F9336
:1008A0004F935F936F937F938F939F93AF93BF9378
:1008B000EF93FF9382E496E00E943701FF91EF915E
:1008C000BF91AF919F918F917F916F915F914F9168
:1008D0003F912F910F900FBE0F901F9018951F9270
:1008E0000F920FB60F9211242F938F939F93EF9334
:1008F000FF93E0915206F09153068081E0915806F3
:10090000F091590682FD1BC0908180915B068F5F3C
:100910008F7320915C06821741F0E0915B06F0E056
:10092000EE5BF94F958F80935B06FF91EF919F915E
:100930008F912F910F900FBE0F901F90189580816F
:10094000F4CFCF93DF93CDB7DEB7CA5FD1090FB62F
:10095000F894DEBF0FBECDBF789484B5826084BDAD
:1009600084B5816084BD85B5826085BD85B58160B3
:1009700085BD80916E00816080936E001092810031
:1009800080918100826080938100809181008160EC
:1009900080938100809180008160809380008091AD
:1009A000B10084608093B1008091B0008160809339
:1009B000B00080917A00846080937A0080917A0000
:1009C000826080937A0080917A00816080937A00BF
:1009D00080917A00806880937A001092C100E09143
:1009E0005206F091530682E08083E0914E06F0912A
:1009F0004F061082E0915006F09151068FEC8083F3
:100A000010925A06E0915606F091570686E08083D0
:100A1000E0915406F0915506808180618083E091D9
:100A20005406F0915506808188608083E0915406D9
:100A3000F0915506808180688083E0915406F091A2
:100A4000550680818F7D808380913904811109C092
:100A5000EDE4F3E081938F5F8C3EE1F781E08093DA
:100A600039047E012DEEE20EF11C61E4262E66E0D3
:100A7000362E7EE0672E71E0772E5524539450E099
:100A8000852E50E0952E0E94840080913A0481309A
:100A900071F480913904811108C0EDE4F3E0819391
:100AA0008F5F8C3EE1F75092390410923A048091A6
:100AB0003904813021F480914C03882321F0809106
:100AC00045058130B1F48DEA91E00E9437028EE055
:100AD000EFE0F1E0D70101900D928A95E1F7809166
:100AE0004A02813009F47EC008F441C0823009F422
:100AF000B5C080914C03813009F040C180914B0317
:100B000081113CC186E092E00E94370280910E0183
:100B10009EE790934B02A0E0B1E0EBE4F2E0319667
:100B20006A167B0609F0CBC040925A02ADE4B3E0EE
:100B3000EBE5F2E000E110E090E0409608171907BD
:100B400008F4C0C0C801855B9D4F5C0168019FEF40
:100B5000C91AD90AC5018B5492408D3F910508F0FE
:100B6000B6C0F5012AEA21935F018601EFCF80919B
:100B700039048130E9F480914C03811119C08AEB6A
:100B800091E00E943702FE013196ADE4B3E081911D
:100B90008D93EE15FF05D9F71092390450924C034E
:100BA00040904902440C842D8E70482E50924A0287
:100BB00080914505813009F09CCF89EC91E00E943D
:100BC0003702E3E3F6E0D70191918D91981719F080
:100BD000109245058ECF2E163F06B1F792E0909306
:100BE0004A0287CF80914505813009F082CF88ED98
:100BF00091E00E94370210913206111107C085EE74
:100C000091E00E94370210924802E2CF8FEE91E00D
:100C10000E943702812F82958695877080934802C3
:100C2000209149028150883008F087E028130EC0D7
:100C3000812F90E095958795959587958370823063
:100C400028F4273041F02F5F2093490210924A0286
:100C500050923A04BDCF10924902F8CF89EF91E04B
:100C60000E9437021092450580914902873020F595
:100C70008F5F8093490280914802E0E28E9FC0011D
:100C80001124482E689440F820914106213019F033
:100C9000F82FF9604F2E10920E01F701A0E0B1E09D
:100CA000C7010E9621912D93E817F907D9F75092B5
:100CB0004C0310924A021DCF10924902DCCF9D9145
:100CC00090832DCF2D9121930F5F1F4F37CF1A8324
:100CD0000983BE016F5F7F4F8BE492E00E94C601E3
:100CE000F5019083F601E55BFD4F8083F801E35B3E
:100CF000FD4F8EE780830D5F1F4F10924C03509283
:100D00004B0380914B03813009F043C03BE4C32E79
:100D100032E0D32EC6018B5492408017910798F58C
:100D2000F60181916F0190E0B0E0A0E019A2FE0110
:100D3000B196AC01BD014F7055276627772724E097
:100D4000B695A795979587952A95D1F74A30CCF413
:100D5000405D42930097A105B10559F73097D1F254
:100D6000DF010D900020E9F71197AD014E1B5F0BDD
:100D7000BF0182E496E00E94B900CCCF10E000E011
:100D8000C0CF495CE6CF10924B0384E192E00E9411
:100D900037028091440581115DC082E496E00E9493
:100DA0001701892B09F456C08CEE80930E0187E160
:100DB00092E00E94370204E414E02FB7F894809187
:100DC0003C0490913D04A0913E04B0913F042FBF9C
:100DD00080934A0690934B06A0934C06B0934D0621
:100DE00082E496E00E94F50097FF54C02FB7F89474
:100DF00080913C0490913D04A0913E04B0913F0449
:100E00002FBF40914A0650914B0660914C0670915D
:100E10004D06841B950BA60BB70B409146065091CF
:100E20004706609148067091490684179507A60702
:100E3000B707B0F282E496E00E94A6010E94840007
:100E4000509244058CE292E00E94370282E496E0E0
:100E50000E94A60180914505811110C08091440532
:100E6000813061F48EE392E00E94370282E496E0E2
:100E70000E94A60180910E010E94440281149104F7
:100E800009F401CE0E942301882309F4F6CD0E94C3
:100E90000000F3CDF80181938F01F5E004341F07C2
:100EA00009F08BCFC7CFE2E4F6E01382128288EE1E
:100EB00093E0A0E0B0E084839583A683B78381E2CA
:100EC00091E09183808385EC90E09587848784EC22
:100ED00090E09787868780EC90E0918B808B81EC07
:100EE00090E0938B828B82EC90E0958B848B86ECE8
:100EF00090E0978B868B118E128E138E148E089530
:100F00002F923F924F925F926F927F928F929F9219
:100F1000AF92BF92CF92DF92EF92FF920F931F9307
:100F2000CF93DF93CDB7DEB7CA1BDB0B0FB6F894B8
:100F3000DEBF0FBECDBF09942A88398848885F84F8
:100F40006E847D848C849B84AA84B984C884DF8069
:100F5000EE80FD800C811B81AA81B981CE0FD11D4D
:100F60000FB6F894DEBF0FBECDBFED010895EE0FB2
:100F7000FF1F0590F491E02D0994B0E0A0E0E3ECB0
:100F8000F7E00C949007AE014B5F5F4FFA0161915F
:100F90007191AF018091E1069091E2060E94FE07F7
:100FA000E2E00C94AC070F931F93CF93DF93E09193
:100FB000E106F091E2062381EC0110E000E021FD62
:100FC00008C00FEF1FEF14C00995892B11F00FEF28
:100FD0001FEF89916091E1067091E206DB0118969E
:100FE000ED91FC918111F0CF8AE00995892B49F7A9
:100FF000C801DF91CF911F910F910895ABE0B0E050
:10100000E4E0F8E00C9480077C013B018A01FC01DC
:1010100017821682838181FFC8C1CE0101965C01CF
:10102000F7019381F30193FD859193FF81913F0136
:10103000882309F453C1853239F493FD859193FFD8
:1010400081913F01853229F4B70190E00E94EE09B9
:10105000E7CF912C212C312CFFE1F31538F08B32A6
:1010600011F190F4803209F1833229F137FC3CC050
:1010700020ED280F2A3050F536FE20C08AE0989ED9
:10108000200D1124922E06C08D3291F0803371F71D
:10109000689430F8F30193FD859193FF81913F01AE
:1010A0008111DACF21C0689431F8689432F8F2CF18
:1010B000689433F8EFCF689434F8ECCFEAE02E9ED2
:1010C000200D1124222E689435F8E4CF8E3229F4B5
:1010D00036FC04C1689436F8DDCF8C3619F4689478
:1010E00037F8D8CF8836B1F2982F9F7D955493303A
:1010F000E0F08336A1F18337C1F1833509F063C095
:101100002801F2E04F0E511CF801C080D180692DFA
:1011100070E036FC02C06FEF7FEFC6010E94D80975
:101120004C01689437F882010AC00C5F1F4FFFE33F
:10113000F98388248394912C6501E89437F833FE71
:101140002DC0522C8114910471F5552009F468CFFB
:10115000B70180E290E00E94EE095A94F6CFF801C0
:10116000808189830E5F1F4FE4CF2801F2E04F0E8C
:10117000511CF801C080D180692D70E036FC02C09E
:101180006FEF7FEFC6010E94E3094C018201D5CFCA
:10119000B70180E290E00E94EE092A942814190415
:1011A00009F0B0F7CECFF60137FC859137FE81917B
:1011B0006F01B70190E00E94EE0951105A94F1E0DE
:1011C0008F1A9108BFCF843619F0893609F077C09D
:1011D000F80137FE6BC060817181828193810C5F61
:1011E0001F4FF32DFF763F2E97FF09C090958095F6
:1011F000709561957F4F8F4F9F4F689437F82AE025
:1012000030E0A5010E941E0AC82ECA188C2C432C5F
:1012100036FE0CC0E89440F8C91440F434FE05C012
:1012200032FC03C0F32DFE7E4F2E892C44FE95C068
:10123000FE01EC0DF11D8081803309F087C0242D63
:10124000297E422E842D8870582E43FC95C040FE86
:101250008FC09C2C821418F42C0C922C981844FEED
:1012600091C0B70180E390E00E94EE0942FE09C000
:1012700088E790E041FE02C088E590E0B7010E9457
:10128000EE09C91408F48AC0CA94D12C9FEFC91A78
:10129000D90ACA0CDB1CF60182916F01B70190E0FC
:1012A0000E94EE09AC14BD04B1F74FCF608171818B
:1012B000072E000C880B990B0E5F1F4F92CFD32C7B
:1012C000E894D4F82AE030E0853739F1232D297FDE
:1012D000D22E8F3601F148F48835A9F0F7018681C6
:1012E00097812B96E2E10C949C07803749F0883770
:1012F000A9F7D4FE02C06894D2F820E130E00DC016
:101300006894D4F8F6CF34FE03C0822F8660D82EBE
:1013100020E132E002C028E030E0F801D7FE0FC043
:1013200060817181828193810C5F1F4FA5010E94B2
:101330001E0AC82ECA183D2CE89437F867CF608182
:10134000718190E080E00E5F1F4FF0CF42FC02C041
:10135000839478CF8394839475CF842D867809F411
:1013600071CFF6CFB70180E290E00E94EE0983943E
:101370008214C0F3512C73CF522C5818821408F4E5
:101380006ECFF8CF842D867809F47BCF8BE241FEB7
:1013900080E247FC8DE2B70190E071CFB70180E3B6
:1013A00090E00E94EE099A946CCF8FEF9FEF99CF57
:1013B000FC010590615070400110D8F78095909520
:1013C0008E0F9F1F0895FC01615070400190011025
:1013D000D8F7809590958E0F9F1F08950F931F93B8
:1013E000CF93DF93182F092FEB018B8181FD09C06B
:1013F0001FEF0FEF812F902FDF91CF911F910F9152
:10140000089582FF14C02E813F818C819D81281711
:1014100039073CF4E881F981CF01019699838883EB
:1014200010838E819F8101969F838E83E3CFE88511
:10143000F985812F0995892BA1F3DACFFA01AA2723
:10144000283051F1203181F1E8946F936E7F6E5F07
:101450007F4F8F4F9F4FAF4FB1E03ED0B4E03CD0B5
:10146000670F781F891F9A1FA11D680F791F8A1F98
:10147000911DA11D6A0F711D811D911DA11D20D0FF
:1014800009F468943F912AE0269F11243019305DB9
:101490003193DEF6CF010895462F4770405D4193AA
:1014A000B3E00FD0C9F7F6CF462F4F70405D4A33F7
:1014B00018F0495D31FD4052419302D0A9F7EACFBF
:1014C000B4E0A6959795879577956795BA95C9F7EE
:1014D00000976105710508959B01AC010A2E0694E1
:1014E0005795479537952795BA95C9F7620F731F9A
:0C14F000841F951FA01D0895F894FFCFE5
:1014FC004F4E34554C47604F554654493161EC4F73
:10150C004E34554C47604F554654493161000000EC
:10151C00005901B900E600A6011701F50009010AFE
:10152C002A2A7265636569766564206672616D65E9
:10153C002A2A00666C61673D3A202578000A2061F2
:10154C006464726573733A09000A20636F6E747277
:10155C006F6C20627974650900636F6E74726F6CC6
:10156C005B25645D3D257809000A20696E666F2055
:10157C00000A2070616464696E673A2009000A46AB
:10158C004353000A20435243203D2025780A000A89
:10159C0020666C6167203D202578200A000A4D6189
:1015AC006E6167656D656E740A000A49646C65202E
:1015BC00747820706172740A000A49646C65207238
:1015CC007820706172740A000A2054582053746198
:1015DC007465200A000A49206672616D650A000A6A
:1015EC0053206672616D650A000A205258205374AC
:1015FC00617465200A000A4275696C642046726148
:10160C006D650A000A0A000A2077616974696E67C1
:10161C0020666F722064617461200A000A20526592
:10162C00636569766564204672616D650A000A44DB
:08163C00656672616D650A002C
:00000001FF
