:100000000C9435000C945D000C945D000C945D0024
:100010000C945D000C945D000C945D000C945D00EC
:100020000C945D000C945D000C945D000C945D00DC
:100030000C945D000C945D000C945D000C945D00CC
:100040000C94D0020C945D000C9440030C941A03A1
:100050000C945D000C945D000C945D000C945D00AC
:100060000C945D000C945D00030611241FBECFEFBD
:10007000D8E0DEBFCDBF25E0A8E3B1E001C01D920E
:10008000A13DB207E1F711E0A0E0B1E0E0E7FCE05C
:1000900002C005900D92A833B107D9F710E0C5E36F
:1000A000D0E004C02197FE010E943006C433D1077E
:1000B000C9F70E9472030C9436060C9400003FB7F7
:1000C000F89480911A0490911B04A0911C04B091A3
:1000D0001D0426B5A89B05C02F3F19F00196A11D50
:1000E000B11D3FBFBA2FA92F982F8827BC01CD0182
:1000F000620F711D811D911D42E0660F771F881FE1
:10010000991F4A95D1F70895AF92BF92CF92DF928F
:10011000EF92FF920F931F93CF93DF936C017B01BC
:100120008B01040F151FEB015E01AE18BF08C0174D
:10013000D10759F06991D601ED91FC910190F081C0
:10014000E02DC6010995892B79F7C501DF91CF9183
:100150001F910F91FF90EF90DF90CF90BF90AF90E5
:100160000895FC01538D448D252F30E0842F90E0BD
:10017000821B930B541710F0CF96089501970895A2
:10018000FC01918D828D981761F0A28DAE0FBF2F6B
:10019000B11D5D968C91928D9F5F9F73928F90E0C1
:1001A00008958FEF9FEF08952FB7F8948091300551
:1001B00090913105A0913205B09133052FBF809306
:1001C0003C0590933D05A0933E05B0933F0584E325
:1001D00095E00E94C00097FF26C02FB7F894809149
:1001E000300590913105A0913205B09133052FBFB4
:1001F00040913C0550913D0560913E0570913F0551
:10020000841B950BA60BB70B40913805509139050F
:1002100060913A0570913B0584179507A607B707CB
:10022000B0F28FEF9FEF0895FC01918D828D9817AA
:1002300031F0828DE80FF11D858D90E008958FEFEC
:100240009FEF0895FC01918D228D892F90E0805CB5
:100250009F4F821B91098F739927089584E395E03E
:100260000E94220121E0892B09F420E0822F0895C9
:1002700080E090E0892B29F00E942E0181110C94DE
:1002800000000895FC01A48DA80FB92FB11DA35A39
:10029000BF4F2C91848D90E001968F739927848FA6
:1002A000A689B7892C93A089B1898C9183708064C9
:1002B0008C93938D848D981306C00288F389E02D6A
:1002C00080818F7D80830895EF92FF920F931F931B
:1002D000CF93DF93EC0181E0888F9B8D8C8D9813F9
:1002E0001AC0E889F989808185FF15C09FB7F89405
:1002F000EE89FF896083E889F98980818370806451
:1003000080839FBF81E090E0DF91CF911F910F919B
:10031000FF90EF900895F62E0B8D10E00F5F1F4FAA
:100320000F731127E02E8C8D8E110CC00FB607FCB9
:10033000FACFE889F989808185FFF5CFCE010E9447
:100340004201F1CFEB8DEC0FFD2FF11DE35AFF4F72
:10035000F0829FB7F8940B8FEA89FB8980818062D5
:10036000CFCFCF93DF93EC01888D8823B9F0AA8992
:10037000BB89E889F9898C9185FD03C0808186FD60
:100380000DC00FB607FCF7CF8C9185FFF2CF8081AF
:1003900085FFEDCFCE010E944201E9CFDF91CF91E1
:1003A0000895FC01DB016D917C91680F791F4FEF7F
:1003B0005FEF6E177F0741F19191292F220F2A7A63
:1003C00096959575292B922F990F990F9C7C2695C0
:1003D00026952373922B92959527892F82958F705E
:1003E0008927282F30E0942FA901542F44275295B4
:1003F000507F84279527A90125E0440F551F2A9592
:10040000E1F748275927D5CF9A01220F331F2A7ABF
:100410003A7ACA01B0E0A0E0B695A795979587957E
:1004200085759575822B932BBC01660F771F660F20
:10043000771F6C7C7C7CB0E0A0E0E2E0B695A795ED
:1004400097958795EA95D1F783739373682B792BEA
:10045000CB01F4E0880F991FFA95E1F7807F907F38
:10046000AB0170E060E0A4E07695679557954795FD
:10047000AA95D1F74F705F70842B952B9827892709
:1004800098270895BF92CF92DF92EF92FF920F9339
:100490001F93CF93DF93CDB7DEB7C250D1400FB6D5
:1004A000F894DEBF0FBECDBF10922F054EE154E091
:1004B000FE0131969F016F0195E04E31590739F0E9
:1004C000DA019D91AD01D9019D939D01F5CF9981EF
:1004D0009E3709F062C021E030E0CF5FDE4F398304
:1004E0002883C150D140A1E2B5E02FE235E031963A
:1004F0002A173B0769F498899093200500E110E0E2
:1005000090E040960817190738F40F5F1F4FFACF95
:1005100090819D93ECCF87017801BFEFEB1AFB0A26
:10052000EDEFEE16F104B8F3CF5FDE4FF982E8820B
:10053000C150D140BB24B394B0921F0510921E0548
:10054000BE016F5F7E4FC6010E94D101F601EE0D24
:10055000FF1D2081291310C00E5F1F4FCF5FDE4F9C
:1005600019830883C150D1400C0D1D1DD8019C91E9
:10057000981302C0B0922F05CE5FDE4F0FB6F894ED
:10058000DEBF0FBECDBFDF91CF911F910F91FF90C6
:10059000EF90DF90CF90BF90089510921E05ECCFA2
:1005A0001F920F920FB60F9211242F933F938F93A8
:1005B0009F93AF93BF938091300590913105A091A7
:1005C0003205B09133053091190423E0230F2D3704
:1005D00058F50196A11DB11D209319048093300593
:1005E00090933105A0933205B093330580911A049E
:1005F00090911B04A0911C04B0911D040196A11DB3
:10060000B11D80931A0490931B04A0931C04B09313
:100610001D04BF91AF919F918F913F912F910F90AA
:100620000FBE0F901F90189526E8230F0296A11D6C
:10063000B11DD2CF1F920F920FB60F9211242F939C
:100640003F934F935F936F937F938F939F93AF935A
:10065000BF93EF93FF9384E395E00E944201FF91E3
:10066000EF91BF91AF919F918F917F916F915F912A
:100670004F913F912F910F900FBE0F901F901895A3
:100680001F920F920FB60F9211242F938F939F9367
:10069000EF93FF93E0914405F09145058081E0914F
:1006A0004A05F0914B0582FD1BC0908180914D055C
:1006B0008F5F8F7320914E05821741F0E0914D05B9
:1006C000F0E0EC5CFA4F958F80934D05FF91EF9130
:1006D0009F918F912F910F900FBE0F901F901895A3
:1006E0008081F4CFCF93DF93CDB7DEB72E970FB6CF
:1006F000F894DEBF0FBECDBF789484B5826084BD10
:1007000084B5816084BD85B5826085BD85B5816015
:1007100085BD80916E00816080936E001092810093
:10072000809181008260809381008091810081604E
:10073000809381008091800081608093800080910F
:10074000B10084608093B1008091B000816080939B
:10075000B00080917A00846080937A0080917A0062
:10076000826080937A0080917A00816080937A0021
:1007700080917A00806880937A001092C100E091A5
:100780004405F091450582E08083E0914005F091B9
:1007900041051082E0914205F09143058FEC808382
:1007A00010924C05E0914805F091490586E0808360
:1007B000E0914605F0914705808180618083E0915A
:1007C0004605F0914705808188608083E091460569
:1007D000F0914705808180688083E0914605F09123
:1007E000470580818F7D80835E012FE0A20EB11CC2
:1007F00069E2662E63E0762E01E080911804813074
:10080000A1F48091170481110EC080913801EBE2B0
:10081000F3E09CEE980F81938F5F8913FCCF809358
:100820003801009317041092180490911704913026
:1008300021F480912A03882321F080911F058130C3
:1008400099F48EE0EFE0F1E0DE01119601900D9257
:100850008A95E1F780913C01813009F49DC008F44C
:1008600040C0823009F4C9C080912A03813009F068
:100870001DC180912903811119C180910E019EE74C
:1008800090932902A0E0B1E0E9E2F2E031962EE097
:1008900031E02A173B0709F0E8C010933802ADE3B6
:1008A000B1E0E9E3F2E030E1E32EF12C90E0409694
:1008B000E816F90608F4DCC0C701875D9D4F4C01BE
:1008C00067013FEFC31AD30AC401895292408D3F9A
:1008D000910508F0D3C0F4012AEA21934F01760173
:1008E000EFCF9130F9F480912A0381111BC0EBE224
:1008F000F3E0ADE3B1E081918D9334E0E731F307AC
:10090000D1F71092170400932A0310913B01110FA5
:100910001E7080913A01E0E28E9FC0011124182BD5
:1009200000933C0120911F05213009F09DCFE1E2A9
:10093000F5E0DE01119691918D919817B9F0109222
:100940001F058091200580FD1EC090E0959587953C
:10095000877090913A01891310C0009339012130BA
:1009600009F482CF92E090933C017ECF8FE295E034
:100970008E179F0701F720E0E4CF10923901E2E0E3
:10098000E0933C0171CF213009F46ECF80913901A1
:10099000813009F069CFE6CF80911F05813009F0E1
:1009A00063CF8091200580FF22C0982F93709130F3
:1009B000F1F4382F3295369537703150232F383077
:1009C00008F027E090913B0129130DC090E0959528
:1009D0008795959587958370823028F4373050F449
:1009E0002F5F20933B0110923C010093180410925A
:1009F0001F053ACF10923B01F6CF10921F05809150
:100A00003B01873050F58F5F80933B0180913A0125
:100A1000F0E28F9F90011124122F116090912F0509
:100A2000913009F5909139019130E9F48730C0F4A3
:100A30008F5F80933A011092390110920E01FE01EE
:100A40003196A0E0B1E081918D93EA15FB05D9F7CD
:100A500000932A0310923C0107CF10923B01D6CF9E
:100A600010923A01E8CF1860E8CF9D9190830ECFA5
:100A70002D9121932FEFE21AF20A1ACFFA82E9821E
:100A8000BE016F5F7F4F89E292E00E94D101F401C5
:100A90009083F601E75DFD4F8083F701E55DFD4F33
:100AA0008EE7808310922A03009329038091290303
:100AB0008130A1F429E2E22E22E0F22EF7016191C9
:100AC0007F0184E395E00E94640184E395E00E9445
:100AD000B1016E147F0491F71092290388E0EDE1D3
:100AE000F1E0DE01119601900D928A95E1F784E321
:100AF00095E00E942201892B09F46CC080911E05AB
:100B0000811168C08CEE80930E019EE1E92E94E085
:100B1000F92E0E94D40097FD08C0F70181937F0150
:100B2000F6E2EF16F4E0FF06A1F7DE011196EEE122
:100B3000F4E081E021919D91291380E024E0E632E8
:100B4000F207C1F7813009F045C0F12CE12CC70153
:100B50008A5D9B4F6C01F701E25DFB4F4F010E94E4
:100B6000D40097FD06C0F60181936F018E169F0693
:100B7000B1F7F8E0EF0EF11C28EFE216F10439F7B7
:100B80000E945F001B012C0184E6C82ED12CE12CB1
:100B9000F12C0E945F006219730984099509683E6F
:100BA000734081059105A8F331E0C31AD108E1082B
:100BB000F10888EE280E83E0381E411C511CC11438
:100BC000D104E104F10429F700931E0584E395E0C4
:100BD0000E94B10180911F05811108C080911E05FE
:100BE000813021F480910E010E94420220E030E029
:100BF000232B09F402CE0E942E01882309F4FCCD98
:100C00000E940000F9CDE4E3F5E01382128288EE41
:100C100093E0A0E0B0E084839583A683B78389E264
:100C200091E09183808385EC90E09587848784ECC4
:100C300090E09787868780EC90E0918B808B81ECA9
:100C400090E0938B828B82EC90E0958B848B86EC8A
:100C500090E0978B868B118E128E138E148E0895D2
:100C6000EE0FFF1F0590F491E02D0994F894FFCF4B
:100C70004F4E34554C47604F554654493161EC4F07
:100C80004E34554C47604F5546544931617E4F4E66
:100C900034554C47600000000064018400B100B18D
:080CA000012201C00014010053
:00000001FF
