:1000000072C000009EC000009CC000009AC00000AA
:1000100098C0000096C0000094C0000092C000008C
:1000200090C000008EC000008CC000008AC000009C
:1000300088C0000086C0000084C0000082C00000AC
:1000400080C000007EC000007CC000007AC00000BC
:1000500078C0000076C0000074C000002DC300000E
:1000600070C00000FBC30000D0C300006AC00000E5
:1000700068C0000066C0000064C0000062C00000EC
:1000800060C000005EC000005CC000005AC00000FC
:1000900086C300005BC3000054C0000052C00000D3
:1000A00050C000004EC000004CC000004AC000001C
:1000B00048C0000046C0000044C0000042C000002C
:1000C00040C000003EC000003CC000003AC000003C
:1000D00038C0000036C0000034C0000032C000004C
:1000E00030C00000640411241FBECFEFD1E2DEBF98
:1000F000CDBF00E00CBF27E0A0E9B2E001C01D9237
:10010000A63CB207E1F712E0A0E0B2E0E6E0FFE0D3
:1001100000E00BBF02C007900D92A039B107D9F7DC
:1001200010E0C3E7D0E000E005C021970109802F6F
:10013000FE01DFD6C237D10780E00807B1F717D438
:10014000E0C65ECFFC01A089B18982E08C93A485D2
:10015000B5851C92A685B7858FEC8C93108EA489EB
:10016000B58986E08C93A289B3898C9180618C9348
:10017000A289B3898C9188608C93A289B3898C9170
:1001800080688C930288F389E02D80818F7D808345
:1001900008953FB7F8948091760590917705A091E6
:1001A0007805B091790526B5A89B05C02F3F19F0B9
:1001B0000196A11DB11D3FBFBA2FA92F982F8827E7
:1001C000BC01CD01620F711D811D911D42E0660FC2
:1001D000771F881F991F4A95D1F708958F929F9294
:1001E000AF92BF92CF92DF92EF92FF92D2DF4B019C
:1001F0005C0184E6C82ED12CE12CF12CCADF6819F1
:1002000079098A099B09683E734081059105B0F31D
:1002100021E0C21AD108E108F10888EE880E83E0D7
:10022000981EA11CB11CC114D104E104F10431F7E2
:10023000FF90EF90DF90CF90BF90AF909F908F9006
:100240000895AF92BF92CF92DF92EF92FF920F93F9
:100250001F93CF93DF936C017B018B01040F151F5C
:10026000EB015E01AE18BF08C017D10759F06991C4
:10027000D601ED91FC910190F081E02DC601199518
:10028000892B79F7C501DF91CF911F910F91FF90D5
:10029000EF90DF90CF90BF90AF900895FC01538D09
:1002A000448D252F30E0842F90E0821B930B541750
:1002B00010F0CF96089501970895FC01918D828DDD
:1002C000981761F0A28DAE0FBF2FB11D5D968C9176
:1002D000928D9F5F9F73928F90E008958FEF9FEFB5
:1002E0000895FC01918D828D981731F0828DE80F71
:1002F000F11D858D90E008958FEF9FEF0895FC012B
:10030000918D228D892F90E0805C9F4F821B9109F7
:100310008F73992708958CE896E0F1DF21E0892B0F
:1003200009F420E0822F089589E297E0E8DF21E0D8
:10033000892B09F420E0822F0895FC01A48DA80FD9
:10034000B92FB11DA35ABF4F2C91848D90E0019617
:100350008F739927848FA689B7892C93A089B18937
:100360008C91837080648C93938D848D981306C0D8
:100370000288F389E02D80818F7D80830895EF923C
:10038000FF920F931F93CF93DF93EC0181E0888F4F
:100390009B8D8C8D98131AC0E889F989808185FF1F
:1003A00015C09FB7F894EE89FF896083E889F989C1
:1003B00080818370806480839FBF81E090E0DF91C3
:1003C000CF911F910F91FF90EF900895F62E0B8D16
:1003D00010E00F5F1F4F0F731127E02E8C8D8E11D1
:1003E0000BC00FB607FCFACFE889F989808185FF39
:1003F000F5CFCE01A2DFF2CFEB8DEC0FFD2FF11D7B
:10040000E35AFF4FF0829FB7F8940B8FEA89FB897C
:1004100080818062D0CFCF93DF93EC01888D8823D9
:10042000B1F0AA89BB89E889F9898C9185FD03C05F
:10043000808186FD0CC00FB607FCF7CF8C9185FF3D
:10044000F2CF808185FFEDCFCE0177DFEACFDF915C
:10045000CF91089580E090E0892B21F065DF811134
:100460000E94000080E090E0892B21F054DF811190
:100470000E94000080E090E0892B49F080E090E04D
:10048000892B29F00E94000081110E94000080E069
:1004900090E0892B49F080E090E0892B29F00E94C0
:1004A000000081110C9400000895FC01DB016D91A6
:1004B0007C91680F791F4FEF5FEF6E177F0741F157
:1004C0009191292F220F2A7A96959575292B922F93
:1004D000990F990F9C7C269526952373922B9295C4
:1004E0009527892F82958F708927282F30E0942FA8
:1004F000A901542F44275295507F84279527A9019D
:1005000025E0440F551F2A95E1F748275927D5CFF5
:100510009A01220F331F2A7A3A7ACA01B0E0A0E08A
:10052000B695A7959795879585759575822B932B8D
:10053000BC01660F771F660F771F6C7C7C7CB0E078
:10054000A0E0E2E0B695A79597958795EA95D1F753
:1005500083739373682B792BCB01F4E0880F991F79
:10056000FA95E1F7807F907FAB0170E060E0A4E056
:100570007695679557954795AA95D1F74F705F7017
:10058000842B952B9827892798270895BF92CF927F
:10059000DF92EF92FF920F931F93CF93DF93CDB72C
:1005A000DEB7C250D1400FB6F894DEBF0FBECDBF4C
:1005B00010928B064AE755E0FE0131969F016F01CC
:1005C00096E04A37590739F0DA019D91AD01D9011A
:1005D0009D939D01F5CF99819E3709F050C021E090
:1005E00030E0CF5FDE4F39832883C150D140ADE783
:1005F000B6E02BE836E031962A173B0769F4988974
:1006000090937C0600E110E090E0409608171907EF
:1006100038F40F5F1F4FFACF90819D93ECCF870185
:100620007801BFEFEB1AFB0AEDEFEE16F104B8F319
:10063000CF5FDE4FF982E882C150D140BB24B39432
:10064000B0927B0610927A06BE016F5F7E4FC601A4
:100650002CDFF601EE0DFF1D2081291310C00E5F67
:100660001F4FCF5FDE4F19830883C150D1400C0D5F
:100670001D1DD8019C91981302C0B0928B06CE5FCD
:10068000DE4F0FB6F894DEBF0FBECDBFDF91CF9126
:100690001F910F91FF90EF90DF90CF90BF90089542
:1006A000FC0101900020E9F73197AF01481B590B7D
:1006B000BC018CE896E0C5CD1F920F920FB60F9249
:1006C00011242F933F938F939F93AF93BF93809168
:1006D000720590917305A0917405B09175053091E4
:1006E000710523E0230F2D3758F50196A11DB11D8B
:1006F000209371058093720590937305A093740500
:10070000B09375058091760590917705A091780555
:10071000B09179050196A11DB11D80937605909346
:100720007705A0937805B0937905BF91AF919F911C
:100730008F913F912F910F900FBE0F901F901895A2
:1007400026E8230F0296A11DB11DD2CF1F920F9252
:100750000FB60F9211240BB60F922F933F934F9326
:100760005F936F937F938F939F93AF93BF93EF9319
:10077000FF938CE896E0E1DDFF91EF91BF91AF919F
:100780009F918F917F916F915F914F913F912F91A9
:100790000F900BBE0F900FBE0F901F9018951F92D9
:1007A0000F920FB60F9211240BB60F922F938F93C7
:1007B0009F93EF93FF93E0919C06F0919D068081BB
:1007C000E091A206F091A30682FD1DC09081809168
:1007D000A5068F5F8F732091A606821741F0E091E6
:1007E000A506F0E0E457F94F958F8093A506FF9199
:1007F000EF919F918F912F910F900BBE0F900FBE95
:100800000F901F9018958081F2CF1F920F920FB614
:100810000F9211240BB60F922F933F934F935F9338
:100820006F937F938F939F93AF93BF93EF93FF93B8
:1008300089E297E082DDFF91EF91BF91AF919F91A7
:100840008F917F916F915F914F913F912F910F9079
:100850000BBE0F900FBE0F901F9018951F920F9216
:100860000FB60F9211240BB60F922F938F939F9375
:10087000EF93FF93E0913907F0913A078081E0917F
:100880003F07F091400782FD1DC090818091420793
:100890008F5F8F7320914307821741F0E0914207E9
:1008A000F0E0E75DF84F958F80934207FF91EF915D
:1008B0009F918F912F910F900BBE0F900FBE0F90B5
:1008C0001F9018958081F2CFECE8F6E01382128237
:1008D00048EE53E060E070E044835583668377839D
:1008E00081E292E0918380832DEC30E0358724878C
:1008F0002CEC30E03787268728EC30E0318B208BDA
:1009000029EC30E0338B228B2AEC30E0358B248BC2
:100910002EEC30E0378B268B118E128E138E148EB8
:10092000E9E2F7E01382128244835583668377837A
:100930009183808385EC90E09587848784EC90E0B8
:100940009787868780EC90E0918B808B81EC90E09C
:10095000938B828B82EC90E0958B848B86EC90E07D
:10096000978B868B118E128E138E148E0895CF93D3
:10097000DF93CDB7DEB7A1970FB6F894DEBF0FBEF9
:10098000CDBF789484B5826084BD84B5816084BD18
:1009900085B5826085BD85B5816085BD80916E001D
:1009A000816080936E00109281008091810082604E
:1009B000809381008091810081608093810080918B
:1009C00080008160809380008091B100846080937A
:1009D000B1008091B00081608093B000809191005F
:1009E000826080939100809191008160809391005A
:1009F000809190008160809390008091A10082603E
:100A00008093A1008091A10081608093A1008091DA
:100A1000A00081608093A00080912101826080937A
:100A20002101809121018160809321018091200129
:100A300081608093200180917A00846080937A00A5
:100A400080917A00826080937A0080917A00816040
:100A500080937A0080917A00806880937A00109267
:100A6000C10089E297E06EDB8CE896E06BDB809159
:100A70006F0581110FC080919002E3E8F4E09CEED5
:100A8000980F81938F5F8913FCCF8093900281E050
:100A900080936F05552453945FE6252E55E0352E3F
:100AA0003E012FE0620E711C61E8862E64E0962EF6
:100AB0007AE7A72E76E0B72E91DB80917005813022
:100AC000A1F480916F0581110EC080919002E3E83E
:100AD000F4E09CEE980F81938F5F8913FCCF809395
:100AE000900250926F051092700580916F058130D1
:100AF00021F480918204882321F080917B0681304B
:100B0000B1F48FE292E0CCDD8EE0EFE0F2E0DE01C6
:100B1000119601900D928A95E1F7809194028130AF
:100B200009F492C008F441C0823009F4C3C0809136
:100B30008204813009F026C180918104811122C193
:100B40008DE492E0ADDD80910E029EE790938103EB
:100B5000A0E0B2E0E1E8F3E0319692E0AE30B90710
:100B600009F0F1C040929003A5E9B2E0E1E9F3E0B9
:100B700000E110E090E040960817190708F4E6C07D
:100B8000F801EF57FC4F6F017801FFEFEF1AFF0AF2
:100B9000C601815893408D3F910508F0DCC0F601F5
:100BA0002AEA21936F018701EFCF80916F05813091
:100BB000F9F48091820481111BC0E3E8F4E0A5E917
:100BC000B2E081918D932E163F06D9F710926F05F2
:100BD0005092820480919302880F8E70409092020E
:100BE00090E2499E90011124482E422A509294028C
:100BF00030917B06313009F09ACFEDE7F6E0DE0167
:100C0000119691918D919817C1F010927B062091C9
:100C10007C06822F90E020FD8ACF229526952770B2
:100C200020939102959587958770909192028917EC
:100C300009F450C110927B067ACF8BE896E08E17AC
:100C40009F07F9F630E0E3CF80917B06813009F011
:100C50006ECF80917C0680FD06C082958695877058
:100C600080939102E7CF982F9370913019F7282F36
:100C70002295269527702093910290E0959587956F
:100C8000959587958370309193022150283008F014
:100C900027E0321307C0823028F4373041F03F5F3D
:100CA000309393021092940250927005C3CF109229
:100CB0009302F8CF10927B0680919302873068F5FB
:100CC0008F5F8093930280918B06813061F58CE376
:100CD00092E0E6DC83E492E0E3DC40909102E0E223
:100CE0004E9EC0011124482E689440F880919202D3
:100CF0008730B0F48F5F8093920210920E02FE0153
:100D00003196A0E0B2E081918D936E167F06D9F7FF
:100D100050928204109294020ACF10929302D3CF81
:100D200010929202EACF86E492E0BADC83E492E089
:100D3000B7DC40909102F0E24F9EC0011124282FB1
:100D40002960422EDACF9D91908306CF2D91219379
:100D50000F5F1F4F11CF1A830983BE016F5F7F4F53
:100D600081E893E0A2DBF6019083F701EF57FC4F97
:100D70008083F801ED57FC4F8EE780831092820448
:100D80005092810480918104813081F401E813E064
:100D9000F80161918F0189E297E0F1DA89E297E049
:100DA0003ADB80169106A1F71092810489E297E060
:100DB000A6DA892B09F47BC080917A06811177C06D
:100DC0008CEE80930E028BE592E06ADC0AE715E078
:100DD00078012FB7F8948091720590917305A091D6
:100DE0007405B09175052FBF80933107909332073A
:100DF000A0933307B093340789E297E05EDA97FF58
:100E000070C02FB7F8948091720590917305A091EE
:100E10007405B09175052FBF40913107509132078D
:100E20006091330770913407841B950BA60BB70BA9
:100E300040912D0750912E0760912F077091300738
:100E400084179507A607B707B8F2C8D950927A0653
:100E500080E792E025DCF80141918F0150E070E0DD
:100E600060E019A2FE01B196DB01CA018F709927DB
:100E7000AA27BB2794E076956795579547959A954D
:100E8000D1F78A302CF5805D8293411551056105BB
:100E9000710551F7309711F0CF0102DC8CE896E034
:100EA000BADAA016B106B9F682E892E0F9DB96D973
:100EB00080917B0681110AC080917A06813031F4DD
:100EC00085E892E0EDDB80910E0260DBC3DAF4CDC1
:100ED000895CDACF313009F42ACE92E09093940203
:100EE00026CEF70181937F01AE16BF0609F071CFC0
:100EF000ACCFEE0FFF1F881F8BBF0790F691E02D40
:060F00001994F894FFCFE4
:100F06004F4E34554C47604F554654493161EC4F6E
:100F16004E34554C47604F554654493161000000E8
:100F260000BF0121014E010B027F015D0171010A23
:100F36004D616E6167656D656E740A004163636538
:100F46007074000D0A0052656A656374000A427582
:100F5600696C64204672616D650A000A20776169D2
:100F660074696E6720666F722064617461200A007E
:100F76000A205265636569766564204672616D650F
:100F86000A000A0A000A44656672616D650A000075
:00000001FF
